:100000000C94D5010C94FD010C94FD010C94FD01A0
:100010000C94FD010C94FD010C94FD010C94FD0168
:100020000C94FD010C94FD010C94FD010C94FD0158
:100030000C94FD010C94FD010C94FD010C94FD0148
:100040000C94212A0C94FD010C94AB2A0C94852A63
:100050000C94FD010C94FD010C94FD010C94FD0128
:100060000C94E32A0C94FD01202D2000202D20006B
:100070004E2F41004E2F410064697361626C6564CC
:100080000020206175746F20200074656D702E2033
:100090004F4E0074656D702E4F4646007065726D50
:1000A0002E204F4E007065726D2E4F4646004469FB
:1000B0007361626C656400496E74657276616C0090
:1000C000496E7465724F464600496E7465722D4FD5
:1000D0004E00496E744F6E4F6666002020323468C1
:1000E000202020007C20007C002020204E41202069
:1000F0002020282029003A0020204F66665365748E
:10010000003A00204F666654696D65003A00202071
:100110004F6E54696D6500207768696C65204F46A5
:1001200046202000202020204E2F4120202020206B
:100130000020207768696C65204F4E202000202029
:1001400020204D61696E2020202000536574546585
:100150006D7054696D653A200054656D706F726101
:100160007279204F4E202020202020200054656DE1
:10017000706F72617279204F464620202020202027
:10018000005065726D616E656E74204F4E00506553
:10019000726D616E656E74204F46462020202020CF
:1001A00020004175746F6D617469632020202020E8
:1001B00020202020200053617420200046726920F6
:1001C0002000546875202000576564202000545595
:1001D000452020004D6F6E20200053756E202000BA
:1001E000414C4C20200044697361626C6564004995
:1001F0006E76657274656420506F727420202020C2
:1002000020003234682D4461792054696D65722074
:100210002020202020007768696C654F46462054D6
:10022000696D6572007768696C654F4E2054696D21
:100230006572202020202000496E74657276616C02
:100240002054696D6572202020202000536F6C2E91
:10025000436F6C6F720046616C7365005472756514
:1002600000426F6F7434536C617665203D200054FA
:100270007275650046616C736500426F6F7434542B
:1002800065726D696E616C203D2000537065656418
:10029000203D200041646472657373203D2000544A
:1002A000696D650044617465005265426F6F74004A
:1002B000556E646566696E656420506F72742F5464
:1002C000696D6572203A200020001B5B32346D009E
:1002D0001B5B346D0048003B001B5B001B5B324A1C
:1002E000006D001B5B001B5B32326D001B5B316DD0
:1002F000001B5B32376D001B5B376D0044001B5BDE
:100300000043001B5B0042001B5B001B37001B38D7
:1003100000642000204020002020202053656C65D0
:100320006374206B65792C206F7220456E74657242
:1003300028666F722072657475726E292E2E2E00DB
:100340000A003A200029004F464600204F4E002068
:100350007C20003E3E200000000000240027002AF0
:100360000000000000250028002B00040404040401
:100370000404040202020202020303030303030152
:100380000204081020408001020408102001020429
:10039000081020000000080002010000030407000C
:1003A0000000000000000000142A11241FBECFEF3F
:1003B000D8E0DEBFCDBF24E0A2E9B1E001C01D92CC
:1003C000AF36B207E1F711E0A0E0B1E0E6E4FCE50A
:1003D00002C005900D92A239B107D9F711E0C5ED21
:1003E000D1E004C02197FE010E94D02DC43DD10769
:1003F000C9F70E947C2A0C94212E0C9400000895C9
:100400008330B1F060F08730E9F0883009F1843052
:1004100021F5E0E8F0E080818F7D808308958130D0
:1004200069F0823021F484B58F7D84BD08950895EC
:10043000E0E8F0E080818F778083089584B58F773E
:1004400084BD0895E0EBF0E080818F77808308958C
:10045000E0EBF0E080818F7D808308951F93CF9340
:10046000DF93282F30E0F901ED56FC4F8491F9011C
:10047000E158FC4F1491F901E559FC4FC491CC238C
:10048000A9F0D62F811116C0EC2FF0E0EE0FFF1F60
:10049000EF59FC4FA591B4918FB7F894D1110DC0CD
:1004A0009C91E12FE095E923EC938FBFDF91CF91F1
:1004B0001F9108950E940002E7CFEC91E12BEC938D
:1004C000F4CFCF93DF9390E0FC01E158FC4F2491EF
:1004D00085599C4FFC018491882319F190E0880F85
:1004E000991FFC01E95AFC4FA591B491FC01EF5909
:1004F000FC4FC591D491662349F06230A9F08FB7C3
:10050000F894EC91E22BEC938FBF0BC09FB7F8945B
:100510008C91E22FE0958E238C938881E823E883E9
:100520009FBFDF91CF9108959FB7F8943C91822FA0
:10053000809583238C93E881E22BE8839FBFF1CFE2
:10054000789484B5826084BD84B5816084BD85B5AE
:10055000826085BD85B5816085BDEEE6F0E0808175
:1005600081608083E1E8F0E0108280818260808396
:10057000808181608083E0E8F0E080818160808319
:10058000E1EBF0E0808184608083E0EBF0E080814B
:1005900081608083EAE7F0E08081846080838081ED
:1005A0008260808380818160808380818068808395
:1005B0001092C10008953FB7F8948091690490911A
:1005C0006A04A0916B04B0916C0426B5A89B05C089
:1005D0002F3F19F00196A11DB11D3FBFBA2FA92FC2
:1005E000982F8827BC01CD01620F711D811D911DBF
:1005F000660F771F881F991F660F771F881F991F27
:1006000008958F929F92AF92BF92CF92DF92EF9216
:10061000FF926B017C010E94DB024B015C011BC05D
:1006200021E0C21AD108E108F10888EE880E83E0C3
:10063000981EA11CB11CC114D104E104F10459F0AD
:100640000E94DB02681979098A099B09683E734098
:100650008105910528F7C114D104E104F10459F78B
:10066000FF90EF90DF90CF90BF90AF909F908F90D2
:1006700008952FB7F8946091650470916604809195
:100680006704909168042FBF08950895DC01ED91EF
:10069000FC910190F081E02D09950895EF92FF9271
:1006A0000F931F93CF93DF938C01FB01D0E0C0E049
:1006B0007F018FEFE81AF80A6491662369F0D80188
:1006C000ED91FC910190F081E02DC8010995892BF5
:1006D00019F02196F701ECCFCE01DF91CF911F9158
:1006E0000F91FF90EF900895CF92DF92EF92FF92DB
:1006F0000F931F93CF93DF938C01DB01D0E0C0E019
:100700007A0181E0E81AF108452BA1F0F801808117
:100710009181FC01208131816D01FFEFCF1ADF0A49
:100720006C91C801F9010995892B21F02196A70147
:10073000D601E6CFCE01DF91CF911F910F91FF90AF
:10074000EF90DF90CF900895019709F008956F3FE3
:100750007F4FE1F7E7ECF3E01382128288EE93E03B
:10076000A0E0B0E084839583A683B78384E291E020
:100770009183808385EC90E09587848784EC90E07A
:100780009787868780EC90E0918B808B81EC90E05E
:10079000938B828B82EC90E0958B848B86EC90E03F
:1007A000978B868B118E128E138E148ECFCFFC01F9
:1007B000938D848D981720F4891B990B01970895C8
:1007C0002FE330E0291B3109820F932F911D0895EB
:1007D000FC01918D828D981761F0A28DAE0FBF2F15
:1007E000B11D5D968C91928D9F5F9F73928F90E06B
:1007F00008958FEF9FEF0895FC01918D828D9817DA
:1008000031F0828DE80FF11D858D90E008958FEF16
:100810009FEF0895FC01218D30E0205C3F4F828DD9
:10082000A901481B5109CA018F739927089587ECC4
:1008300093E00E940A0421E0892B09F420E0822F32
:100840000895CF92DF92EF92FF921F93CF93DF93A1
:10085000EC016A017B01122F60E079E08DE390E00A
:10086000A70196010E94AE2D21503109410951097D
:100870005695479537952795E889F98982E08083D1
:10088000C11481EED806E104F10421F0211580E1C4
:10089000380798F0E889F989108260E874E88EE1F9
:1008A00090E0A70196010E94AE2D21503109410927
:1008B00051095695479537952795EC85FD853083E9
:1008C000EE85FF852083188EEC89FD891083EA89E7
:1008D000FB89808180618083EA89FB8980818860CF
:1008E0008083EA89FB89808180688083EA89FB892B
:1008F00080818F7D8083DF91CF911F91FF90EF905A
:10090000DF90CF900895FC01A48DA80FB92FB11DE1
:10091000A35ABF4F2C91848D90E001968F739078ED
:10092000848FA689B7892C93A089B1898C91837013
:1009300080648C93938D848D981308950288F38935
:10094000E02D80818F7D8083F8CF0F931F93CF930D
:10095000DF93EC0181E0888F9B8D8C8D9817B1F02F
:10096000062F8B8D90E001968F739078182F8C8DC9
:1009700081131EC00FB607FCFACFE889F989808180
:1009800085FFF5CFCE010E948304F1CFE889F98974
:10099000808185FFE5CF9FB7F894EE89FF8960835A
:1009A000E889F98980818370806480839FBF10C04B
:1009B000EB8DEC0FFD2FF11DE35AFF4F00839FB726
:1009C000F8941B8FEA89FB898081806280839FBFB6
:1009D00081E090E0DF91CF911F910F910895CF9327
:1009E000DF93EC01888D811104C00DC00FB607FEA6
:1009F0000DC0EA89FB89808185FDF8CFA889B98976
:100A00008C9186FFF3CFDF91CF910895808185FF90
:100A1000F0CFE889F989808185FFEBCFCE010E9474
:100A20008304E7CF80E090E0892B21F00E94170437
:100A3000811101C008950E940000FCCF85EC8093D5
:100A4000BC001092A1030895811104C085E8809331
:100A5000BC00089585EC8093BC00089590937A03C0
:100A600080937903089590937E0380937D03089586
:100A7000AC0120917B03260F3327331F2132310530
:100A8000F4F48091A1038430E1F490E00FC0E09190
:100A90007B03292F30E0E20FF32FF11D240F351FC8
:100AA000D9012C91E75AFC4F20839F5F961778F36A
:100AB00080917B03680F60937B0380E0089581E061
:100AC000089582E008959B01AC0160E074E284EF38
:100AD00090E00E94AE2D20513109410951095695EF
:100AE0004795379527952093B8000895ECEBF0E0F3
:100AF00080818A7B808360E082E10E942E0260E038
:100B000083E10E942E0208951092A10381E0809358
:100B1000A3031092A20361E082E10E942E0261E031
:100B200083E10E942E02E9EBF0E080818E7F8083DA
:100B300080818D7F808388E48093B80085E48093F2
:100B4000BC000895EF92FF920F931F93CF93DF9312
:100B500091E090935803811107C0DF91CF911F91CD
:100B60000F91FF90EF900895C8EBD0E0F8800AEB6A
:100B700010E0F801E0800E9476050E948405F801EB
:100B8000E082F882EACF4F925F926F927F928F92CB
:100B90009F92AF92BF92EF92FF920F931F93CF93CA
:100BA000DF93413280F081E0DF91CF911F910F916F
:100BB000FF90EF90BF90AF909F908F907F906F903D
:100BC0005F904F900895D22FC42F7B01182F0E9461
:100BD000DB024B015C019091A103992329F18091E3
:100BE000540390915503A0915603B0915703892B5C
:100BF0008A2B8B2B81F30E94DB02681979098A0901
:100C00009B09409054035090550360905603709098
:100C100057034616570668067906E8F6809153038F
:100C20000E94A20585E0C0CF82E08093A1030093DB
:100C3000A3038FEF8093A0031092C503C093C40356
:100C40000AC0E92FF0E0D701AE0FBF1F8C91EC5521
:100C5000FC4F80839F5F9C17A0F31092C603812FE7
:100C600090E0880F991F1091C603812B8093C603D3
:100C70008091A2038130A1F185EE8093BC000E9497
:100C8000DB024B015C01DD2309F462C08091A1030A
:100C9000823009F05DC08091540390915503A0917A
:100CA0005603B0915703892B8A2B8B2B61F30E943B
:100CB000DB02681979098A099B0900915403109194
:100CC000550320915603309157030617170728073D
:100CD0003907C8F6809153030E94A20585E064CFCE
:100CE0001092A2030E94DB024B015C0104C08091C0
:100CF000BC0083FF29C08091C6038093BB00809114
:100D0000540390915503A0915603B0915703892B3A
:100D10008A2B8B2B61F30E94DB02681979098A09FF
:100D20009B09009154031091550320915603309173
:100D300057030617170728073907C8F6809153038A
:100D40000E94A20585E030CF85EC8093BC0097CF50
:100D50008091A0038F3F61F08091A003803251F019
:100D60008091A003803311F084E01ECF83E01CCF7C
:100D700080E01ACF82E018CF8F929F92AF92BF92FD
:100D8000DF92EF92FF920F931F93CF93DF93413245
:100D900068F080E0DF91CF911F910F91FF90EF906D
:100DA000DF90BF90AF909F908F900895D22EF42E39
:100DB000EB01E82E0E94DB024B015C019091A10344
:100DC000992329F100915403109155032091560362
:100DD00030915703012B022B032B81F30E94DB027E
:100DE000681979098A099B090091540310915503E8
:100DF0002091560330915703061717072807390724
:100E0000E8F6809153030E94A20580E0C3CF81E001
:100E10008093A103D092A3039FEF9093A00310921D
:100E2000C5039F0D9093C4038093C6038E2D90E05D
:100E3000880F991F9091C603892B8093C6038091D8
:100E4000A203813089F185EE8093BC000E94DB0211
:100E50004B015C019091A103913009F05DC00091BC
:100E60005403109155032091560330915703012BE1
:100E7000022B032B79F30E94DB02681979098A0996
:100E80009B09009154031091550320915603309112
:100E900057030617170728073907E0F68091530311
:100EA0000E94A20580E076CF1092A2030E94DB028E
:100EB0004B015C0104C08091BC0083FF29C080917C
:100EC000C6038093BB008091540390915503A09179
:100ED0005603B0915703892B8A2B8B2B61F30E9409
:100EE000DB02681979098A099B0900915403109162
:100EF000550320915603309157030617170728070B
:100F00003907C8F6809153030E94A20580E042CFC2
:100F100085EC8093BC009ACF8091C5038F1520F497
:100F20008091C50390E00DC08F2DFCCF292F30E0BC
:100F3000FE01E20FF31F2C553C4FD9012C91208369
:100F40009F5F981798F326CF089508950895E0912C
:100F5000440380914303E81730F4F0E0ED5DFC4F6B
:100F6000808190E008958FEF9FEF08959091440362
:100F700080914303981758F4E92FF0E0ED5DFC4FA2
:100F8000208130E09F5F90934403C90108952FEFC3
:100F90003FEFFBCF8091430390914403891B990B52
:100FA0000895CF92DF92EF92FF920F931F93CF930A
:100FB000DF938C016B017A0180912203882399F0E1
:100FC000D0E0C0E0CE15DF0590F4D801ED91FC91A2
:100FD0000190F081E02DD601AC0FBD1F6C91C801CE
:100FE00009952196EFCF642FC6010E943805C701ED
:100FF000DF91CF911F910F91FF90EF90DF90CF90F5
:101000000895CF93DF931F92CDB7DEB7FC016983BC
:10101000909122039923F1F090914503903250F082
:1010200081E090E09383828390E080E00F90DF91F5
:10103000CF91089580914603E82FF0E0EE5FFC4FDA
:10104000998190838F5F809346038093450381E06D
:1010500090E0ECCF61E0CE0101960E94380581E07E
:1010600090E0E4CF0F9340914503062F21E062E02A
:1010700073E0809101030E94C30510924603109211
:101080004503109222030F91089561E00E943208F7
:10109000089581E080932203609301031092460338
:1010A0001092450308958F929F92AF92BF92CF9274
:1010B000DF92EF92FF920F931F93CF93DF93EC0198
:1010C000D62EF42E48015901E1101EC030E23F1522
:1010D00018F46894FF24F5F82C2D4F2D63E273E08B
:1010E0008D2D0E94BC061092440380934303DF9130
:1010F000CF911F910F91FF90EF90DF90CF90BF9015
:10110000AF909F908F9008950E94490823E02E157C
:1011100020F40F2EF3E0EF2EF02D1FEF1E0DEE202A
:10112000D9F0E881F9810190F081E02D812F90E0E4
:10113000880F991F880F991F880F991FA501940187
:1011400004C056954795379527958A95D2F7B901EA
:10115000CE010995E12EE1CF60E0CE010E94320878
:10116000B5CFCF92EF920F931F93C22EE12C00E0E8
:1011700010E098010E9453081F910F91EF90CF90BB
:10118000089521E00E94B1080895CB01BA010E94A0
:10119000630508951092440310924303109246038E
:1011A000109245030E94840584EA97E00E942E0570
:1011B00085EA97E00E9433050895FC0113821282AC
:1011C00088EE93E0A0E0B0E084839583A683B783A4
:1011D00082E191E0918380830895019709F0089559
:1011E0006F3F7F4FE1F787E493E00E94DD08F7CF80
:1011F00090E080E008950895282F22952F70922F77
:10120000990F990F920F292F220F8F70820F089537
:101210009DEC899F912D1124969596959695392F41
:101220003295307F292F220F220F920F292F220F64
:10123000821B282F832F820F089541110AC021E0BD
:1012400030E002C0220F331F6A95E2F72095822317
:10125000089521E030E002C0220F331F6A95E2F7C3
:10126000822B089590E002C0959587956A95E2F7E4
:101270008170089520EB34E040E050E00E94AE2DF4
:10128000672B682B692B11F481E0089580E00895A5
:1012900020E83AE349E050E00E94AE2D20E831E535
:1012A00041E050E00E94AE2D31E0320F672B682BF9
:1012B000692B11F032E0320F832F0895AC01837057
:1012C0009927892BA9F49A01369527953695279564
:1012D000ABE7B4E10E94D62D9695879564E6689FAA
:1012E0009001699F300D11244217530709F048C03F
:1012F0009A013695279536952795ABE7B4E10E947C
:10130000D62D9695879564E6689F9001699F300D6C
:10131000112442175307C1F49A01329522952F7078
:1013200023273F702327AEE3BAE00E94D62D20E9A1
:1013300031E0BC01629FC001639F900D729F900DD0
:10134000112448175907F1F49A01329522952F700C
:1013500023273F702327AEE3BAE00E94D62D20E971
:1013600031E0BC01629FC001639F900D729F900DA0
:1013700011244817590711F080E0089581E008957D
:1013800081E0089580E00895863091F06CF4823019
:1013900039F4CB010E945E0981110CC08CE10895E3
:1013A000843031F08FE10895893011F08B30D1F71E
:1013B0008EE108958DE108952F923F924F925F92B2
:1013C0006F927F928F929F92AF92BF92CF92DF9255
:1013D000EF92FF920F931F93CF93DF932B013C016A
:1013E0001A014901E80187EE97E09983888340E874
:1013F00053E361EE71E004C040EC5EE160E370E055
:10140000441555056605770590F488819981019604
:1014100099838883441A550A660A770A0E945E09EE
:10142000882351F340E450E761E370E0E9CF81E0C5
:10143000F401808360E87EED88E290E06415750534
:1014400086059705B0F4F40120812F5F2083461AAA
:10145000570A680A790A68817981822F0E94C40933
:10146000A82FB0E020E831E541E050E00E94E52DF2
:10147000E5CFC301B20120E831E541E050E00E9430
:10148000AE2D2F5FF101208320E13EE040E050E0EF
:101490000E94AE2DF70120832CE330E040E050E0C5
:1014A0000E94AE2DF6012083F5016083DF91CF917C
:1014B0001F910F91FF90EF90DF90CF90BF90AF9072
:1014C0009F908F907F906F905F904F903F902F9064
:1014D00008953F924F925F926F927F928F929F9268
:1014E000AF92BF92CF92DF92EF92FF920F931F9332
:1014F000CF93DF93982E162F5A01822E3E2CC7EEE3
:10150000D7E0C12CD12C760103C073016201219672
:10151000CA15DB05B0F42601370180E8481A8CECC7
:10152000580A8EE1680A8EEF780ACE010E945E09A1
:10153000882359F39BE7D91A9DE1E90A9EEFF90A3E
:10154000E6CFC1E0D0E01C171D0699F094F0B5017C
:101550008C2F0E94C409A82FB0E020E831E541E0BB
:1015600050E00E94E52DC60ED71EE81EF91E2196FA
:10157000EACF892D8150990BDC0120E831E541E06B
:1015800050E00E94F02DC60ED71EE81EF91E282D31
:1015900030E0A0E1BEE00E94D62DC60ED71EE81EA8
:1015A000F91E202F30E0ACE3B0E00E94D62D6C0D88
:1015B0007D1D8E1D9F1D630D711D811D911DDF9170
:1015C000CF911F910F91FF90EF90DF90CF90BF9040
:1015D000AF909F908F907F906F905F904F903F90D3
:1015E00008956BE473E087EC93E00E944E03089546
:1015F00067E473E087EC93E00E944E030895CF9375
:10160000DF93D82FCFEFC60F662339F06D2F87EC0D
:1016100093E00E9446036C2FF5CFDF91CF910895A0
:1016200061E080E20E94FF0A0895EF92FF920F931B
:101630001F93CF93DF93E42EF22E1092BA02422F23
:10164000682F87E493E00E94C108C0E008C0CF5F24
:10165000EC2F0C2E000CFF0BE654FD4F108287E49C
:1016600093E00E94CA07892BC9F0C132BCF40C2F49
:101670000C2E000C110BF016110681F07CF087E4A3
:1016800093E00E94B607D82F0E94FB08F801E654A9
:10169000FD4F8083D111DBCFE110D9CF87E493E0F8
:1016A0000E944508882311F0CC2344F48C2FDF914D
:1016B000CF911F910F91FF90EF900895CDEFF6CF4E
:1016C0006EE073E087EC93E00E944E0308956BE0B8
:1016D00073E087EC93E00E944E030895811107C0E8
:1016E00061EF72E087EC93E00E944E03089567EF8C
:1016F00072E087EC93E00E944E030895811107C0C9
:101700006AEC72E087EC93E00E944E03089560ED6E
:1017100072E087EC93E00E944E03089569EE70E05A
:1017200087EC93E00E944E0308954F925F926F9270
:101730007F928F929F92AF92BF92CF92DF92EF9261
:10174000FF920F931F93CF93DF9300D000D0CDB7BC
:10175000DEB769837A838B839C8329013A01E40C89
:10176000F51C061D171DE114F1040105110509F40E
:101770005BC06A197B098C099D09A80197010E9429
:10178000AE2DA980BA80CB80DC80A61AB70AC80A21
:10179000D90AA30192012A0D3B1D4C1D5D1D298311
:1017A0003A834B835C83D401AD92BD92CD92DC929F
:1017B0001397A80197012A0D3B1D4C1D5D1D690162
:1017C0007A01EF89F88DC082D182E282F3826415BA
:1017D00075058605970558F1AB8DBC8DCD92DD92D0
:1017E000ED92FC92139729813A814B815C81A98DFE
:1017F000BA8D2D933D934D935C93139780E00F909A
:101800000F900F900F90DF91CF911F910F91FF904C
:10181000EF90DF90CF90BF90AF909F908F907F9090
:101820006F905F904F900895C801B701AACF89814A
:101830009A81AB81BC81EB8DFC8D80839183A283E7
:10184000B383F40180819181A281B381E98DFA8D06
:1018500080839183A283B38381E0D1CF4F925F9243
:101860006F927F928F929F92AF92BF92CF92DF92B0
:10187000EF92FF920F931F93CF93DF93CDB7DEB715
:10188000A4970FB6F894DEBF0FBECDBF69A37AA3AD
:101890008BA39CA3442E19821A821B821C821D8258
:1018A0001E821F82188619861A861B861C861D8634
:1018B0001E861F86188A198A1A8A1B8A1C8A1D8A04
:1018C0001E8A1F8A188E198E1A8E1B8E1C8E1D8ED4
:1018D0001E8E1F8E18A2E4E9F1E0A08CB18CC28CA0
:1018E000D38CE484F584068517852081318142817B
:1018F0005381CE010D969F938F9304979F938F935F
:1019000004979F938F9304974C0169A17AA18BA1AF
:101910009CA10E94950B782E512C89859A85AB85C8
:10192000BC852DE0249DF001259DF00D1124E05390
:10193000FE4F85839683A783B0874D855E856F852F
:10194000788941875287638774870F900F900F9033
:101950000F900F900F90772009F4BAC18091B801D1
:1019600081FF3BC1A090B001B090B101C090B20125
:10197000D090B30169807A808B809C80D601C501AC
:10198000860D971DA81DB91D09A11AA12BA13CA167
:1019900080179107A207B30728F12DE0249DF001DD
:1019A000259DF00D1124E053FE4F81879287A38778
:1019B000B487712C872DA4960FB6F894DEBF0FBEA6
:1019C000CDBFDF91CF911F910F91FF90EF90DF90EE
:1019D000CF90BF90AF909F908F907F906F905F90CF
:1019E0004F900895E4E9F1E0E088F18802891389D5
:1019F000248135814681578169A17AA18BA19CA15F
:101A00006619770988099909FE017D96FF93EF937E
:101A10003497FF93EF933497FF93EF9334974F01ED
:101A20000E94950B782E49815A816B817C81898D2A
:101A30009A8DAB8DBC8D840F951FA61FB71F0D8D82
:101A40001E8D2F8D38A1400F511F621F731F2DE077
:101A5000249DF001259DF00D1124E053FE4F858358
:101A60009683A783B0870F900F900F900F900F90E1
:101A70000F90772009F461C08D859E85AF85B88968
:101A8000481759076A077B07F8F02091B80122FF31
:101A900045C04091B4015091B5016091B60170917B
:101AA000B701452B462B472BF1F02DE0249DF0018B
:101AB000259DF00D1124E053FE4F81879287A38767
:101AC000B4877724739476CF8DE0849DF001859D53
:101AD000F00D1124E053FE4F4187528763877487CE
:101AE0007724739467CF40919C0150919D01609140
:101AF0009E0170919F01840F951FA61FB71F2DE0B7
:101B0000249DF001259DF00D1124E053FE4F8187A7
:101B10009287A387B487772473944CCF2DE0249DBC
:101B2000F001259DF00D1124E053FE4F818792872F
:101B3000A387B487772473943DCF8D859E85AF8529
:101B4000B889481759076A077B07E8F02091B80160
:101B500022FF26C04091B4015091B5016091B601B9
:101B60007091B701840F951FA61FB71F2DE0249D0C
:101B7000F001259DF00D1124E053FE4F81879287DF
:101B8000A387B48717CF8DE0849DF001859DF00D6C
:101B90001124E053FE4F41875287638774870ACF31
:101BA0008091B0019091B101A091B201B091B301C7
:101BB0004D815E816F817885840F951FA61FB71FA9
:101BC0002DE0249DF001259DF00D1124E053FE4FE2
:101BD00081879287A387B487EDCE82FD03C07724E7
:101BE0007394E8CEE4E9F1E0A0A0B1A0C2A0D3A034
:101BF0004A0D5B1D6C1D7D1D8DE0849DD001859D72
:101C0000B00D1124A053BE4F19964D935D936D9363
:101C10007C931C97E488F58806891789208531858F
:101C200042855385648575858685978561507109E0
:101C300081099109FE017D96FF93EF933497FF93FD
:101C4000EF933497FF93EF9334974F010E94950BD6
:101C5000782E0F900F900F900F900F900F90882379
:101C600091F08DE0849DF001859DF00D1124E053ED
:101C7000FE4F89819A81AB81BC8185839683A7833E
:101C8000B087712C97CE898D9A8DAB8DBC8D498193
:101C90005A816B817C81840F951FA61FB71F4091CD
:101CA000A0015091A1016091A2017091A301841B38
:101CB000950BA60BB70B2DE0249DF001259DF00D93
:101CC0001124E053FE4F85839683A783B08772CE9D
:101CD0002091B80122FF12C1A090B401B090B501CB
:101CE000C090B601D090B701AC01BD014A0D5B1D9B
:101CF0006C1D7D1D09A11AA12BA13CA14017510704
:101D00006207730768F08DE0849DF001859DF00DFA
:101D10001124E053FE4F41875287638774874ACE70
:101D2000E4E9F1E0E488F5880689178920853185A2
:101D30004285538569A07AA08BA09CA0681A790A75
:101D40008A0A9B0AC401B301FE017D96FF93EF93BB
:101D50003497FF93EF933497FF93EF9334974F01AA
:101D60000E94950B782E89859A85AB85BC854D8D13
:101D70005E8D6F8D78A1480F591F6A1F7B1F098DDB
:101D80001A8D2B8D3C8D800F911FA21FB31F2DE04C
:101D9000249DF001259DF00D1124E053FE4F858315
:101DA0009683A783B0870F900F900F900F900F909E
:101DB0000F90772009F450C08D819E81AF81B88546
:101DC000481759076A077B07C0F12DE0249DF001F1
:101DD000259DF00D1124E053FE4F81879287A38744
:101DE000B4872091B80121FF04C14091B001509106
:101DF000B1016091B2017091B301452B462B472B85
:101E000009F0FAC0409198015091990160919A01AE
:101E100070919B012DE0249DF001259DF00D112472
:101E2000E053FE4F840F951FA61FB71F818792872F
:101E3000A387B48777247394BDCD8DE0849DF00192
:101E4000859DF00D1124E053FE4F41875287638733
:101E5000748777247394AECD8D819E81AF81B885D0
:101E6000481759076A077B07E8F02091B80121FF5E
:101E700026C04091B0015091B1016091B2017091C2
:101E8000B301840F951FA61FB71F2DE0249DF001FD
:101E9000259DF00D1124E053FE4F81879287A38783
:101EA000B48788CD8DE0849DF001859DF00D1124CF
:101EB000E053FE4F41875287638774877BCDE4E907
:101EC000F1E04081518162817381840F951FA61FCB
:101ED000B71F40A151A162A173A1840F951FA61F36
:101EE000B71F2DE0249DF001259DF00D1124E05336
:101EF000FE4F81879287A387B4875CCD21FF5ACD9F
:101F0000E4E9F1E0A48CB58CC68CD78C4D815E8160
:101F10006F8178854A0D5B1D6C1D7D1D8DE0849D54
:101F2000D001859DB00D1124A053BE4F19964D933D
:101F30005D936D937C931C97E088F18802891389E7
:101F400024813581468157816081718182819381AD
:101F50006150710981099109FE017D96FF93EF930C
:101F60003497FF93EF933497FF93EF9334974F0198
:101F70000E94950B0F900F900F900F900F900F9065
:101F8000811126C0498D5A8D6B8D7C8D09851A85EE
:101F90002B853C85400F511F621F731F00919401D8
:101FA000109195012091960130919701401B510BA2
:101FB000620B730B9DE0949DF001959DF00D112433
:101FC000E053FE4F4583568367837087782EF2CCAB
:101FD0008DE0849DF001859DF00D1124E053FE4FAE
:101FE00089859A85AB85BC8585839683A783B087D1
:101FF000E1CC77247394DECC77247394DBCCDF922E
:10200000EF92FF920F931F93CF93DF93CDB7DEB77D
:10201000A1970FB6F894DEBF0FBECDBF7C01CB01F8
:10202000BA01D22E19A221E02D1520F48E010F5DE8
:102030001F4F0EC00F2EFAE0DF2EF02DF7CFE95C18
:10204000D801EE938D01611571058105910579F037
:102050002D2D30E050E040E00E94AE2DE62F622FA3
:10206000732F842F952FEA3054F7E05DE9CF109756
:10207000F9F0FD0101900020E9F73197AF014A1B0B
:102080005B0BD701ED91FC910280F381E02DB8014B
:10209000C7010995A1960FB6F894DEBF0FBECDBF5C
:1020A000DF91CF911F910F91FF90EF90DF900895F6
:1020B00090E080E0EFCF2115310549F4DC01ED918E
:1020C000FC910190F081E02D642F099508950E9404
:1020D000FF0F08959A01462F50E070E060E00E94E3
:1020E0005B100895CF93C82F68E073E087EC93E00E
:1020F0000E944E034AE050E06C2F87EC93E00E9470
:102100006A1066E073E087EC93E00E944E03CF9183
:102110000895CF93C82F63E073E087EC93E00E94AB
:102120004E034AE050E06C2F87EC93E00E946A1067
:1021300061E073E087EC93E00E944E03CF91089535
:10214000CF93C82F6EEF72E087EC93E00E944E03AE
:102150004AE050E06C2F87EC93E00E946A106CEF2D
:1021600072E087EC93E00E944E03CF910895CF93E5
:10217000C82F811101C0C7E28091A002811104C063
:10218000C83210F4C093060163EE72E087EC93E06E
:102190000E944E034AE050E06C2F87EC93E00E94CF
:1021A0006A1061EE72E087EC93E00E944E03C73242
:1021B00011F0CF91089581E30E94B710FACF8111F9
:1021C0000AC08EEF8093A002809106010E94B71092
:1021D0001092A00208958FEF8093A00280910701D2
:1021E0000E94B71081E08093A0020895CF93C82F7A
:1021F0008091A00281110AC0C1110CC066EE72E08C
:1022000087EC93E00E944E03CF91089580E00E94F6
:10221000DF10F2CF6CEE72E087EC93E00E944E0389
:10222000F3CFCF93C82F80E00E94F6106FE473E0E5
:1022300087EC93E00E944E03C11102C0CF91089534
:1022400081E00E94F610FACFCF92EF920F931F9386
:10225000CF93DF93182FD42FC22F611128C081E0B4
:102260000E94F61081E00E947E0BD11123C0612FE5
:1022700087EC93E00E94460365E473E087EC93E00B
:102280000E944E0380E00E94F61080E00E947E0BC8
:10229000011116C0C1111BC0E1101FC0C11021C027
:1022A000DF91CF911F910F91EF90CF9008950E94F1
:1022B000100BD5CF6D2F87EC93E00E944603D7CF4C
:1022C00062E473E087EC93E00E944E03E3CF6C2F4F
:1022D00087EC93E00E944603DFCF81E00E94F61076
:1022E000DFCF81E00E94DF10DBCFCF92EF920F9320
:1022F000C12CE12C00E020E048E261E00E942411C2
:102300000F91EF90CF900895CF92EF920F93C12C41
:10231000E12C01E020E040E060E00E9424110F91F8
:10232000EF90CF90089580E00E94B7106CED72E0BE
:1023300087EC93E00E944E030895CF93DF93C82F5C
:10234000D62F69ED72E087EC93E00E944E034AE0DD
:1023500050E06D2F87EC93E00E946A1067ED72E009
:1023600087EC93E00E944E034AE050E06C2F87EC2C
:1023700093E00E946A1065ED72E087EC93E00E94A2
:102380004E03DF91CF9108951F93CF93DF93C82F12
:10239000862FD42FCC2311F0611109C06D2F8DE24F
:1023A0000E94FF0A8C2FDF91CF911F91089511E0B9
:1023B0001C0F6C2F0E949D11C12FF0CFCF93C82FFF
:1023C0000E94600B81E00E9472100E94670B8C2FAC
:1023D0000E94F61049E360E080E00E94C41180E0B2
:1023E0000E94F6100E94600B81E00E9472100E9411
:1023F000670B67EE70E087EC93E00E944E0381E08C
:102400000E94F610CF910895CF92DF92EF92FF9243
:102410000F931F93CF93DF93EC016A017B0121158A
:10242000310581F4E881F9810190F081E02D642F7C
:102430000995DF91CF911F910F91FF90EF90DF9061
:10244000CF9008952A303105C1F4FF2024F02AE00E
:102450000E94FF0FEECF6DE20E9446038C014427DD
:102460005527BA014C195D096E097F092AE0CE0192
:102470000E94FF0F800F911FDCCF0E94FF0FD9CF6A
:102480009A01AB01770F660B770B0E940412089537
:10249000DC01ED91FC910280F381E02D42E050E0FF
:1024A00062E371E0099508950F931F93CF93DF9333
:1024B000EC010E9440128C01CE010E944812800F54
:1024C000911FDF91CF911F910F9108950F931F934B
:1024D000CF93DF93EC010E944E038C01CE010E944A
:1024E0004812800F911FDF91CF911F910F91089596
:1024F00060E473E087EC93E00E94661268E173E0A9
:1025000087EC93E00E944E0308956115710581F0F8
:10251000FB0101900020E9F73197AF01461B570BF3
:10252000DC01ED91FC910280F381E02D0995089585
:1025300090E080E008950F931F93CF938C01FC01EE
:1025400001900020E9F73197E81BF90B862F8E1BCD
:10255000682F6695C82FC61B80E20E94FF0AB8014B
:1025600087EC93E00E9485126C2F80E20E94FF0AA4
:10257000CF911F910F910895CF93DF93EC010E94AB
:10258000931181E00E946E0B61E081E00E949D1139
:1025900081E00E94F61060E5CE010E949B1280E06F
:1025A0000E94F61080E00E946E0B82E0DF91CF91D6
:1025B0000895FF920F931F93CF93DF93FB01019038
:1025C0000020E9F73197DE2FD61B21111AC041F107
:1025D000F42E8B01682F87E493E00E944908C0E045
:1025E0002D2F2F0D3327331FC217130664F4F80164
:1025F000EC0FF11D608187E493E00E940108CF5F3A
:10260000EFCFD02FE5CF87E493E00E9445088111FA
:1026100009C08D2FDF91CF911F910F91FF900895E9
:1026200080E0F8CF8FEFF6CF0F93CF93DF93CFED0E
:10263000D2E018828091DE020E9408090E94FB0805
:1026400089838091DD020E9408090E94FB088A8329
:102650008091DC020E9408090E94FB088B8304E041
:1026600021E040E0BE0188E60E94D9121816F4F479
:1026700084E0888380910B010E9408090E94FB0876
:10268000898380910A010E9408090E94FB088A83BD
:1026900080910801805D0E9408090E94FB088B83DD
:1026A00021E040E0BE0188E60E94D912DF91CF917F
:1026B0000F9108958F929F92AF92BF92EF920F93D6
:1026C000CF93DF9301E021E040E06CE071E088E629
:1026D0000E94D91227E041E060E088E60E94150BD5
:1026E000873061F060E070E0CB01DF91CF910F9116
:1026F000EF90BF90AF909F908F900895CAEBD2E07B
:1027000088810E94FC088093DE0289810E94FC0877
:102710008093DD028A810E94FC088093DC028C8118
:102720000E94FC0880930B018D810E94FC0880931D
:102730000A018E810E94FC0890E08053984F90938C
:10274000090180930801873E974030F487EE97E0B7
:1027500090930901809308018090B6029090B7028F
:10276000A090B802B090B9024091080150910901BF
:10277000E090DE020091DD022091DC0260910A010E
:1027800080910B010E94690A6093B6027093B702B0
:102790008093B8029093B902A5019401261B370BD0
:1027A000480B590BCA01B901A0CF8091DE028F5F9F
:1027B0008093DE024091B6025091B7026091B80258
:1027C0007091B9024F5F5F4F6F4F7F4F4093B602DA
:1027D0005093B7026093B8027093B9028C3349F1F9
:1027E0008091DD028C3369F18091DC02883189F1BE
:1027F0008091B2029091B302A091B402B091B5025F
:10280000892B8A2B8B2B09F474C08091B202909192
:10281000B302A091B402B091B5020197A109B10928
:102820008093B2029093B302A093B402B093B50226
:1028300008951092DE028091DD028F5F8093DD02A9
:10284000CFCF1092DD028091DC028F5F8093DC029B
:10285000CBCF1092DC0280910B018F5F80930B0134
:1028600090910A01923049F0963029F000F19930A8
:1028700011F09B30F1F42FE11DC08D3178F0809183
:102880000801909109010E945E09811119C081E03F
:1028900080930B0183E080930A0112C08E3180F097
:1028A00081E080930B0183E080930A0109C094309A
:1028B00011F320E2022E000C330B8217130691F065
:1028C00080910A018D3009F093CF81E080930A0155
:1028D00080910801909109010196909309018093DC
:1028E000080186CF81E080930B019F5F90930A01DE
:1028F000E7CF0E945A1380E891E5A1E0B0E0809311
:10290000B2029093B302A093B402B093B5027DCF0C
:102910000F931F930E943903AB01BC018091AE025B
:102920009091AF02A091B002B091B102481759073F
:102930006A077B0708F05AC08A019B01081B190B24
:102940002A0B3B0BD901C8010197A109B1090091DC
:10295000AA021091AB022091AC023091AD02800F1F
:10296000911FA21FB31F883E13E09107A105B10577
:1029700008F461C04093AE025093AF026093B0027E
:102980007093B102885E9340A109B1098093AA02B5
:102990009093AB02A093AC02B093AD028091A602DB
:1029A0009091A702A091A802B091A9020196A11D41
:1029B000B11D8093A6029093A702A093A802B093A2
:1029C000A9028091A5028F5F8093A5028C33B9F094
:1029D0008091A4028C33D9F08091A3028831F9F060
:1029E0000E94D51381E01F910F9108958A019B01E8
:1029F000081B190B2A0B3B0BD901C801A8CF109259
:102A0000A5028091A4028F5F8093A402E1CF10926F
:102A1000A4028091A3028F5F8093A302DDCF109266
:102A2000A3028091A1029091A20201969093A2022A
:102A30008093A102D5CF80E0D6CF0F931F93CF9381
:102A4000DF93182F062FCFEFDCE3D1110BC08C2FB3
:102A5000DF91CF911F910F910895C0E0F6CFCC2365
:102A6000B4F7DCE30E9488148111D15087EC93E025
:102A70000E940A04892B49F387EC93E00E94E80343
:102A8000C82F80333CF0082E000C990BC097081714
:102A900019062CF7C13654F0812F90E001962C2FA7
:102AA0000C2E000C330B28173907CCF2C1345CF024
:102AB000812F8F51990B9C018C2F0C2E000C990BA0
:102AC0008217930764F2D0E0CD3039F2CFEFC9CF4F
:102AD00085ED8093BC004091540350915503609163
:102AE000560370915703495F5F4F6F4F7F4F689454
:102AF00012F876956795579547951694D1F780917A
:102B0000BC0084FF1FC08091540390915503A09195
:102B10005603B0915703892B8A2B8B2B81F34115D8
:102B200051056105710549F085E38A95F1F70000CB
:102B30004150510961097109E2CF809153030E940C
:102B4000A20508951092A1030895BF92CF92DF923B
:102B5000EF92FF920F931F93CF93DF938C01EC01C1
:102B600009900020E9F72197C81BD90BFC2E81E0C2
:102B70000E94F61063E573E087EC93E00E944E0339
:102B800080E00E94F61084E20E94B710C11108C0D4
:102B9000EC2EDD27C152DD4F1882D0E0CCE312C00D
:102BA000B80187EC93E00E948512B8018FED92E0A6
:102BB0000E94112EEC2EEDCF87EC93E00E940A04C8
:102BC000892B91F4DD3009F42CC10E9488148823EC
:102BD00099F3C15089F7B8018FED92E00E94112E50
:102BE00080E00E94B71026C187EC93E00E94E803C2
:102BF000D82F8D3099F28CF18B3109F44FC08F377B
:102C000089F5EE2019F0FE1409F4D5C0EE2031F25A
:102C1000EF1420F6EA948E2D90E04F2D50E0481BE3
:102C2000590B4E5F5F4FBC0160527D4F9C0121529A
:102C30003D4F6901C9010E94F82D81E00E94A0105A
:102C4000B60187EC93E00E9485120E94100B8F2D35
:102C50008E190E94A010FA94A1CF883091F28A3088
:102C600009F49CCFD0320CF499CF31E1E31609F48A
:102C7000B2C0EF1408F4B5C0EE2DF0E0E052FD4F05
:102C800010826D2F87EC93E00E944603EE2DF0E05A
:102C9000E152FD4FD083E394F39480CF6CE070E079
:102CA00080E090E00E940103B12CC12CC0E087ECD1
:102CB00093E00E940A04892B91F1CF5F87EC93E0A7
:102CC0000E94E803D82ED82F6CE070E080E090E0FE
:102CD0000E940103C23091F0C330C9F0C13049F005
:102CE000CC24C394E4CFCC24C394E1CFCC24C394AC
:102CF000DECFDB35E1F2CC24C394D9CFD33329F036
:102D000094F38DEB8D0D823070F7BD2CD0CFDE3774
:102D100069F723E3B21659F2CC24C394C8CFCC236D
:102D200059F1C1103BCF33E4B316A9F184E4B816CE
:102D3000D1F123E3B21232CFEF1408F02FCF8E2D52
:102D400090E04F2D50E0481B590BBC0160527D4F65
:102D50009C0121523D4F6901C9010E94F82DB60125
:102D600087EC93E00E9485120E94100B8F2D8E1924
:102D70000E94A010FA9412CFB8018FED92E00E9449
:102D8000112EEFEDF2E001900020E9F7E05EF24055
:102D9000FE2EDDE003CFEF1408F000CFE39481E0D6
:102DA0000E948910FBCEEE2009F4F8CEEA9481E06F
:102DB0000E94A010F3CEFA94EA9481E00E94A01041
:102DC0000E94100B81E00E94A010EF2DF0E0E15274
:102DD000FD4F1082E3CE81E00E94A010EA94FA94A5
:102DE00050CF8E2D90E04F2D50E0481B590B4F5F78
:102DF0005F4FBC0161527D4F9C0120523D4F6901E4
:102E0000C9010E94F82D81E00E948910B60187EC6B
:102E100093E00E9485128F2D8E198F5F0E94A01063
:102E200030CFEF2DF0E0E152FD4F108280E00E94A4
:102E3000B710C1E08C2FDF91CF911F910F91FF90C0
:102E4000EF90DF90CF90BF9008950F931F93CF9393
:102E5000DF93062F172FD82FC92F2AE040EF52E01B
:102E60000E943A2D80EF92E00E94A515882349F038
:102E70008FED92E00E94E72CDF91CF911F910F918F
:102E80000895602F712F8D2F9C2FF6CF0F931F93D6
:102E9000CF93DF93042F122F2AE04FED52E00E94D0
:102EA0003A2D4FED52E0FA0101900020E9F7AF0111
:102EB000405E5240842FC02FC41B1C16A4F40C2E5D
:102EC000000CDD0B55276FED72E0CE0181529D4F56
:102ED0000E94F82D612F110F770BAE018FED92E05C
:102EE0000E940A2E802FE82FF0E0E152FD4F108261
:102EF000DF91CF911F910F910895DF92EF92FF9292
:102F00000F931F93CF93DF93162F7A01D22E682F42
:102F100070E090E080E020E342E00E9446176FED11
:102F200072E080EF92E00E94112EC0EFD2E0DA82D0
:102F3000612F70E090E080E020E342E00E944617BD
:102F40006FED72E083EF92E00E94112EDD82B701F7
:102F500090E080E020E3402F0E9446176FED72E082
:102F600086EF92E00E94112EE02FF0E0EA50FD4F34
:102F70001082DF91CF911F910F91FF90EF90DF9022
:102F80000895AF92BF92CF92DF92EF92FF920F938C
:102F90001F93CF93DF9300D01F92CDB7DEB7198276
:102FA0001A821B829E012D5F3F4F5901215031092A
:102FB000690121503109790110E000E030E020E0A2
:102FC00050E040E00E94DC094B8150E002E02AE33F
:102FD0006A8189810E947D170F900F900F90DF9179
:102FE000CF911F910F91FF90EF90DF90CF90BF9006
:102FF000AF900895AF92BF92CF92DF92EF92FF927F
:103000000F931F93CF93DF9300D000D0CDB7DEB7DF
:1030100019821A821C821B82B12CA12CD12CC12CAA
:10302000F12CE12C8E010D5F1F4F9E012E5F3F4F53
:10303000AE014F5F5F4F0E94DC094B815C8104E071
:103040002EE26A8189810E947D170F900F900F9068
:103050000F90DF91CF911F910F91FF90EF90DF9034
:10306000CF90BF90AF9008950F9304E02EE20E949E
:103070007D1760EF72E087EC93E00E9485120F915C
:1030800008950F9350E002E02AE30E947D1760EF5D
:1030900072E087EC93E00E9485120F9108954091B1
:1030A00008015091090160910A0180910B010E9471
:1030B00034180E94100B4091DE026091DD02809175
:1030C000DC020E9441180895CF92DF92EF92FF92A6
:1030D000CF93DF936B017C01C42FD22F81E00E943C
:1030E000F6102D2F4C2FC701B6010E944617C82F8E
:1030F0006FED72E087EC93E00E94851280E00E9401
:10310000F6108C2FDF91CF91FF90EF90DF90CF9052
:103110000895CF92DF92EF92FF926B017C014111F3
:103120000FC0C701B6010E94C11760EF72E087ECC3
:1031300093E00E948512FF90EF90DF90CF9008956A
:1031400020E831E541E050E00E94AE2DCA01B9010E
:1031500020E243E00E9446176FED72E087EC93E0B7
:103160000E94851261E173E087EC93E00E944E03B8
:10317000D8CF6091A6027091A7028091A802909189
:10318000A90241E00E94891808951F93CF93DF930D
:10319000182FEA0181E00E946E0B68E181E00E9435
:1031A0009D111F3F89F1113099F181E00E94F610C5
:1031B00064E080E20E94FF0ABE0187EC93E00E9477
:1031C000851280E00E94F61081E30E94B71064E14E
:1031D00073E087EC93E00E944E030E94B918FE0151
:1031E00001900020E9F73197EC1BFD0B68E26E1BA4
:1031F00080E20E94FF0A0E944F1880E00E946E0B3E
:10320000DF91CF911F91089589E20E94B710D0CF2E
:103210008AE20E94B710CCCFCF93862F662311F09D
:1032200041111EC00E94670B8091B8018970E1F4C2
:10323000C3E08091B801897009F052C08091B80153
:10324000897009F0B8C08091B801897009F01AC17D
:103250008091B801897009F077C18C2FCF910895C2
:10326000642F0E949D11DECF8AE00E94891081E0C8
:103270000E9411116EE371E087EC93E00E944E030F
:1032800081E00E9411118091B80181FD0BC082FD87
:1032900013C08091B80182FD19C081E00E94DE1147
:1032A000C6E0C7CF61E371E087EC93E00E944E0374
:1032B00081E00E941111EDCF64E271E087EC93E0B0
:1032C0000E944E0381E00E941111E3CF67E171E09B
:1032D00087EC93E00E944E0381E00E941111DDCF44
:1032E0006EE071E087EC93E00E944E0380E00E9464
:1032F000F6106CE071E087EC93E00E944E0380E0F2
:103300000E9411118091B80183FF1FC06091AC0130
:103310007091AD018091AE019091AF0140E00E94AB
:10332000891881E30E94751180E00E94111180913B
:10333000B80181FD16C082FD26C08091B80182FDD2
:1033400028C080E00E94DE1179CF609194017091D5
:103350009501809196019091970140E00E94891813
:10336000E0CF609198017091990180919A019091BC
:103370009B0140E00E94891884E30E94751180E05F
:103380000E941111DACF0E948E0B80E00E94111171
:10339000D4CF60919C0170919D0180919E0190918C
:1033A0009F0140E00E94891887E30E94751180E028
:1033B0000E941111C6CF63E071E087EC93E00E9498
:1033C0004E0380E00E94F61061E071E087EC93E02C
:1033D0000E944E0380E00E9411118091B80183FF8A
:1033E0002DC06091BB017091BC018091BD01909195
:1033F000BE0140E00E94891882E30E94751180E0BE
:103400000E9411118091B80181FD24C082FD34C059
:103410008091B80182FF17CF6091A8017091A90136
:103420008091AA019091AB0140E00E94891888E345
:103430000E94751180E00E94111105CF6091A001DA
:103440007091A1018091A2019091A30140E00E949E
:103450008918D2CF6091A4017091A5018091A60135
:103460009091A70140E00E94891885E30E947511A0
:1034700080E00E941111CCCF0E948E0B80E00E9450
:103480001111C6CF80E00E94DE1168EF70E087EC7A
:1034900093E00E944E0380E00E94F61066EF70E019
:1034A00087EC93E00E944E0380E00E94111180910E
:1034B000B80183FF22C00E948E0B80E00E94111190
:1034C000CF5F8091B80181FD27C082FD37C0809118
:1034D000B80182FFBDCE6091B4017091B5018091B9
:1034E000B6019091B70140E00E94891889E30E94DB
:1034F000751180E00E941111ABCE6091AC0170910A
:10350000AD018091AE019091AF0140E00E94891819
:1035100083E30E947511D1CF6091B0017091B10128
:103520008091B2019091B30140E00E94891886E336
:103530000E94751180E00E941111C9CF0E948E0B6C
:1035400080E00E941111C3CF0E94600B81E00E94B5
:10355000721049E360E080E00E94C411CF5F7DCE2D
:103560000F931F93CF93DF93C82F862FD22F6623FD
:1035700011F0411178C0DD2309F479C081E00E9487
:10358000F6106FEB71E087EC93E00E94851280E00B
:103590000E94F6108FEB91E0FC0101900020E9F70A
:1035A000CF01805C914060E1681B80E20E94FF0ACD
:1035B00064EE70E087EC93E00E944E03013009F462
:1035C0005AC0023009F492C088E00E94891080E05D
:1035D0000E94DF1080E00E9411118091BA0181FDEC
:1035E00091C082FDE8C084FF18C09DE0C99FF00132
:1035F0001124E053FE4F01811281238134814091D7
:10360000B6025091B7026091B8027091B9024017AA
:1036100051076207730708F4DBC083FF18C09DE001
:10362000C99FF0011124E053FE4F018112812381D3
:1036300034814091B6025091B7026091B802709106
:10364000B902401751076207730708F4CEC080FF24
:10365000D9C081E00E94F61061E870E087EC93E049
:103660000E944E035BC0642F0E949D1184CF82E1B3
:103670000E948910A3CF8091B80183FD11C080FF03
:103680002BC0982F9670963091F081FD17C082FF65
:103690001CC060EC70E087EC93E00E944E0397CF73
:1036A0006BED70E087EC93E00E944E0390CF62EDEB
:1036B00070E087EC93E00E944E0389CF69EC70E0E4
:1036C00087EC93E00E944E0382CF67EB70E087ECBB
:1036D00093E00E944E037BCF81E00E94DF106EEAF0
:1036E00070E087EC93E00E944E0371CF6091B602C8
:1036F0007091B7028091B8029091B90240E00E94A7
:10370000891865CF81E00E94F6108FE10E94B71002
:1037100065EA70E087EC93E00E944E0380E00E942F
:10372000F61080E00E94B71080E00E941111809195
:10373000BA0181FD71C082FDBEC084FF18C09DE04A
:10374000C99FF0011124E053FE4F018112812381B2
:1037500034814091B6025091B7026091B8027091E5
:10376000B902401751076207730708F4ADC083FF21
:1037700018C09DE0C99FF0011124E053FE4F018164
:103780001281238134814091B6025091B702609139
:10379000B8027091B902401751076207730708F425
:1037A0009CC080FFA9C085FFA1C080E20E94B71025
:1037B0000E94F10A39C081E00E94F61080E20E9466
:1037C000B7106CE970E087EC93E00E944E03A6CF3F
:1037D00081E00E94DF108FE10E94B71063E970E082
:1037E00087EC93E00E944E0399CF81E00E94DF10A6
:1037F00080E20E94B7106AE870E087EC93E00E94D4
:103800004E038CCF81E00E94DF1068E770E087EC08
:1038100093E00E944E0382CF81E00E94F6108FE178
:103820000E94B7100E94F80A80E00E94F61080E023
:103830000E94B71080E00E9411118091BA01982F68
:10384000967009F063C0982F987109F078C080FFD6
:1038500071C085FF8DC080E20E94B7109DE0C99FB6
:10386000F0011124E053FE4F6581768187819085B8
:1038700040E00E94891887E20E94B7106CE670E071
:1038800087EC93E00E944E038FE10E94B7109DE009
:10389000C99FF0011124E053FE4F61857285838535
:1038A000948540E00E94891887E20E94B71080E06A
:1038B0000E9411113FC081E00E94F61080E20E9438
:1038C000B7100E94F10AB0CF81E00E94DF108FE1B3
:1038D0000E94B7100E94F80AA7CF81E00E94DF1073
:1038E00080E20E94B7100E94F10A9ECF8FE10E94F1
:1038F000B7100E94F80A98CF81E00E94DF1064E7B9
:1039000070E087EC93E00E944E038ECF81E00E942E
:10391000DF1068E080E20E94FF0A60E770E087EC59
:1039200093E00E944E0368E080E20E94FF0A80E07C
:103930000E941111DF91CF911F910F91089565E0C1
:1039400080E20E94FF0A8DE0C89FF0011124E0533D
:10395000FE4F618172818381948140E00E948918C9
:1039600066E080E20E94FF0A80E00E941111E2CF2F
:103970008FE10E94B7108DE0C89FF0011124E05341
:10398000FE4F658176818781908540E00E9489188D
:1039900087E20E94B71068E670E087EC93E00E942F
:1039A0004E0380E20E94B71072CFCF92DF92EF9267
:1039B000FF920F931F93CF93DF9369E571E00E940D
:1039C0000E2DC12CD12CF12C10E0D0E0C0E00AC0AB
:1039D0002097D1F4182F69E571E090E080E00E9413
:1039E0000E2D21960097D9F0C330D105C4F40E9462
:1039F000C92C992364F1209759F78032910544F33B
:103A000060E070E0CB0110C0C130D10531F0C230B0
:103A1000D10509F7C82ED92EDECFF82EDCCF23979B
:103A200061F060E070E0CB01DF91CF911F910F91C9
:103A3000FF90EF90DF90CF900895E12C00E020E020
:103A40004C2D5D2D6F2D812F0E94690AEDCF60E016
:103A500070E0CB01E9CF0E94FA1780EF92E00E945C
:103A6000A5158FED92E00E94D51C0895CF92DF92AC
:103A7000EF92FF920F931F93CF93DF9365E371E073
:103A80000E940E2D00E0C12C10E0D0E0C0E00AC082
:103A90002097D9F4182F65E371E090E080E00E9450
:103AA0000E2D21960097D9F0C330D105C4F40E94A1
:103AB000C92C8C339105C0F5209751F788319105B9
:103AC0003CF360E070E0CB010FC0C130D10529F0BC
:103AD000C230D10501F7082FDECFC82EDCCF2397E7
:103AE00061F060E070E0CB01DF91CF911F910F9109
:103AF000FF90EF90DF90CF900895212F30E0A0E16C
:103B0000BEE00E94D62D2CE3C29E600111240D2C34
:103B1000000CEE08FF086C0D7D1D8E1D9F1D600FB3
:103B2000711D811D911DE0CF60E070E0CB01DCCF05
:103B30000E94C11780EF92E00E94A5158FED92E0E0
:103B40000E94361D0895AF92BF92CF92DF92FF92EE
:103B50000F931F93CF93DF932091BA019DE0899F2C
:103B6000F0011124E053FE4F908121FB91F922FBDB
:103B700092F924FB94F923FB93F925FB95F926FB95
:103B800096F920FB90F9908361110AC0DF91CF91E3
:103B90001F910F91FF90DF90CF90BF90AF9008954D
:103BA000EAEBF1E0922F977C9F7B90839CE3899FC7
:103BB000E00111240CE310E0E4E9F1E005C001505C
:103BC0001109E5012196F60101151105F9F25E01D1
:103BD0006F018FEFC81AD80AF080CE010E94982D8D
:103BE000F81669F36F2DCE010E94A02DE8CFCF9279
:103BF000DF92EF92FF920F931F93CF93DF930F2EDD
:103C0000F8EEEF2EF3E0FF2EF02DC1E0D0E003E957
:103C100011E0209779F068018FEFC81AD80AC70120
:103C20000E94982DF80180832197FFEFEF1AFF0A79
:103C30008601EFCF0F2EF9EEEF2EF3E0FF2EF02DE1
:103C4000C1E0D0E002E911E0209779F068018FEF40
:103C5000C81AD80AC7010E94982DF80180832197BD
:103C6000FFEFEF1AFF0A8601EFCF0F2EFAEEEF2ECD
:103C7000F3E0FF2EF02DC1E0D0E000E011E020974E
:103C800079F068018FEFC81AD80AC7010E94982DF1
:103C9000F80180832197FFEFEF1AFF0A8601EFCF2B
:103CA0000F2EFBEEEF2EF3E0FF2EF02DC4E0D0E060
:103CB00001E011E0209779F068018FEFC81AD80A67
:103CC000C7010E94982DF80180832197FFEFEF1A1A
:103CD000FF0A8601EFCF609101017091020180918E
:103CE0000301909104010E943A0981110CC080E8FF
:103CF00095E2A0E0B0E08093010190930201A093CF
:103D00000301B09304018091000181508E3F18F0AF
:103D10008BE7809300018091920181110CC08AE5AC
:103D200080930701DF91CF911F910F91FF90EF904A
:103D3000DF90CF9008958CE580930701F3CFAF9289
:103D4000BF92CF92DF92FF920F931F93CF93DF9397
:103D500008EE13E0C1E0D0E0E3E9F1E02097A9F03C
:103D600058016F018FEFC81AD80AF080C8010E946D
:103D7000982DF81621F06F2DC8010E94A02D2197D3
:103D800085010F5F1F4FF601E9CF09EE13E0C1E097
:103D9000D0E0E2E9F1E02097A9F058016F018FEF40
:103DA000C81AD80AF080C8010E94982DF81621F090
:103DB0006F2DC8010E94A02D219785010F5F1F4F15
:103DC000F601E9CF0AEE13E0C1E0D0E0E0E0F1E077
:103DD0002097A9F058016F018FEFC81AD80AF08018
:103DE000C8010E94982DF81621F06F2DC8010E947D
:103DF000A02D219785010F5F1F4FF601E9CFCBEE74
:103E0000D3E004E010E0E1E0F1E005C00150110969
:103E1000E5012196F6010115110581F05E016F01A2
:103E20008FEFC81AD80AF080CE010E94982DF8169C
:103E300069F36F2DCE010E94A02DE8CFDF91CF91C5
:103E40001F910F91FF90DF90CF90BF90AF9008959A
:103E5000AF92BF92CF92DF92EF92FF920F931F9398
:103E6000CF93DF93B82EA62E8CE3B89E7001112459
:103E7000CCE3D0E004E911E0209779F06801EFEF9E
:103E8000CE1ADE0AC7010E94982DF801808321977F
:103E9000FFEFEF1AFF0A8601EFCFAA20A9F08DE00D
:103EA000B89EF0011124E053FE4F9081EAEBF1E05F
:103EB000808194FB84F993FB83F995FB85F996FB4C
:103EC00086F990FB80F98083DF91CF911F910F914C
:103ED000FF90EF90DF90CF90BF90AF900895CF927A
:103EE000EF920F931F93CF93DF9387E391E00E94AC
:103EF000BC1247E465E08E5F0E94C411D82FC0E079
:103F000028C02DE0289FF001299FF00D1124E053D7
:103F1000FE4F808180FF1CC06D2F85E00E949D11A7
:103F2000C12CE12C01E020E240E060E081E48C0F54
:103F30000E94241161E08C2F0E94281F11E01D0FA8
:103F400002E021E04D2F69E08C2F0E94B01AD12FA2
:103F5000CF5FC03108F063C08C2F90E02DE0289F28
:103F6000F001299FF00D1124E053FE4F208121FD27
:103F7000D3CF2DE0289FF001299FF00D1124E053AD
:103F8000FE4F208122FDC8CF2DE0289FF001299F00
:103F9000F00D1124E053FE4F208124FF1AC02DE0C4
:103FA000289FF001299FF00D1124E053FE4F01815D
:103FB0001281238134814091B6025091B702609101
:103FC000B8027091B902401751076207730708F4ED
:103FD000A3CF2DE0289FF001299FF00D1124E0537D
:103FE000FE4F208123FF8DCF2DE0289FF001299FD8
:103FF000F00D1124E053FE4F0181128123813481A1
:104000004091B6025091B7026091B8027091B90226
:10401000401751076207730708F47ECF72CF4BE455
:1040200051E06FEF80E00E94C51881E00E94F61019
:1040300047E465E08D2F0E94C41180E00E94F610D5
:10404000DF91CF911F910F91EF90CF9008954F92F4
:104050005F926F927F929F92AF92BF92CF92DF92C8
:10406000EF92FF920F931F93CF93DF93D82F61E0CE
:104070000E94281F912C0F2EF4E84F2EF3E05F2EA4
:10408000612C712CF02D6DC18FEB91E00E94A51574
:104090006FED72E08FEB91E00E94112E1FC18091B5
:1040A000B80183FF13C00F2EF4E9EF2EF1E0FF2ECD
:1040B000F02DF701608D718D828D938D0E94981D7A
:1040C000F701608F718F828F938F08C10F2EF4E9F3
:1040D000EF2EF1E0FF2EF02DF701608171818281DA
:1040E00093810E94981DF70160837183828393837B
:1040F000F5C08091B80183FF13C00F2EF4E9EF2EB5
:10410000F1E0FF2EF02DF70167A170A581A592A522
:104110000E94981DF70167A370A781A792A7DEC030
:104120000F2EF4E9EF2EF1E0FF2EF02DF70164855C
:104130007585868597850E94981DF7016487758728
:1041400086879787CBC00F2EF4E9EF2EF1E0FF2E84
:10415000F02DF701608D718D828D938D0E94981DD9
:10416000F701608F718F828F938FB8C00F2EF4E9A3
:10417000EF2EF1E0FF2EF02DF7016481758186812D
:1041800097810E94981DF7016483758386839783C6
:10419000A5C00F2EF4E9EF2EF1E0FF2EF02DF70170
:1041A00060897189828993890E94981DF701608BCB
:1041B000718B828B938B92C00F2EF4E9EF2EF1E07E
:1041C000FF2EF02DF701648D758D868D978D0E94E1
:1041D000981DF701648F758F868F978F7FC00F2E84
:1041E000F4E9EF2EF1E0FF2EF02DF70160857185E7
:1041F000828593850E94981DF70160877187828769
:1042000093876CC00F2EF4E9EF2EF1E0FF2EF02D16
:10421000F70164897589868997890E94981DF7013D
:10422000648B758B868B978B59C00F2EF4E9EF2E1C
:10423000F1E0FF2EF02DF70160A171A182A193A101
:104240000E94981DF70160A371A382A393A346C0A7
:10425000E8EBF1E080818160877F80833FC0E8EBFD
:10426000F1E08081982F96958D7F90FF826080830A
:10427000982F967099F183FD31C0816080832EC0A4
:10428000E8EBF1E08081982F969596958B7F90FFD3
:1042900084608083982F967009F183FD1FC0816030
:1042A00080831CC0E8EBF1E080818E7F8860808392
:1042B00015C0E8EBF1E08081982F92959F708F7E7A
:1042C00090FF80618083E8EBF1E08081887F877FC9
:1042D0008083EAEBF1E080818E7F80838091B8015A
:1042E00083FF38C08FEC8C0F823010F0C43691F50C
:1042F000E4E9F1E087A190A5A1A5B2A5408D518D7B
:10430000628D738D84179507A607B70708F076C3EB
:10431000841B950BA60BB70B80589E4AAE4FBF4F20
:104320008093940190939501A0939601B093970187
:10433000E4E9F1E0408151816281738180E891E597
:10434000A1E0B0E0841B950BA60BB70B8487958783
:10435000A687B7871C160CF05EC3C43711F09924EA
:1043600093948BE591E00E94BC12C82FFF24F39434
:10437000F80E4BE464E00E94C4116F2D84E00E94AB
:104380009D11C12CE12C00E020E248E260E080E3D6
:104390000E9424116894EE24E1F8EC0E01E021E083
:1043A0004F2D6AE08D2F0E94B01ACD5F4BE464E080
:1043B0008E2D0E94C4114C2F6BE08D2F0E940C1982
:1043C000C80FDD24D394DC0E6C2F84E00E949D1175
:1043D0000F2EF8EBAF2EF1E0BF2EF02DF501E080AF
:1043E000E0FAEE24E0F820E040E060E081E40E94A2
:1043F000241168E372E087EC93E00E944E03F5011C
:10440000E080E1FAEE24E0F820E040E060E082E4C1
:104410000E94241165E272E087EC93E00E944E0353
:10442000F501E080E2FAEE24E0F820E040E060E010
:1044300083E40E94241166E172E087EC93E00E941D
:104440004E036894FF24F1F8FC0E6D2D84E00E9469
:104450009D11F501E080E3FAEE24E0F820E040E071
:1044600060E084E40E94241162E072E087EC93E053
:104470000E944E03F501E080E4FAEE24E0F820E02B
:1044800040E060E085E40E9424116FEE71E087EC6B
:1044900093E00E944E03F50180818970EE24E3943D
:1044A0008111E12CC12C01E020E040E060E086E4D5
:1044B0000E94241166EE71E087EC93E00E944E03A7
:1044C00043E064E08F2D0E94C41114E01C0F63E0F0
:1044D0006C0F84E00E949D11C090B901EE24E3941A
:1044E000C110E12C01E020E040E060E087E40E94A0
:1044F000241160EE71E087EC93E00E944E030F2ED2
:10450000F4E9AF2EF1E0BF2EF02DF501C5A0C69461
:10451000DD24D394CD24FC2DF170CF2EE12C20E0AE
:1045200040E060E088E40E9424116AED71E087ECCD
:1045300093E00E944E03F501C5A0C694C694CD2415
:10454000FC2DF170CF2E20E040E060E089E40E9475
:10455000241164ED71E087EC93E00E944E03F501B5
:10456000C5A0C694C694C694CD24FC2DF170CF2E60
:1045700020E040E060E08AE40E9424116EEC71E0EB
:1045800087EC93E00E944E03F501C5A0C694C69443
:10459000C694C694CD24FC2DF170CF2E20E040E0CF
:1045A00060E08BE40E94241168EC71E087EC93E0FA
:1045B0000E944E03F501C5A0C694C694C694C69445
:1045C000C694CD24FC2DF170CF2E20E040E060E0B9
:1045D0008CE40E94241162EC71E087EC93E00E946D
:1045E0004E03F501C5A0C694C694C694C694C6945D
:1045F000C694CD24FC2DF170CF2E20E040E060E089
:104600008DE40E9424116CEB71E087EC93E00E9432
:104610004E03F501C5A0C094CC1CCC24CC1C20E0DA
:1046200040E060E08EE40E94241166EB71E087ECCC
:1046300093E00E944E0305E00C0F43E064E0812FFD
:104640000E94C41116E01C0F602F84E00E949D118F
:104650000F2EFAEBAF2EF1E0BF2EF02DF501E0802A
:10466000E0FAEE24E0F8C12C01E020E040E060E058
:104670008FE40E94241162EA71E087EC93E00E94CB
:104680004E03F501E080E1FAEE24E0F820E040E09E
:1046900060E080E50E9424116EE871E087EC93E011
:1046A0000E944E03F501E080E2FAEE24E0F820E0FB
:1046B00040E060E081E50E94241161E871E087EC50
:1046C00093E00E944E0307E00C0F43E064E0812F6B
:1046D0000E94C41118E01C0F602F84E00E949D11FD
:1046E000F501E080E4FAEE24E0F801E020E040E0AB
:1046F00060E082E50E9424116DE671E087EC93E0B2
:104700000E944E03F501E080E3FAEE24E0F820E099
:1047100040E060E083E50E94241169E571E087ECE8
:1047200093E00E944E0384E50E9484116BE471E0E3
:1047300087EC93E00E944E0381E00E94F61040E077
:10474000C301B2010E94891880E00E94F6104BE478
:1047500064E0812F0E94C4118AE08C0F0E947812BD
:1047600069E084E70E941D15C82FE0EDE80FE534ED
:1047700008F0B4CD0E2E000CFF0BEF53FC4D0C9443
:10478000D02D44204F207920A320B620C920DC2042
:10479000EF20022115216E216E216E216E216E21E6
:1047A0006E216E216E216E216E216E216E216E2191
:1047B0006E216E216E216E216E216E216E216E2181
:1047C0006E216E216E216E216E216E216E216E2171
:1047D0006E216E216E216E216E216E216E216E2161
:1047E0006E216E2128212F21402152215921632140
:1047F000062409241F2435244B24612477248D2486
:10480000A324AB24B424BD24DA24F7241092B901E4
:1048100065CD61E08091B9010E94320941E08111CA
:1048200040E00F2EF4E9EF2EF1E0FF2EF02D61E0D5
:10483000F70185A10E941D09F70185A34FCD62E014
:104840008091B9010E94320941E0811140E00F2EB0
:10485000F4E9EF2EF1E0FF2EF02D62E0F70185A1E3
:104860000E941D09F70185A339CD63E08091B9014C
:104870000E94320941E0811140E00F2EF4E9EF2E51
:10488000F1E0FF2EF02D63E0F70185A10E941D09E4
:10489000F70185A323CD64E08091B9010E9432091C
:1048A00041E0811140E00F2EF4E9EF2EF1E0FF2E00
:1048B000F02D64E0F70185A10E941D09F70185A391
:1048C0000DCD65E08091B9010E94320941E081116E
:1048D00040E00F2EF4E9EF2EF1E0FF2EF02D65E021
:1048E000F70185A10E941D09F70185A3F7CC66E0B9
:1048F0008091B9010E94320941E0811140E00F2E00
:10490000F4E9EF2EF1E0FF2EF02D66E0F70185A12E
:104910000E941D09F70185A3E1CC67E08091B901F0
:104920000E94320941E0811140E00F2EF4E9EF2EA0
:10493000F1E0FF2EF02D67E0F70185A10E941D092F
:10494000F70185A3CBCCEAEBF1E080818160817E29
:1049500080648083C3CCEAEBF1E080818A7F82604F
:10496000827E80648083BACCEAEBF1E080818E7F26
:104970008460847E80648083B1CC8DE0D89FF00118
:104980001124E053FE4F80818061877F80648083A3
:104990008091B6029091B702A091B802B091B9028D
:1049A000840D951DA61DB71D81839283A383B483B7
:1049B000CFEF94CC8DE0D89FF0011124E053FE4F4F
:1049C00080818F7E8860806480838091B602909120
:1049D000B702A091B802B091B902840D951DA61D31
:1049E000B71D81839283A383B483CFEF77CCC301B8
:1049F000B2010E94981D2B013C0170CC841B950BC9
:104A0000A60BB70B8093940190939501A093960108
:104A1000B09397018DCC911010C0DF91CF911F9171
:104A20000F91FF90EF90DF90CF90BF90AF909F904D
:104A30007F906F905F904F90089561E08D2F0E945E
:104A4000A31DEBCFCF92DF92EF92FF921F93CF93F4
:104A5000DF93C0E010E0D0E05CC06091B6027091DE
:104A6000B7028091B8029091B9024C2F0E942E0C8F
:104A7000D82F5BC0D0E08091B80184FF04C081E0F2
:104A8000D11180E0D82F8091BA0185FB882780F969
:104A90008D1741F0EAEBF1E08081D0FB85F980646D
:104AA000808311E02C2F30E08DE0829FF001839F06
:104AB000F00D1124E053FE4F81819281A381B481D6
:104AC0000097A105B10501F14091B6025091B702DE
:104AD0006091B8027091B902481759076A077B07BD
:104AE00098F08DE0829FF001839FF00D1124E05338
:104AF000FE4F1182128213821482EAEBF1E0808170
:104B0000877E8064808311E060E08C2F0E94A31D6B
:104B1000CF5FC03108F060C061E08C2F0E94281F79
:104B20008091B801897009F098CF6091B6027091B8
:104B3000B7028091B8029091B9020E944809682F8B
:104B40008091B9010E943209811104C09091B9018C
:104B50009111D82F8091BA0181FD8CCF82FD36C092
:104B600084FF17C09DE0C99FF0011124E053FE4F60
:104B7000C180D280E380F4804091B6025091B702A8
:104B80006091B8027091B9024C155D056E057F0504
:104B9000F8F083FF17C09DE0C99FF0011124E05396
:104BA000FE4FC180D280E380F4804091B6025091E4
:104BB000B7026091B8027091B9024C155D056E059F
:104BC0007F0540F080FD57CFD0E055CFD1E053CFE7
:104BD000D0E051CFD1E04FCF812FDF91CF911F9106
:104BE000FF90EF90DF90CF900895AF92BF92CF9259
:104BF000DF92EF92FF920F931F93CF93DF930DC23B
:104C000043E068E081E0810F0E94C411C82F682F43
:104C100085E00E949D1181E30E94841169EA72E09F
:104C200087EC93E00E944E036C2F82E10E949D115D
:104C300082E30E94841164EA72E087EC93E00E94B0
:104C40004E036C2F8DE10E949D1183E30E9484111D
:104C50006FE972E087EC93E00E944E036C2F88E2CC
:104C60000E949D1184E30E94841164E972E087EC44
:104C700093E00E944E036091000170E090E080E0BC
:104C800020E343E00E946418D1E0DC0F6C2F8CE33A
:104C90000E949D1185E30E9484116BE872E087EC0D
:104CA00093E00E944E0381E00E94F61040910101C2
:104CB0005091020160910301709104012AE030E0FB
:104CC00087EC93E00E945B106D2F85E00E949D11A0
:104CD00086E30E9484116AE772E087EC93E00E9409
:104CE0004E0380919301882309F48FC081E00E94D4
:104CF000DF1064E772E087EC93E00E944E036D2FB3
:104D000082E20E949D1187E30E94841161E672E0B5
:104D100087EC93E00E944E0380919301882309F46D
:104D200082C081E00E94F6106CE572E087EC93E0AF
:104D30000E944E03CE5F6D2F8AE30E949D11E0908A
:104D40009201CC24C394E110C12C01E020E040E0AA
:104D500060E088E30E9424116CE472E087EC93E049
:104D60000E944E0380E00E94F61081E08C0F0E94AA
:104D7000781268E080E70E941D15C82FE1E0E80F77
:104D8000EB3308F072C10E2E000CFF0BE653F94D09
:104D90000C94D02D0B280B2835283528352835289C
:104DA000352835283528352835283528352835281B
:104DB000352835283528352835283528352835280B
:104DC00035283528352835283528352835283528FB
:104DD00035283528352835283528352835283528EB
:104DE00035283528352835283528352835283528DB
:104DF0003528352835280B280B2822277327C52767
:104E0000D727F327F827FE270B2881E00E94F6100A
:104E10006FE672E087EC93E00E944E036D2F81E213
:104E20000E949D1170CF81E00E94DF1066E572E064
:104E300087EC93E00E944E03CE5F6D2F8BE30E94C0
:104E40009D117DCFE090DE020091DD022091DC0219
:104E500047EE57E061E081E00E94690A6B017C0146
:104E60006091B6027091B7028091B8029091B90238
:104E70000E942B1D6C0D7D1D8E1D9F1D0F2EFEEDA6
:104E8000AF2EF2E0BF2EF02D0F2EFDEDCF2EF2E073
:104E9000DF2EF02D0F2EFCEDEF2EF2E0FF2EF02D89
:104EA00008E011E02AE031E04BE051E00E94DC092B
:104EB0000E9414134091080150910901E090DE0214
:104EC0000091DD022091DC0260910A0180910B01CA
:104ED0000E94690A6093B6027093B7028093B80289
:104EE0009093B90298C040910801509109016091D6
:104EF0000A01E12C00E020E080910B010E94690A88
:104F00006B017C016091B6027091B7028091B8028A
:104F10009091B9020E94981D6C0D7D1D8E1D9F1DE4
:104F20000F2EFEEDAF2EF2E0BF2EF02D0F2EFDED79
:104F3000CF2EF2E0DF2EF02D0F2EFCEDEF2EF2E063
:104F4000FF2EF02D08E011E02AE031E04BE051E0C7
:104F50000E94DC090E94141340910801509109013C
:104F6000E090DE020091DD022091DC0260910A01F6
:104F700080910B010E94690A6093B6027093B70298
:104F80008093B8029093B90246C06091000170E02E
:104F900090E080E00E9425176093000161506E3F11
:104FA00018F00E94F71D37C00E949F1E34C0609108
:104FB00001017091020180910301909104010E940E
:104FC0002517609301017093020180930301909370
:104FD00004010E943A09882319F00E949F1E1BC0F9
:104FE0000E94F71D18C0109293010E949F1E13C0CB
:104FF00081E0809393010E949F1E0DC081E09091FB
:105000009201911180E080939201835D880F8093DB
:1050100007010E949F1E1C167CF50E9422258AE62D
:1050200091E00E94BC12182FD0E0C0E0C031D10541
:105030000CF0E6CD1F5F612F85E00E949D11C12C11
:10504000E12C01E020E240E060E08C2F8F5B0E94C9
:10505000241161E08C2F0E94281F21E040E060E0D5
:105060008C2F0E94B01A2196E1CF8FE98C0F8031EE
:1050700090F60E942720CFCF0E946F1FDF91CF9123
:105080001F910F91FF90EF90DF90CF90BF90AF9066
:105090000895EF92FF920F931F93CF93DF930E9497
:1050A000881481110EC087EC93E00E940A04892BBA
:1050B00009F0D3C0DF91CF911F910F91FF90EF9036
:1050C00008950E942225C82F811107C080910501F3
:1050D000882309F4A7C0D5E03FC0C0E0D5E03CC0BC
:1050E0008DE08E9DF0018F9DF00D1124E053FE4F59
:1050F000808180FF30C08DE08E9DF0018F9DF00D8E
:105100001124E053FE4F808186FD04C0809105018B
:10511000882301F161E08C2F0E94281F02E020E02B
:105120004D2F69E08C2F0E94B01A8DE08E9D80017A
:105130008F9D100D112400531E4FF801608165FBF7
:10514000662760F982E08C0F0E942E02F8018081B0
:105150008F7B8083DF5FCF5FC03108F063C0EC2EB0
:10516000F12C8DE08E9DF0018F9DF00D1124E05308
:10517000FE4F808181FDBFCF8DE08E9DF0018F9D20
:10518000F00D1124E053FE4F808182FDB4CF8DE0FD
:105190008E9DF0018F9DF00D1124E053FE4F808114
:1051A00084FF1AC08DE08E9DF0018F9DF00D1124BB
:1051B000E053FE4F41815281638174818091B60238
:1051C0009091B702A091B802B091B90284179507E7
:1051D000A607B70708F48FCF8DE08E9DF0018F9D55
:1051E000F00D1124E053FE4F808183FF79CF8DE0D5
:1051F0008E9DF0018F9DF00D1124E053FE4F4181F3
:105200005281638174818091B6029091B702A0911E
:10521000B802B091B90284179507A607B70708F43A
:105220006ACF5ECF61E083E40E949D1181E00E941D
:105230006E0B0E94B91868E18DE30E949D110E94D7
:105240004F1868EC72E087EC93E00E944E0380E018
:105250000E946E0B1092050126CF87EC93E00E940E
:10526000E8038156803118F00E94F52523CF0E9473
:1052700027200E946F1F1ECF8F929F92AF92BF92E6
:10528000CF92DF92EF92FF920F931F93CF93DF9312
:105290000E94F71D409101015091020160910301AC
:1052A0007091040126E087EC93E00E94210448E11C
:1052B00059E760E070E087E493E00E94C50887E466
:1052C00093E00E94CA080E945A130E94931161E061
:1052D00081E00E949D11812C32C001501109E6012C
:1052E0002196F7010115110581F06E017F01BFEFD5
:1052F000EB1AFB0A9080CE010E94982D981669F354
:10530000692DCE010E94A02DE8CFC2E0C80D61E05A
:105310008C2F0E9461028091B80184FF66C061E019
:105320008C2F0E942E028DE08A9DF0018B9DF00D46
:105330001124E053FE4F80818062808383942FE0AC
:10534000281508F462C0A82CB12C8DE08A9DF001CC
:105350008B9DF00D1124E053FE4FDF011D928A95C5
:10536000E9F760E0882D0E94281F60E0882D0E94E8
:10537000A31D8091BF01882361F08FEB91E0FC01B8
:1053800001900020E9F7CF01805C9140419708F43B
:10539000BCCF60EB72E087EC93E00E944E034AE0E2
:1053A00050E0B5016F5F7F4F87EC93E00E9454128D
:1053B00084E991E0CCE3DC01EC2F1D92EA95E9F75A
:1053C00029E0E8E8F1E0AFEBB1E001900D922A9519
:1053D000E1F721E4280DDC01D3962C93C89DE00170
:1053E00011240CE310E0FC017DCF60E08C2F0E94C3
:1053F0002E028DE08A9DF0018B9DF00D1124E0536B
:10540000FE4F80818F7D808399CF0E94F525DF91AB
:10541000CF911F910F91FF90EF90DF90CF90BF90B1
:10542000AF909F908F9008956FEF7FEF81E090E0B5
:105430000E94A4036FEF7FEF81E090E00E94ED08EF
:1054400008951F920F920FB60F9211240F931F937E
:105450002F933F934F935F936F937F938F939F937C
:10546000AF93BF9300916504109166042091670487
:105470003091680490916404B901A8014F5F5F4FB7
:105480006F4F7F4F83E0890F8D3740F086E8890F9B
:10549000B901A8014E5F5F4F6F4F7F4F8093640447
:1054A00040936504509366046093670470936804A6
:1054B0008091690490916A04A0916B04B0916C048E
:1054C0000196A11DB11D8093690490936A04A09375
:1054D0006B04B0936C04BF91AF919F918F917F91BA
:1054E0006F915F914F913F912F911F910F910F906D
:1054F0000FBE0F901F9018950E94A0020E943C2999
:105500000E9449280E941205FBCF1F920F920FB6EE
:105510000F9211242F933F934F935F936F937F9339
:105520008F939F93AF93BF93EF93FF9387EC93E099
:105530000E948304FF91EF91BF91AF919F918F9152
:105540007F916F915F914F913F912F910F900FBE7F
:105550000F901F9018951F920F920FB60F92112463
:105560002F938F939F93AF93BF93EF93FF93E0910C
:10557000D703F091D803808182FD14C0E7ECF3E0FB
:10558000A689B7892C91818D8F5F8F73928D891732
:1055900071F0DF01E18DF0E0E953FC4F258F599662
:1055A0008C9305C0E091DD03F091DE038081FF91D3
:1055B000EF91BF91AF919F918F912F910F900FBE5F
:1055C0000F901F9018951F920F920FB60F921124F3
:1055D0002F933F934F935F936F937F938F939F93FB
:1055E000AF93BF93EF93FF93E091B900E87FE93C5D
:1055F00008F0D5C0F0E0E150F54D0C94D02DC42C4E
:10560000CF2BCF2BCF2BCF2BCF2BCF2BCF2BC82BD1
:10561000CF2BCF2BCF2BCF2BCF2BCF2BCF2BC82BC1
:10562000CF2BCF2BCF2BCF2BCF2BCF2BCF2BE02B99
:10563000CF2BCF2BCF2BCF2BCF2BCF2BCF2B062C62
:10564000CF2BCF2BCF2BCF2BCF2BCF2BCF2BE02B79
:10565000CF2BCF2BCF2BCF2BCF2BCF2BCF2B0C2C3C
:10566000CF2BCF2BCF2BCF2BCF2BCF2BCF2B122C26
:10567000CF2BCF2BCF2BCF2BCF2BCF2BCF2B242C04
:10568000CF2BCF2BCF2BCF2BCF2BCF2BCF2B4E2CCA
:10569000CF2BCF2BCF2BCF2BCF2BCF2BCF2B182CF0
:1056A000CF2BCF2BCF2BCF2BCF2BCF2BCF2B322CC6
:1056B000CF2BCF2BCF2BCF2BCF2BCF2BCF2B512C97
:1056C000CF2BCF2BCF2BCF2BCF2BCF2BCF2B512C87
:1056D000CF2BCF2BCF2BCF2BCF2BCF2BCF2B512C77
:1056E000CF2BCF2BCF2BCF2BCF2BCF2BCF2B512C67
:1056F000CF2BCF2BCF2BCF2BCF2BCF2BCF2B5A2C4E
:10570000CF2BCF2BCF2BCF2BCF2BCF2BCF2B8B2C0C
:10571000CF2BCF2BCF2BCF2BCF2BCF2BCF2B5A2C2D
:10572000CF2BCF2BCF2BCF2BCF2BCF2BCF2B8B2CEC
:10573000CF2BCF2BCF2BCF2BCF2BCF2BCF2B722CF5
:10574000CF2BCF2BCF2BCF2BCF2BCF2BCF2B8F2CC8
:10575000CF2BCF2BCF2BCF2BCF2BCF2BCF2B8F2CB8
:10576000CF2BCF2BCF2BCF2BCF2BCF2BCF2BA42C93
:10577000CF2BCF2BCF2BCF2BCF2BCF2BCF2BBE2C69
:10578000CF2BCF2BCF2BCF2BCF2BCF2BCF2BBE2C59
:105790008091C6038093BB0081E00E942405FF91A5
:1057A000EF91BF91AF919F918F917F916F915F9199
:1057B0004F913F912F910F900FBE0F901F90189512
:1057C0009091C5038091C403981768F08091A3035A
:1057D000811119C081E08093A20384EA8093BC0008
:1057E0001092A103DCCFE091C50381E08E0F80937E
:1057F000C503F0E0EC55FC4F80818093BB0081E055
:105800000E942405CCCF0E946815C9CF80E2809306
:10581000A0030E946815C3CF80E38093A0030E9479
:105820006815BDCF88E38093A0030E941E05B7CF03
:10583000E091C50381E08E0F8093C503F0E0809175
:10584000BB00EC55FC4F80839091C5038091C4034D
:10585000981720F481E00E942405A1CF80E00E94E7
:1058600024059DCFE091C50381E08E0F8093C50391
:10587000F0E08091BB00EC55FC4F80838091A30346
:10588000811109C081E08093A20384EA8093BC0067
:105890001092A10384CF0E94681581CF0E946815E1
:1058A0007ECF83E08093A10310929F0381E00E944A
:1058B000240575CF80919F03803280F4E0919F038F
:1058C00081E08E0F80939F03F0E08091BB00E15850
:1058D000FC4F808381E00E94240561CF80E00E941C
:1058E00024055DCF0E941E0580919F03803230F415
:1058F000E0919F03F0E0E158FC4F108260919F031C
:1059000070E0E0917D03F0917E038FE793E00995CD
:1059100010929F0344CF80E00E94240540CF84E092
:105920008093A10310927C0310927B03E091790392
:10593000F0917A03099580917B03811105C081E084
:1059400080937B0310925903E0917C0381E08E0FDA
:1059500080937C03F0E0E75AFC4F80818093BB008A
:1059600090917C0380917B03981720F481E00E9442
:10597000240515CF80E00E94240511CF81E00E940C
:1059800024051092A1030BCF1092A0030E9468156A
:1059900006CFFC0188279927E89421912032E9F36A
:1059A000293010F02E30C8F32B3241F02D3239F46B
:1059B000689404C00E945E2D820F911D2191205396
:1059C0002A30C0F31EF4909581959F4F08951F9340
:1059D000FC0199278827BC01E89411911032E9F362
:1059E000193010F01E30C8F31B3251F01D3249F44B
:1059F000689406C00E94492D610F711D811D911D83
:105A0000119110531A30B0F33EF490958095709533
:105A100061957F4F8F4F9F4F1F9108954DE654E042
:105A20000E94132D0895FA01A191B081009719F4F5
:105A30001097E1F0CD01DC01CD010D90002011F4B3
:105A4000C00113C0FB012191222319F02015D9F7C1
:105A5000F3CFFB012191201519F41E92119606C077
:105A60002223C1F70D900020A1F7D001FA01A193E4
:105A7000B0830895BB272A3051F4992342F4BDE244
:105A800090958095709561957F4F8F4F9F4F0C94A7
:105A9000672D592F482F372F262F660F771F881F06
:105AA000991F660F771F881F991F620F731F841F2E
:105AB000951F660F771F881F991F08957AE0979F9B
:105AC000902D879F802D910D11240895BB27FA01F9
:105AD000A62F6217710581059105330B30FB66F027
