:100000000C94C1010C94E9010C94E9010C94E901F0
:100010000C94E9010C94E9010C94E9010C94E901B8
:100020000C94E9010C94E9010C94E9010C94E901A8
:100030000C94E9010C94E9010C94E9010C94E90198
:100040000C94701F0C94E9010C94E01F0C94BA1FDF
:100050000C94E9010C94E9010C94E9010C94E90178
:100060000C9412200C94E901204F4E004F4646009C
:10007000202D2000202D20004E2F41004E2F41002A
:1000800064697361626C65640020206175746F201F
:10009000200074656D702E204F4E0074656D702EBB
:1000A0004F4646007065726D2E204F4E007065728F
:1000B0006D2E4F46460044697361626C6564004969
:1000C0006E74657276616C00496E7465724F464657
:1000D00000496E7465722D4F4E00496E744F6E4F1D
:1000E0006666002020323468202020007C20007CBE
:1000F000002020204E4120202020282029003A00E6
:1001000020204F6666536574003A00204F6666549F
:10011000696D65003A0020204F6E54696D650020BE
:100120007768696C65204F464620200020202020FB
:100130004E2F4120202020200020207768696C6508
:10014000204F4E202000202020204D61696E20206D
:1001500020200053657454656D7054696D653A20B4
:100160000054656D706F72617279204F4E00546556
:100170006D706F72617279204F4646005065726DE6
:10018000616E656E74204F4E005065726D616E65D4
:100190006E74204F4646004175746F6D61746963DB
:1001A0000053617420200046726920200054687555
:1001B0002020005765642020005475652020004DE4
:1001C0006F6E20200053756E202000414C4C202083
:1001D0000044697361626C656400496E766572748F
:1001E000656420506F727420202020200032346813
:1001F0002D4461792054696D6572202020202020D3
:10020000007768696C654F46462054696D657200D9
:100210007768696C654F4E2054696D6572202020A7
:10022000202000496E74657276616C2054696D659A
:1002300072202020202000204020004B6579436F51
:100240006C6F7200436F6C6F722020200044696DE8
:1002500000426F6F74345465726D696E616C004258
:100260006F6F74344D6F644255530053706565640D
:10027000203D200041646472657373203D2000546A
:10028000696D6520202000446174652020200052A3
:1002900065426F6F742020200048003B001B5B000C
:1002A0006D001B5B001B5B316D001B5B32326D0010
:1002B00043001B5B001B37001B38001B5B376D00C6
:1002C0001B5B346D001B5B32346D003A002900204B
:1002D0007C200044001B5B003E3E20001B5B324A3A
:1002E0000000000000240027002A00556E646566A7
:1002F000696E656420506F72742F54696D65722049
:100300003A20001B5B32376D002000000000002502
:100310000028002B00040404040404040402020264
:100320000202020303030303030102040810204036
:1003300080010204081020010204081020000000BF
:100340000800020100000304070000000000000094
:10035000002020202053656C656374206B65792C28
:10036000206F7220456E74657228666F7220726508
:100370007475726E292E2E2E000A0042001B5B003F
:10038000312111241FBECFEFD8E0DEBFCDBF24E066
:10039000AEE6B1E001C01D92A535B207E1F711E06C
:1003A000A0E0B1E0E4E8FAE402C005900D92AE36B8
:1003B000B107D9F711E0C1ECD1E004C02197FE01EB
:1003C0000E94EF24C03CD107C9F70E946A210C9417
:1003D00040250C94000090E0FC01E35CFC4F24916C
:1003E000FC01E75DFC4F3491FC01EB5EFC4FE491B6
:1003F000EE23C9F0222339F0233001F1A8F4213093
:1004000019F1223029F1F0E0EE0FFF1FE55FFC4FFC
:10041000A591B4918FB7F894EC91611126C03095F5
:100420003E233C938FBF08952730A9F02830C9F0B0
:10043000243049F7809180008F7D03C08091800037
:100440008F7780938000DFCF84B58F7784BDDBCF3B
:1004500084B58F7DFBCF8091B0008F778093B00003
:10046000D2CF8091B0008F7DF9CF3E2BDACF3FB74E
:10047000F89480911A0390911B03A0911C03B091F2
:100480001D0326B5A89B05C02F3F19F00196A11D9D
:10049000B11D3FBFBA2FA92F982F8827BC01CD01CE
:1004A000620F711D811D911D42E0660F771F881F2D
:1004B000991F4A95D1F708958F929F92AF92BF925C
:1004C000CF92DF92EF92FF920E9437024B015C01C4
:1004D0008CE0C82ED12CE12CF12C0E943702681937
:1004E00079098A099B09683E734081059105A8F343
:1004F00021E0C21AD108E108F10888EE880E83E0F5
:10050000981EA11CB11CC114D104E104F10429F707
:10051000FF90EF90DF90CF90BF90AF909F908F9023
:10052000089508950895AF92BF92CF92DF92EF920F
:10053000FF920F931F93CF93DF936C017B018B018D
:10054000040F151FEB015E01AE18BF08C017D107DD
:1005500059F06991D601ED91FC910190F081E02D67
:10056000C6010995892B79F7C501DF91CF911F91BC
:100570000F91FF90EF90DF90CF90BF90AF900895D4
:10058000FC01538D448D252F30E0842F90E0821B99
:10059000930B541710F0CF96089501970895FC011E
:1005A000918D828D981761F0A28DAE0FBF2FB11D76
:1005B0005D968C91928D9F5F9F73928F90E00895CE
:1005C0008FEF9FEF0895FC01918D828D981731F088
:1005D000828DE80FF11D858D90E008958FEF9FEFDC
:1005E0000895FC01918D228D892F90E0805C9F4FB2
:1005F000821B91098F73992708958AEA93E00E94DC
:10060000F10221E0892B09F420E0822F089580E097
:1006100090E0892B29F00E94FD0281110C940000CA
:100620000895FC01A48DA80FB92FB11DA35ABF4F87
:100630002C91848D90E001968F739927848FA689E1
:10064000B7892C93A089B1898C91837080648C9335
:10065000938D848D981306C00288F389E02D8081E4
:100660008F7D80830895EF92FF920F931F93CF9316
:10067000DF93EC0181E0888F9B8D8C8D98131AC0DD
:10068000E889F989808185FF15C09FB7F894EE89C4
:10069000FF896083E889F989808183708064808321
:1006A0009FBF81E090E0DF91CF911F910F91FF906C
:1006B000EF900895F62E0B8D10E00F5F1F4F0F7314
:1006C0001127E02E8C8D8E110CC00FB607FCFACFCF
:1006D000E889F989808185FFF5CFCE010E94110359
:1006E000F1CFEB8DEC0FFD2FF11DE35AFF4FF082A0
:1006F0009FB7F8940B8FEA89FB8980818062CFCF06
:100700000F931F93CF93DF938C01D0E0C0E0F801EB
:10071000EC0FFD1F6491662341F08AEA93E00E948A
:100720003303892B11F02196F2CFCE01DF91CF91C7
:100730001F910F910895682F8AEA93E00C94330378
:10074000CF93DF93EC01888D8823B9F0AA89BB8908
:10075000E889F9898C9185FD03C0808186FD0DC0F3
:100760000FB607FCF7CF8C9185FFF2CF808185FF14
:10077000EDCFCE010E941103E9CFDF91CF91089513
:100780002091F801260F3327331F21323105ECF475
:1007900020914403FC0190E080E0243069F082E085
:1007A0000895A091F8012191AC0148525E4FA40F29
:1007B000B52FB11D2C930196861798F38091F801FF
:1007C000680F6093F80180E0089581E00895109229
:1007D000440381E08093430310921E0361E082E1B1
:1007E0000E94EB0161E083E10E94EB01E9EBF0E0A4
:1007F00080818E7F808380818D7F808388E4809359
:10080000B80085E48093BC000895CF93DF9391E016
:100810009093D7018823B9F0C091B800D091BA0065
:100820008091BC008A7B8093BC0060E082E10E94E2
:10083000EB0160E083E10E94EB010E94E703D093AB
:10084000BA00C093B800DF91CF9108958F929F9224
:10085000AF92BF92CF92DF92EF92FF920F931F93CE
:10086000CF93DF93D0916D03D13208F0D7C0182F0A
:10087000C0916C030E9437026B017C01809144039C
:1008800081116BC082E080934403109343038FEF88
:100890008093420310924103D0934003ACE4B3E051
:1008A000E0E2F3E080E0D81391C010921F03809142
:1008B0001F03CC0FC82BC0931F0380911E038130F0
:1008C00009F088C010921E030E9437026B017C0160
:1008D00080911F038093BB00809146039091470352
:1008E000A0914803B0914903892B8A2B8B2BA1F04F
:1008F0000E9437020091460310914703209148035C
:10090000309149036C197D098E099F090617170755
:100910002807390708F442C08091BC0083FDD8CF76
:1009200085EC8093BC000E9437026B017C018091B2
:100930004403823009F450C0809142038F3F09F490
:100940006FC080914203803209F46CC080914203F1
:10095000803309F469C084E026C0809146039091F9
:100960004703A0914803B0914903892B8A2B8B2B15
:1009700009F484CF0E943702809046039090470389
:10098000A0904803B09049036C197D098E099F0916
:1009900086169706A806B90608F070CF8091450321
:1009A0000E94050485E010924B0310926D03109293
:1009B0004A03DF91CF911F910F91FF90EF90DF904D
:1009C000CF90BF90AF909F908F9008959D919193FD
:1009D0008F5F69CF85EEA5CF809146039091470345
:1009E000A0914803B0914903892B8A2B8B2B09F4E2
:1009F0009ECF0E9437020091460310914703209139
:100A00004803309149036C197D098E099F09061727
:100A100017072807390708F08ACFC0CF81E0C3CF76
:100A200080E0C1CF82E0BFCF83E0BDCF0895E091E9
:100A3000200280911F02E81730F4F0E0E954FE4FE5
:100A4000808190E008958FEF9FEF089590912002AC
:100A500080911F022FEF3FEF981748F4E92FF0E045
:100A6000E954FE4F208130E09F5F90932002C9013E
:100A7000089580911F0290912002891B990B08957F
:100A8000CF92DF92EF92FF920F931F93CF93DF935A
:100A90007C01CB018A0120914A03222389F0EB01DA
:100AA0006B01C40ED51ECC15DD0569F06991D70127
:100AB000ED91FC910190F081E02DC7010995F3CFF4
:100AC000642F0E94C003C801DF91CF911F910F9145
:100AD000FF90EF90DF90CF900895CF93DF931F9218
:100AE000CDB7DEB7698320914A032223F9F0209124
:100AF0006D03203258F021E030E0FC013383228383
:100B000090E080E00F90DF91CF91089580914B03AA
:100B1000E82FF0E0E45BFC4F998190838F5F809336
:100B20004B0380936D0381E090E0ECCF61E0CE0158
:100B300001960E94C003F7CF90E080E008959C01E9
:100B400064E670E00E94B924FC01C9018370992712
:100B5000892B11F4309779F4C90160E971E00E94A2
:100B6000B9249C01EF2B11F4892B19F481E0232B7C
:100B700009F080E0089581E00895863029F034F48A
:100B8000823051F0843031F48EE108958930E1F300
:100B90008B30D1F38FE10895CB010E949F0588230C
:100BA00011F08DE108958CE108952F923F924F92BC
:100BB0005F926F927F928F929F92AF92BF92CF92ED
:100BC000DF92EF92FF920F931F93CF93DF932B014E
:100BD0003C011A014901E80187EE97E09983888377
:100BE00040E853E361EE71E044155505660577056D
:100BF000B0F488819981019699838883441A550AB3
:100C0000660A770A0E949F0540E450E761E370E0BE
:100C10008111EACF40EC5EE160E370E0E5CF81E076
:100C2000F401808360E87EED88E290E0641575054C
:100C300086059705B0F4F40120812F5F2083461AC2
:100C4000570A680A790A68817981822F0E94BD0556
:100C5000A82FB0E020E831E541E050E00E940425F3
:100C6000E5CFC301B20120E831E541E050E00E9448
:100C7000CD242F5FF101208320E13EE040E050E0F1
:100C80000E94CD24F70120832CE330E040E050E0C7
:100C90000E94CD24F6012083F5016083DF91CF917E
:100CA0001F910F91FF90EF90DF90CF90BF90AF908A
:100CB0009F908F907F906F905F904F903F902F907C
:100CC00008954F925F926F927F928F929F92AF9210
:100CD000BF92CF92DF92EF92FF920F93CF93DF9369
:100CE000C82FC62E3A01D22F97EE492E97E0592EE3
:100CF000812C912C540146145704C0F4C2010E9467
:100D00009F0581110CC020E8821A2CEC920A2EE17A
:100D1000A20A2EEFB20A4FEF441A540AECCF3BE777
:100D2000931A3DE1A30A3EEFB30AF5CF442443945E
:100D3000512CD12C4C145D04A4F4B301842D0E94D9
:100D4000BD05A82FB0E020E831E541E050E00E9469
:100D50000425860E971EA81EB91E5FEF451A550A78
:100D6000E9CF202F30E0ACE3B0E00E94F5249B01F6
:100D7000AC012E0D311D411D511D69017A012D2F30
:100D800030E0A0E1BEE00E94F524C60ED71EE81EAA
:100D9000F91E4C2F4150550BDA0120E831E541E0B6
:100DA00050E00E940F256C0D7D1D8E1D9F1D680D4E
:100DB000791D8A1D9B1DDF91CF910F91FF90EF90C0
:100DC000DF90CF90BF90AF909F908F907F906F906B
:100DD0005F904F900895CF93DF93D82FC62FC150C7
:100DE00020F08D2F0E949B03FACFDF91CF910895C1
:100DF000682F80E20C94EB068BEB92E00C9480035E
:100E0000813671F02AE5853261F0882349F021E0CE
:100E1000280F93EE980F983020F08955883008F00D
:100E20002EE1822F089588EB92E00C94800385EBED
:100E300092E00C94800381EF90E00C948003FF9289
:100E40000F931F93CF93DF9301E212E0C5EED3E03F
:100E5000F801F1908F01CE010E949724F81621F03D
:100E60006F2DCE010E949F242196C13FF3E0DF0742
:100E700079F7DF91CF911F910F91FF900895AF9275
:100E8000BF92DF92EF92FF920F931F93CF93DF9366
:100E90005C010EE613E0D0E0C0E0F801D1908F01D4
:100EA0007501EC0EFD1EC7010E949724D81621F093
:100EB0006D2DC7010E949F242196CC33D10569F77F
:100EC0008EE693E0DF91CF911F910F91FF90EF900D
:100ED000DF90BF90AF9008952DE0829FF001112424
:100EE000EB5BFD4F20919403908121FB91F922FB54
:100EF00092F924FB94F923FB93F925FB95F926FB42
:100F000096F920FB90F99083662351F0277C2F7B84
:100F1000209394032CE3829FC00111240C943F077B
:100F200008950F931F93CF93DF9301E212E0C5EE74
:100F3000D3E0CE010E949724F80181938F0121967E
:100F4000C13FF3E0DF07A9F760912202709123020D
:100F5000809124029091250220EB34E040E050E0A3
:100F60000E94CD24672B682B692B61F080E895E205
:100F7000A0E0B0E08093220290932302A093240289
:100F8000B09325028091260280930001DF91CF91DA
:100F90001F910F910895EF92FF920F931F93CF939C
:100FA000DF93C82FD62F2CE3829FC00111240EE6B9
:100FB00013E0FC01EE56F3407F01C701800F911F43
:100FC0000E949724F80181938F01F3E00A3A1F07EA
:100FD000A1F7DD23A9F02DE0C29FF0011124EB5B06
:100FE000FD4F90818091940394FB84F993FB83F9E6
:100FF00095FB85F996FB86F990FB80F98093940325
:10100000DF91CF911F910F91FF90EF9008952F9254
:101010003F924F925F926F927F928F929F92AF9288
:10102000BF92CF92DF92EF92FF920F931F93CF93D5
:10103000DF93CDB7DEB76B970FB6F894DEBF0FBE68
:10104000CDBF25E432E03F8B2E8B212C1D8A10E092
:1010500061E0822D0E94CB073090920340904102C4
:1010600050904202609043027090440249865A8632
:101070006B867C86832D897009F427C18091860355
:1010800090918703A0918803B091890360907A03BF
:1010900070907B0380907C0390907D03698A7A8AAC
:1010A0008B8A9C8A80906E0390906F03A09070034F
:1010B000B09071038D869E86AF86B88A89889A889B
:1010C000AB88BC88CD84DE84EF84F8888C0C9D1CB2
:1010D000AE1CBF1CC12CD12C760181149104A1043B
:1010E000B10481F049845A846B847C84481A590A7B
:1010F0006A0A7B0AC301B201A50194010E94CD24B2
:101100006B017C0149845A846B847C844C185D0893
:101110006E087F0849825A826B827C824D845E848D
:101120006F84788829813A814B815C81420E531EFD
:10113000641E751E280D391D4A1D5B1D2D833E83BF
:101140004F8358878D849E84AF84B888C814D9048F
:10115000EA04FB0408F057C15301420149805A8058
:101160006B807C8081E0AE89BF8915964D925D923F
:101170006D927C921897FD0181869286A386B48633
:10118000882309F411C231FEA0C140908A03509017
:101190008B0360908C0370908D034D865E866F8606
:1011A000788AD301C20149805A806B807C80840D8B
:1011B000951DA61DB71D49845A846B847C848415B3
:1011C0009505A605B70508F064C1409072035090DC
:1011D00073036090740370907503498A5A8A6B8A0E
:1011E0007C8A40907E0350907F03609080037090D3
:1011F000810329893A894B895C89420E531E641EFA
:10120000751E60E070E0CB0141145104610471046B
:1012100071F0C701B6012D853E854F855889621B47
:10122000730B840B950BA30192010E94CD24C61A67
:10123000D70AE80AF90A29893A894B895C892C0D71
:101240003D1D4E1D5F1D288F398F4A8F5B8F298969
:101250003A894B895C89621773078407950708F4FC
:10126000D8C04C0C5D1C6E1C7F1CC88CD98CEA8CC1
:10127000FB8C488E598E6A8E7B8E80E0088D198D8E
:101280002A8D3B8D49805A806B807C80040D151D12
:10129000261D371DC40CD51CE61CF71CAE89BF8962
:1012A0001596CD92DD92ED92FC921897882309F461
:1012B000D4C0081519052A053B0508F0ACC0FD018E
:1012C000018712872387348711E069857A858B85AA
:1012D0009C8520E83AE349E050E00E94CD2420E8D4
:1012E00031E541E050E00E94CD24672B682B692B4B
:1012F00009F0A7C22F5F30919303832F90E002C0C3
:10130000959587952A95E2F780FD02C0311110E08E
:1013100080919403EE89FF894181528163817481B8
:1013200081FD93C282FD8FC284FF0AC049845A8422
:101330006B847C84441655066606770608F485C2DD
:1013400083FF0AC069847A848B849C846416750642
:101350008606970608F477C280FF77C234FE02C083
:1013600091E0192785FB992790F9911739F010FB27
:1013700085F980648093940321E02D8B41155105FC
:1013800061057105C9F049845A846B847C844416D4
:1013900055066606770680F0AE89BF8911961D92C4
:1013A0001D921D921C92149780919403877E8064F5
:1013B00080939403B1E0BD8B60E0822D0E946C07A6
:1013C0002394EE89FF893D96FF8BEE8BF0E12F127F
:1013D0003FCE8D896B960FB6F894DEBF0FBECDBFA2
:1013E000DF91CF911F910F91FF90EF90DF90CF9001
:1013F000BF90AF909F908F907F906F905F904F9035
:101400003F902F9008958D809E80AF80B88480E0BB
:10141000AACE81E033CF32FE57CF80918E039091D8
:101420008F03A0919003B0919103892B8A2B8B2B72
:1014300009F04ACF8091760390917703A0917803C9
:10144000B0917903880D991DAA1DBB1DEE89FF89F6
:1014500081879287A387B48737CF081519052A0596
:101460003B0548F4AE89BF8919960D931D932D93C2
:101470003C931C977DC032FE13C080918E039091E7
:101480008F03A0919003B0919103880D991DAA1D1F
:10149000BB1DEE89FF8981879287A387B48768C0C7
:1014A0008D849E84AF84B8884D805E806F80788400
:1014B000840C951CA61CB71CAE89BF8919968D9209
:1014C0009D92AD92BC921C9753C032FEFDCE80918E
:1014D0008E0390918F03A0919003B0919103880E99
:1014E000991EAA1EBB1EEE89FF8981869286A3865D
:1014F000B486C0907603D0907703E0907803F090A4
:1015000079032091820330918303409184035091A9
:1015100085032C0D3D1D4E1D5F1D21153105410517
:101520005105A9F089889A88AB88BC88F1E08F1AA8
:101530009108A108B10824013501481A590A6A0A1C
:101540007B0AC301B2010E94CD249B01AC012C1582
:101550003D054E055F0570F469807A808B809C8024
:10156000AE89BF8915966D927D928D929C92189747
:1015700010E0ABCEB1E0CB1AD108E108F108498008
:101580005A806B807C80C40CD51CE61CF71CC21AE8
:10159000D30AE40AF50AAE89BF891596CD92DD9289
:1015A000ED92FC921897E4CF32FEECC080908E034F
:1015B00090908F03A0909003B0909103888E998EA5
:1015C000AA8EBB8ED501C401840D951DA61DB71D25
:1015D000A984BA84CB84DC848A159B05AC05BD053F
:1015E00008F057CFC0907603D0907703E09078034F
:1015F000F0907903C982DA82EB82FC8289849A8432
:10160000AB84BC8484189508A608B708C0908203F0
:10161000D0908303E0908403F090850329813A8180
:101620004B815C81C20ED31EE41EF51E40E050E0EB
:10163000BA01C114D104E104F10481F0C501B4017F
:10164000288D398D4A8D5B8D621B730B840B950B36
:10165000A70196010E94CD24AB01BC01D501C401B4
:10166000841B950BA60BB70B09811A812B813C813A
:10167000080F191F2A1F3B1F89809A80AB80BC80EE
:10168000481559056A057B0538F1C80ED91EEA1EB2
:10169000FB1ED901C8019701860140E0040D151D0C
:1016A000261D371D840D951DA61DB71DEE89FF89CA
:1016B00085839683A783B0874D805E806F80788412
:1016C0004423D1F1041515052605370538F40187A3
:1016D000128723873487F8CD41E0E0CF4D805E80CC
:1016E0006F807884AE89BF8919964D925D926D9214
:1016F0007C921C9731FEE8CD80918A0390918B03F8
:10170000A0918C03B0918D03892B8A2B8B2B09F030
:10171000DBCD8090720390907303A0907403B0901F
:101720007503840C951CA61CB71CEE89FF89818665
:101730009286A386B486C8CD0415150526053705FF
:1017400008F490CE31FE09C080908A0390908B03FC
:10175000A0908C03B0908D03A7CE888C998CAA8C16
:10176000BB8C4D845E846F847888840C951CA61C89
:10177000B71CCD80DE80EF80F8848C0C9D1CAE1CE5
:10178000BF1C9ACE31FEF4CE80908A0390908B03DA
:10179000A0908C03B0908D03898A9A8AAB8ABC8A08
:1017A0008D809E80AF80B884C988DA88EB88FC88F9
:1017B0008C0C9D1CAE1CBF1CAE89BF8919968D92E6
:1017C0009D92AD92BC921C97C0907203D09073030F
:1017D000E0907403F090750320917E0330917F03B5
:1017E00040918003509181032C0D3D1D4E1D5F1DC6
:1017F0002115310541055105C1F06D857E858F8527
:101800009889615071098109910969837A838B8371
:101810009C8389889A88AB88BC88681979098A0969
:101820009B090E94CD249B01AC012C153D054E0562
:101830005F0508F49DCE61E0C61AD108E108F10801
:10184000A2CE2E5F58CD11E089CD10E087CDFC01EE
:1018500001900020E9F73197AF01481B590BBC01FB
:101860008AEA93E00C9493028F929F92AF92BF9278
:101870000F931F93CF93DF93CDB7DEB7A1970FB62A
:10188000F894DEBF0FBECDBF19A2423008F44AE083
:101890008E010F5D1F4F842E912CB12CA12CA50120
:1018A00094010E94CD24E62FB901CA01EA30F4F474
:1018B000E05DD801EE938D01232B242B252B79F7A6
:1018C00090E080E0109719F0CD010E94270CA196BE
:1018D0000FB6F894DEBF0FBECDBFDF91CF911F9141
:1018E0000F91BF90AF909F908F900895E95CE1CFEA
:1018F000009711F00C94270C90E080E008958DE2A1
:1019000092E00C94780C89E793E00E9480038DE2CA
:1019100091E00E94270C81E593E00C948003EF9204
:10192000FF920F931F93CF93C62F21E020934A037A
:1019300028E620936C0310924B0310926D038C01E8
:101940007C01E60EF11CE016F10641F0F801619110
:101950008F0187E494E00E946D05F5CF81E00E943D
:101960002604811107C08C2FCF911F910F91FF90FA
:10197000EF9008958FEFF8CFCF931092A60180914A
:101980004002CAE06C2F0E94AD248295807F980FA0
:101990009093A70180913F020E94AD248295807FA1
:1019A000980F9093A80180913E020E94AD248295E9
:1019B000807F980F9093A90164E086EA91E00E94ED
:1019C0008F0C181634F584E08093A60180910201F3
:1019D0006C2F0E94AD248295807F980F9093A70171
:1019E000809103010E94AD248295807F980F90938F
:1019F000A80180910401805D0E94AD248295807FC2
:101A0000980F9093A90164E086EA91E0CF910C943D
:101A10008F0CCF910895682F70E090E080E04AE04D
:101A20000C94340C8DE793E00E94800381E00E94C7
:101A30000B0D8BE793E00C948003CF93C82F82EBC0
:101A400092E00E9480038C2F0E940B0D80EB92E0AD
:101A5000CF910C948003CF93C82F811101C0C7E2AE
:101A600080916E0181110CC082EE8C0F883030F0B5
:101A700086EA8C0F883010F0C73211F4C093010150
:101A800082EA92E00E9480038C2F0E940B0D80EA74
:101A900092E00E948003C73211F0CF910895C1E314
:101AA000DFCFCF93C82F10926E0180E00E94640DAB
:101AB00080910101CC2329F081E080936E01809117
:101AC0000001CF910C942B0DCF93C82F80916E0104
:101AD000882319F080E00E94510D85EA92E0C1113F
:101AE00002C08AEA92E0CF910C948003CF93C82F72
:101AF00080E00E94640D8FEC92E00E948003CC2372
:101B000021F081E0CF910C94640DCF910895CF9393
:101B1000C82F80E00E94510D8C2F0E942B0D81E078
:101B2000CF910C94640DCF93DF93C82FD62F8DE9FE
:101B300092E00E9480038D2F0E940B0D8BE992E0B2
:101B40000E9480038C2F0E940B0D89E992E0DF91A7
:101B5000CF910C9480031F93CF93DF93C82F862FD0
:101B6000D42FCC2341F0662331F011E01C0F6C2FF1
:101B70000E94930DC12F6D2F8DE20E94EB068C2FDA
:101B8000DF91CF911F9108958F929F92AF92BF9254
:101B9000EF920F931F93CF9361E087E091E00E9453
:101BA0008F0C109284010E9437024B015C018091DE
:101BB0004403811165C081E0809344038093430313
:101BC0009FEF909342031092410396E0909340035D
:101BD00080931F0380911F03806D80931F0380916A
:101BE0001E03813009F08BC010921E030E94370241
:101BF0004B015C0180911F038093BB0080914603E1
:101C000090914703A0914803B0914903892B8A2BF7
:101C10008B2BA1F00E9437020091460310914703DD
:101C20002091480330914903681979098A099B0971
:101C3000061717072807390708F443C08091BC002E
:101C400083FDD8CF85EC8093BC000E9437024B0106
:101C50005C0180914403813009F453C080914103B9
:101C600007E0873010F400914103E0E2F3E0A7EBD6
:101C7000B1E080E0801751F191919D938F5FFACF91
:101C80008091460390914703A0914803B091490386
:101C9000892B8A2B8B2B09F48ACF0E943702009163
:101CA0004603109147032091480330914903681976
:101CB00079098A099B09061717072807390708F0C9
:101CC00076CF809145030E94050400E01092200227
:101CD00000931F0284E8A82E81E0B82EC0E0809116
:101CE0002002081781F1C73071F187E494E00E9467
:101CF0002605F50181935F01CF5F1082F0CF85EE5D
:101D0000A2CF8091460390914703A0914803B091E0
:101D10004903892B8A2B8B2B09F49BCF0E94370216
:101D200000914603109147032091480330914903E5
:101D3000681979098A099B090617170728073907BF
:101D400008F087CFBECF81E00E94260481117AC0BF
:101D5000C73009F077C080918401282F22952F7019
:101D60009AE08F70E82E299FE00C1124E092400247
:101D700000918501802F82958F700F70899F000DD3
:101D8000112400933F0220918601822F82958F704B
:101D90002F70899F200D112420933E02809188018D
:101DA000382F32953F708F70399F800D11248093AA
:101DB000020160918901362F32953F706F70399F13
:101DC000600D11246093030140918A01342F3295F4
:101DD0003F704F70399F400D112450E04053584FD1
:101DE000473EF7E05F075CF1509305014093040123
:101DF0008090410290904202A0904302B090440231
:101E000040910401509105010E94610660934102D6
:101E1000709342028093430290934402A50194017F
:101E2000261B370B480B590BCA01B901CF911F91E3
:101E30000F91EF90BF90AF909F908F90089547EED5
:101E400057E0D2CF60E070E0CB01F0CF0F931F934B
:101E50008FB7F894409116035091170360911803BF
:101E6000709119038FBF0091800110918101209121
:101E7000820130918301DB01CA01401751076207DB
:101E8000730718F40197A109B109801B910BA20BEC
:101E9000B30B00917C0110917D0120917E01309166
:101EA0007F01800F911FA21FB31F883E23E092077E
:101EB000A105B10508F4F5C040938001509381015C
:101EC0006093820170938301885E9340A109B109F8
:101ED00080937C0190937D01A0937E01B0937F015C
:101EE0008091780190917901A0917A01B0917B0164
:101EF0000196A11DB11D8093780190937901A09363
:101F00007A01B0937B01809177018F5F8093770195
:101F10008C3339F480917601109277018F5F809332
:101F20007601809176018C3339F48091750110929D
:101F300076018F5F8093750180917501883159F426
:101F400010927501809173019091740101969093A4
:101F5000740180937301809140028F5F80934002EF
:101F600040914102509142026091430270914402BB
:101F70004F5F5F4F6F4F7F4F40934102509342023C
:101F800060934302709344028C3339F480913F0292
:101F9000109240028F5F80933F0280913F028C330A
:101FA00039F480913E0210923F028F5F80933E028F
:101FB00080913E02883161F510923E0290910201BB
:101FC0009F5F9093020180910301823009F051C01C
:101FD0009D3170F080910401909105010E949F0550
:101FE000811106C081E08093020183E080930301A8
:101FF000809103018D3061F481E080930301809131
:1020000004019091050101969093050180930401CC
:1020100080916F0190917001A0917101B091720156
:10202000892B8A2B8B2B71F40E94C40D80E891E5DB
:10203000A1E0B0E080936F0190937001A0937101D3
:10204000B093720180916F0190917001A091710124
:10205000B09172010197A109B10980936F0190932A
:102060007001A0937101B093720181E01F910F91F3
:102070000895863019F020F4843031F42FE105C042
:102080008930E1F38B30D1F320E2022E000C330BC8
:102090009217130609F0ACCF91E0909302018F5F85
:1020A000A5CF80E0E3CFCF92DF92EF92FF920F9324
:1020B0001F93CF93DF93CFEFDCE3E62EF12C082FB5
:1020C00010E068018FE1C81AD108DD23A1F10E9458
:1020D000260F8111D1508AEA93E00E94F102892BE8
:1020E000A1F38AEA93E00E94CF02C82F803304F163
:1020F000082E000C990B9C0120533109E216F306BF
:10210000D4F4C1369CF008171907ACF48C159D0562
:1021100094F0CB3179F0CB3271F0CD3261F0DCE369
:102120008C2F8D7F8C3339F0CFEFD1CFC13474F742
:10213000CD3079F7C0E08C2FDF91CF911F910F91B7
:10214000FF90EF90DF90CF900895CF92EF920F9392
:102150001F93CF93DF93182FD42FC22F662319F02C
:1021600081E00E94F806EE2011F0C1100DC080E061
:102170000E94510D80912C028823C9F10E94870D85
:1021800080EC92E00E948003DD2319F08D2F0E94E5
:102190009B03812F0E949B038DEC92E00E948003A1
:1021A000002321F08BEC92E00E94800380E00E94EB
:1021B000640D85EC92E00E948003002319F081E019
:1021C0000E94F806CC2319F08C2F0E949B0380E01C
:1021D0000E942B0DEE20D9F0C1101BC081E0DF91D1
:1021E000CF911F910F91EF90CF900C94640D80E0F0
:1021F0000E94640D80E00E942B0DC2CF81E0DF9130
:10220000CF911F910F91EF90CF900C94510DC11071
:10221000F5CFDF91CF911F910F91EF90CF9008955F
:10222000CF92EF920F93C12CE12C00E020E048E226
:1022300061E00E94A5100F91EF90CF900895CF928A
:10224000EF920F93C12CE12C01E020E040E060E030
:102250000E94A5100F91EF90CF900895CF92EF922A
:102260000F93C42EE62E01E020E040E060E00E94E3
:10227000A5100F91EF90CF9008950F931F93CF93D8
:102280008C0180E00E942B0D8CED92E00E94800377
:1022900080E00E942B0D0E94FC0661E081E00E941C
:1022A000930D81E00E94640DF80101900020E9F790
:1022B000902F9E1B9F5A892F8695C92FC81B0E945D
:1022C000F806C8010E94780C8C2F0E94F80680E066
:1022D0000E94640D83E093E00E94800382E0CF912E
:1022E0001F910F910895CF93C82F0E9413070E944A
:1022F000120D0E9417078C2F0E94640D69E38DE276
:102300000E94EB0680E00E94640D0E9413070E9469
:10231000120D0E9417078FEE90E00E94800381E06B
:10232000CF910C94640D85ED8093BC0080914603A1
:1023300090914703A0914803B09149030796A11DCE
:10234000B11D23E0B695A795979587952A95D1F766
:102350002091BC0024FD03C01092440308954091D5
:102360004603509147036091480370914903452B00
:10237000462B472B69F30097A105B10541F025E3F2
:102380002A95F1F700000197A109B109E1CF8091E9
:1023900045030C9405042F923F924F925F926F92E7
:1023A0007F928F929F92AF92BF92CF92DF92EF92E5
:1023B000FF920F931F93CF93DF937C01FC01019059
:1023C0000020E9F731977E2E781A20E1271518F4BE
:1023D000FC011082712C81E00E94640D88ED92E076
:1023E0000E94800380E00E94640D84E20E942B0D15
:1023F0000E941707772049F00E94FC06C7010E943F
:10240000780C83E093E00E948003B70186EA91E0B4
:102410000E943025E72DF0E0EA55FE4F1082572C40
:10242000172DC12CD12C212C912CC0E0D0E090E1B3
:10243000892E0CE3DD3009F4ADC10E94260F8823FC
:10244000C9F00150B9F480E00E942B0D80E0DF91CB
:10245000CF911F910F91FF90EF90DF90CF90BF90A1
:10246000AF909F908F907F906F905F904F903F9034
:102470002F9008958AEA93E00E94F102892BD1F20D
:102480008AEA93E00E94CF02D82F412E4518772088
:1024900009F48FC1992493945C12912CDC2ED70CF3
:1024A000312E3D18CC24C394C30CDD3009F438C15F
:1024B000A4F4D830B1F0DA3009F432C12C2E80EE19
:1024C0008D0F8F3508F0B5CF103108F40FC177208C
:1024D00009F4AFCFAA24A394D6C0DB3129F0DF37AB
:1024E00069F72C2EA12CCFC02C2E0E945C0200E09C
:1024F000A12C612CDBE18AEA93E00E94F102892B96
:1025000009F446C063948AEA93E00E94CF02D82F70
:102510000E945C02F3E06F1651F1F61558F021E0CD
:102520006216A9F032E06316A9F0AA24A394E3CFBF
:10253000342CDBCF84E0681639F195E06912F5CFD1
:102540008FEB8D0F843088F70FE70D0FD4CFDB357D
:1025500061F7D1CFD53334F4D33314F4D13329F721
:102560000D2FC9CF8FEB8D0F8430F8F6F9CFDB3309
:1025700011F2DE37D1F6013309F4BDCFB0F28DECA4
:10258000800F823090F6B7CFD23309F4B4CFCDCFDD
:10259000662009F458CFA1104CCF033409F456C07B
:1025A000E0F4043389F058F4013309F449C00333EB
:1025B00009F45EC0772009F43CCF412C0AC00134F5
:1025C00009F43EC00234B1F7642C772009F44EC000
:1025D0004318642C650C712C7AC0013C69F168F4D5
:1025E000043409F43BC0003C29F7652C6194552064
:1025F00009F41FCF71105DC012C0023C49F0033CCA
:10260000C9F641E0511001C040E0642E619405C05C
:1026100066246394411001C0612C711047C066208C
:1026200009F4E4C0762C652C670CC52D17140CF446
:102630004EC07194C62D4BC0642C4110DBCFF9CE37
:10264000772009F4D1C04C2E4518C3CF7110C0CFEC
:102650006624639441100AC0612C08C07110F3CF46
:1026600041E0511001C040E0642E6194712C7BC0A8
:10267000711009C0511680F7DD24D394D50CC42CF9
:10268000252C772473944C2D50E06D2D70E06A5505
:102690007E4F822D90E08A559E4F0E941725171974
:1026A000622CAA2009F497CF522C22C0662009F48C
:1026B000C0CE8C2F870D992091F0C60D6C2EC817B7
:1026C00018F4982F8C2FC92F7C2E781AC82F0E94AF
:1026D0001307772009F48CC0C1118FC09EC0680E0B
:1026E000862DC61588F78C2FC62DEECF7110F2CE31
:1026F000852D90E0FC01EA55FE4F5F0189559E4F04
:10270000511680F4442D50E04F5F5F4FBF010E948F
:102710001725F501D08366246394650C1F5F5BCF9A
:102720002C2E87CEFC011082F4CF83E093E00E9430
:1027300080035C2E570C852D90E09C012A553E4F5E
:102740005901511638F4F50181915F010E949B03F4
:102750005394F7CF5C2E882D811B0E94F8060E94AF
:102760001307C52D512C662009F463CE560C1614A0
:1027700024F4862D0E941D0D5CCE85ED92E00E9412
:102780008003862D81950E940B0D83ED92E00E94BF
:1027900080034FCEE12FF0E0EA55FE4F108280E03B
:1027A0000E942B0D66EA71E0C7010E94302581E08E
:1027B0004ECE8D3009F43DCE34F4883051F08A305D
:1027C00009F437CE7CCE8B3109F4B2CE8F3709F0C5
:1027D00076CE552059F022242A94250CCC24C3947B
:1027E000C40CD52CA12C4DCF652C3FCF712C21CE04
:1027F000512C112309F4AFCFC12F86EAA82E81E016
:10280000B82E512CF50181915F010E949B035394D6
:102810005C12F8CF772009F49ECF0E94FC065C2E54
:102820002C2F270D3327331F5901852D90E08A1552
:102830009B050CF07ACF8A559E4FFC0180810E9447
:102840009B035394F2CF0F931F93CF93DF93042FE7
:10285000122F2AE046EA51E00E94392446EA51E06C
:10286000FA0101900020E9F7AF01475A5140842F47
:10287000C02FC41B1C16A4F455270C2E000CDD0B16
:1028800066EA71E0CE018A559E4F0E941725612F9E
:10289000110F770BAE0186EA91E00E942925802F67
:1028A000E82FF0E0EA55FE4F1082DF91CF911F91A3
:1028B0000F910895DF92EF92FF920F931F93CF93A2
:1028C000DF93162FEA01D22E682F70E090E080E0AF
:1028D00020E342E00E94231466EA71E08DE292E078
:1028E0000E9430258DE2E82E82E0F82EF701D28298
:1028F000612F70E090E080E020E342E00E9423142A
:1029000066EA71E080E392E00E943025F701D5820B
:10291000BE0190E080E020E3402F0E94231466EA8D
:1029200071E083E392E00E943025E02FF0E0E35D68
:10293000FD4F1682DF91CF911F910F91FF90EF9085
:10294000DF900895AF92BF92CF92DF92EF92FF9205
:102950000F931F93CF93DF9300D01F92CDB7DEB7B5
:1029600019821A821B829E012D5F3F4F590121500F
:102970003109690121503109790110E000E030E0AE
:1029800020E050E040E00E94D5054B8150E002E09D
:102990002AE36A8189810E945A140F900F900F9048
:1029A000DF91CF911F910F91FF90EF90DF90CF902B
:1029B000BF90AF900895FF920F931F93CF93DF9333
:1029C0000E94A2148DE292E00E94CB1160E371E0BC
:1029D00086EA91E00E940D24F12C00E010E0D0E0A6
:1029E000C0E00097E9F0C330D105E1F00E94C823B0
:1029F0008C33910598F5209761F48831910574F531
:102A0000182F60E371E090E080E00E940D24219691
:102A1000E8CFC130D10511F4082FF3CFF82EF1CF54
:102A20002397E1F4212F30E0A0E1BEE00E94F524DD
:102A30002CE3029F80011124012E000C220B330B8A
:102A4000600F711F821F931F6F0D711D811D911DDE
:102A5000DF91CF911F910F91FF90089560E070E09A
:102A6000CB01F6CF0F931F93CF93DF93C82F862F01
:102A7000D22F662329F0442319F0642F0E94930D6E
:102A8000DD2351F181E00E94640D89E993E00E9409
:102A9000780C80E00E94640D29E933E0F90101908F
:102AA0000020E9F79F012A59334080E1821B0E94F0
:102AB000F8068CEE90E00E948003013089F060916E
:102AC00041027091420280914302909144020E941F
:102AD000A2140E947F0C0CC082E10E941D0DEDCF5C
:102AE0008091920383FF28C083EE90E00E948003D0
:102AF00080E00E94510D80E00E94760D8091940349
:102B000081FF36C08FE10E94870D8DEA90E00E9420
:102B1000800380E00E94640D80E00E942B0D80E025
:102B20000E94760D8091940381FF7CC08FE10E940A
:102B3000870D8CE690E07DC080FF14C0982F9670C2
:102B4000963019F48AED90E0D1CF81FF03C081ED7A
:102B500090E0CCCF82FF03C088EC90E0C7CF8FEB32
:102B600090E0C4CF81E00E94510D86EB90E0BECF93
:102B700082FF06C080E20E94870D84EA90E0C7CF02
:102B800084FF20C09DE0C99FF0011124EB5BFD4F45
:102B9000018112812381348140914102509142028E
:102BA0006091430270914402401751076207730716
:102BB00048F481E00E94510D8FE10E942B0D8BE9BA
:102BC00090E0A5CF83FF20C09DE0C99FF0011124B4
:102BD000EB5BFD4F018112812381348140914102E1
:102BE0005091420260914302709144024017510794
:102BF0006207730748F481E00E94510D80E20E9451
:102C00002B0D82E990E083CF80FF06C081E00E9417
:102C1000640D89E890E07BCF81E00E94510D80E84F
:102C200090E075CF82FF2AC080E20E94870D88E67F
:102C300090E00E94800380E00E94640D80E00E948A
:102C40002B0D80E00E94760D80919403982F967052
:102C500009F45FC081E00E94510D88E00E94F806EF
:102C600088E790E00E94800388E00E94F80680E0F8
:102C7000DF91CF911F910F910C94760D84FF1EC0B0
:102C80009DE0C99FF0011124EB5BFD4F0181128192
:102C9000238134814091410250914202609143026C
:102CA00070914402401751076207730738F481E0BE
:102CB0000E94510D8FE10E942B0D3BCF83FF1EC060
:102CC0009DE0C99FF0011124EB5BFD4F0181128152
:102CD000238134814091410250914202609143022C
:102CE00070914402401751076207730738F481E07E
:102CF0000E94510D80E20E942B0D99CF80FF03C0EE
:102D000085FFD8CFF7CF81E00E94510D8CE790E08E
:102D100090CF982F987199F085E00E94F806EDE029
:102D2000CE9FE0011124CB5BDD4F69817A818B81DD
:102D30009C810E94A2140E947F0C86E096CF80FFA7
:102D400050C0D0E085FF31C080E20E942B0D8DE0A5
:102D50008C9FF0018D9FF00D1124EB5BFD4F658181
:102D60007681878190850E94A2140E947F0C87E261
:102D70000E942B0D84E790E00E9480038FE10E9467
:102D80002B0D8DE08C9FF0018D9FF00D1124EB5BDE
:102D9000FD4F61857285838594850E94A2140E94EF
:102DA0007F0C87E20E942B0D62CF8FE10E942B0DDA
:102DB0008DE08C9FF0018D9FF00D1124EB5BFD4F9A
:102DC00065817681878190850E94A2140E947F0C84
:102DD00087E20E942B0D80E790E00E94800380E252
:102DE000CECFDF91CF911F910F9108952F923F92F7
:102DF0004F925F926F927F928F929F92AF92BF920B
:102E0000CF92EF92FF920F931F93CF93DF93D82F20
:102E100061E00E94CB07F12C84E8482E83E0582E15
:102E2000612C712C2DE0D29FC0011124AC014B5BB1
:102E30005D4F5A014A015FEF851A950A22242394B7
:102E4000312C82E391E00E943D11C82F11E0180F50
:102E50004BE464E00E94AB0D612F84E00E94930D6F
:102E6000C12CE12C00E020E248E260E080E30E9417
:102E7000A51001E021E0412F6AE08D2F0E9432155C
:102E800013E01C0F4BE464E082E08C0F0E94AB0D5A
:102E9000112321F0612F8BE00E94930D0E941707F0
:102EA000809192038970C3E039F18AE00E941D0D80
:102EB00081E00E94760D86E491E00E94800381E02B
:102EC0000E94760D8091920381FFC8C289E391E050
:102ED0000E94800381E00E94760D8091920382FF20
:102EE00007C08FE191E00E94800381E00E94760D8F
:102EF00081E00E947311C6E080919203897009F409
:102F000053C086E191E00E94800380E00E94640D3E
:102F100084E191E00E94800380E00E94760D809120
:102F2000920383FFA0C26091860370918703809112
:102F30008803909189030E94A2140E947F0C81E370
:102F40000E94101180E00E94760D8091920381FF13
:102F500093C2609172037091730380917403909196
:102F600075030E94A2140E947F0C84E30E9410113A
:102F700080E00E94760D8091920382FF12C06091E2
:102F800076037091770380917803909179030E9482
:102F9000A2140E947F0C87E30E94101180E00E941F
:102FA000760D80E00E94731180919203897009F47C
:102FB00050C08BE091E00E94800380E00E94640D8D
:102FC00089E091E00E94800380E00E94760D80916C
:102FD000920383FF56C2609195037091960380918E
:102FE0009703909198030E94A2140E947F0C82E3A1
:102FF0000E94101180E00E94760D8091920381FF63
:1030000049C260917E0370917F038091800390910B
:1030100081030E94A2140E947F0C85E30E9410117C
:1030200080E00E94760D8091920382FF12C0609131
:1030300082037091830380918403909185030E94A1
:10304000A2140E947F0C88E30E94101180E00E946D
:10305000760D80919203897009F447C080E00E9448
:10306000731180E091E00E94800380E00E94640D73
:103070008EEF90E00E94800380E00E94760D8091A8
:10308000920383FF0CC20E941B0780E00E94760D12
:10309000CF5F8091920381FF12C260918A03709189
:1030A0008B0380918C0390918D030E94A2140E9447
:1030B0007F0C86E30E94101180E00E94760D8091C3
:1030C000920382FF12C060918E0370918F038091F2
:1030D0009003909191030E94A2140E947F0C89E3B7
:1030E0000E94101180E00E94760D809192038970F9
:1030F00049F00E9413070E94120D69E38DE20E94BD
:10310000EB06CF5FC10F6C2F84E00E94930D60919E
:103110009203617040E081E60E942E1183E292E00A
:103120000E948003609192036695617040E082E6A0
:103130000E942E1180E192E00E9480036091920330
:1031400062FB662760F940E083E60E942E1181E071
:1031500092E00E94800361E06C0F84E00E94930D76
:103160006091920363FB662760F940E084E60E9469
:103170002E118DEE91E00E94800360919203629582
:10318000617040E085E60E942E118AED91E00E9478
:10319000800380919203897061E009F060E040E073
:1031A00086E60E942E1181ED91E00E94800343E0AB
:1031B00064E082E08C0F0E94AB0D63E06C0F84E052
:1031C0000E94930D4091930361E0411160E087E616
:1031D0000E942E118BEC91E00E948003609193037A
:1031E00011E061FB442740F941276695617088E64C
:1031F0000E942E1185EC91E00E9480036091930360
:1032000062FB442740F9412762FB662760F989E6A3
:103210000E942E118FEB91E00E9480036091930336
:1032200063FB442740F9412763FB662760F98AE680
:103230000E942E1189EB91E00E948003609193031C
:1032400064FB442740F94127629561708BE60E9438
:103250002E1183EB91E00E9480036091930365FB44
:10326000442740F9412765FB662760F98CE60E94F8
:103270002E118DEA91E00E9480036091930366FB1A
:10328000442740F9412766FB662760F98DE60E94D6
:103290002E1187EA91E00E94800360919303462FEC
:1032A0004095441F4427441F661F6627661F8EE60D
:1032B0000E942E1181EA91E00E94800343E064E0C5
:1032C00084E08C0F0E94AB0D65E06C0F84E00E94DF
:1032D000930D60919403617040E08FE60E942E117F
:1032E00087E991E00E9480038AE00E94F8066091DD
:1032F00094036695617040E080E70E942E1189E892
:1033000091E00E94800386E00E94F8066091940399
:1033100062FB662760F940E081E70E942E118CE78E
:1033200091E00E94800343E064E086E08C0F0E94FD
:10333000AB0D67E06C0F84E00E94930D60919403E5
:103340006295617040E082E70E942E118EE691E066
:103350000E94800386E00E94F8066091940363FB5C
:10336000662760F940E083E70E942E1181E691E034
:103370000E94800387E00E94F80684E70E941F11E4
:1033800083E591E00E94800381E00E94640DC30107
:10339000B2010E94A2140E947F0C80E00E94640D82
:1033A0004BE464E088E08C0F0E94AB0D0E94830C1C
:1033B00069E084E70E945310C82FE0EDE80FE53480
:1033C00008F08CC00E2E000CFF0BE751F64E0C944B
:1033D000EF24641AC11AEB1AC51A151B281B3B1BD4
:1033E0004E1B611B741B6E1A6E1A6E1A6E1A6E1AC1
:1033F0006E1A6E1A6E1A6E1A6E1A6E1A6E1A6E1A8D
:103400006E1A6E1A6E1A6E1A6E1A6E1A6E1A6E1A7C
:103410006E1A6E1A6E1A6E1A6E1A6E1A6E1A6E1A6C
:103420006E1A6E1A6E1A6E1A6E1A6E1A6E1A6E1A5C
:103430006E1A6E1A871B8E1B9E1BA51BAA1BB21B26
:10344000BE1BC11BC11BC11BC11BC11BC11BC11B9F
:10345000DB1BE11BE61BEB1B041C091C82FF3DCDA3
:103460008CE291E035CD60916E0370916F03809195
:103470007003909171035FCD82FF7DCD0E941B0789
:1034800077CD60917A0370917B0380917C0390915A
:103490007D03A9CD82FFC7CD0E941B07C1CD6091DE
:1034A00086037091870380918803909189030E941D
:1034B000A2140E947F0C83E30E941011E6CD82FFCC
:1034C000FECD0E941B07F8CD89E993E00E94CB1145
:1034D00066EA71E089E993E00E94302580919203C9
:1034E00083FF46C08FEC8C0F823018F0C43609F091
:1034F0003FC08091950390919603A0919703B0915E
:1035000098034091860350918703609188037091DE
:10351000890384179507A607B70720F480589E4AA9
:10352000AE4FBF4F841B950BA60BB70B80936E035A
:1035300090936F03A0937003B093710380916E0317
:1035400090916F03A0917003B091710320E831E571
:1035500041E050E0281B390B4A0B5B0BDA01C90133
:1035600080937A0390937B03A0937C03B0937D03B5
:103570001C160CF055C1C43709F463CCFF24F39436
:1035800060CC8091920383FF13C060918603709199
:10359000870380918803909189030E94DB146093D4
:1035A000860370938703809388039093890396CF53
:1035B00060916E0370916F0380917003909171031D
:1035C0000E94DB1460936E0370936F03809370030B
:1035D0009093710383CF8091920383FF13C0609116
:1035E00095037091960380919703909198030E94A0
:1035F000DB146093950370939603809397039093E5
:1036000098036CCF60917A0370917B0380917C0367
:1036100090917D030E94DB1460937A0370937B0387
:1036200080937C0390937D0359CF609172037091D6
:10363000730380917403909175030E94DB1460936F
:10364000720370937303809374039093750346CF52
:1036500060917E0370917F0380918003909181033C
:103660000E94DB1460937E0370937F03809380033A
:103670009093810333CF60918A0370918B03809183
:103680008C0390918D030E94DB1460938A037093E6
:103690008B0380938C0390938D0320CF60917603EE
:1036A0007091770380917803909179030E94DB14E5
:1036B00060937603709377038093780390937903F4
:1036C0000DCF609182037091830380918403909168
:1036D00085030E94DB1460938203709383038093BD
:1036E000840390938503FACE60918E0370918F03CB
:1036F00080919003909191030E94DB1460938E035C
:1037000070938F038093900390939103E7CE809101
:1037100092038160877F80939203E0CE9091920321
:10372000892F8D7F91FF826080939203982F9670EE
:1037300009F4D4CE83FDD2CE8160EDCF9091920377
:10374000892F8B7F92FF8460EFCF809192038E7FD1
:103750008860E1CF90919203892F8F7E94FF8061E2
:103760008093920380919203887F877F8093920356
:10377000809194038E7F80939403B0CE1092930334
:10378000ADCE4091930359E9580FC101052E01C0F8
:10379000880F0A94EAF7242F30E002C03595279568
:1037A0005A95E2F720FD04C0482B4093930396CE30
:1037B00080954823FACF809194038160817E806454
:1037C000DACF80919403807E8260F9CF8091940358
:1037D000807E8460F4CFF50180818061877F806482
:1037E00080838091410290914202A0914302B09166
:1037F0004402840D951DA61DB71DF401808391839D
:10380000A283B383CFEF6ACEF50180818F7E88607B
:10381000E6CFC301B2010E94DB142B013C015ECE56
:10382000FF20A9F061E08D2FDF91CF911F910F91C3
:10383000FF90EF90CF90BF90AF909F908F907F9030
:103840006F905F904F903F902F900C946C07DF919A
:10385000CF911F910F91FF90EF90CF90BF90AF90BD
:103860009F908F907F906F905F904F903F902F90A0
:103870000895CF92DF92EF92FF926B017C012AE0D4
:103880004DE252E00E9439248DE292E00E94CB1179
:10389000882341F086EA91E0FF90EF90DF90CF908F
:1038A0000C94E623C701B601FF90EF90DF90CF9014
:1038B0000895CF92DF92EF92FF92CF93DF93C09063
:1038C0007801D0907901E0907A01F0907B01C701F6
:1038D000B6010E94A214C701B60120E831E541E01B
:1038E00050E00E94CD24CA01B90120E243E00E94C9
:1038F000231449E050E06DE272E082E392E00E941E
:103900001725CDE2D2E083E0E6EAF1E0DE010190A6
:103910000D928A95E1F784E68B8380E28C83DF91B8
:10392000CF91FF90EF90DF90CF900C947F0CAF92EF
:10393000BF92CF92DF92EF92FF920F931F93CF939C
:10394000DF9381E491E00E943D1147E465E08E5FE2
:103950000E94AB0D182F85E4A82E82E0B82ED0E08F
:10396000C0E09DE0F92EDC2EFC9EF001FD9EF00DE6
:103970001124EB5BFD4F808181FD3CC082FD3AC08C
:1039800084FF12C0F501418152816381748180916D
:10399000410290914202A0914302B09144028417E7
:1039A0009507A607B70730F1FC9EF001FD9EF00DCC
:1039B0001124EB5BFD4F808183FF12C0F501418133
:1039C0005281638174818091410290914202A09161
:1039D0004302B091440284179507A607B70750F039
:1039E000FC9EF001FD9EF00D1124EB5BFD4F8081EC
:1039F00080FF1DC0612F85E00E94930DC12CE12C3A
:103A000001E020E240E060E081E68D0D0E94A5101B
:103A100061E08D2D0E94CB07EE24E394E10E02E0DD
:103A200021E0412F69E08D2D0E9432151E2D219637
:103A3000FDE0AF0EB11CC031D10509F094CF0E945A
:103A4000FC0668E181E00E94930D81E00E94640D14
:103A500084E00E94F80685E591E00E94780C80E001
:103A60000E94640D81E30E942B0D87E392E00E9487
:103A700080030E94591C89E10E94F80683E093E0CC
:103A80000E94800381E00E94640D47E465E0812F7D
:103A90000E94AB0D80E0DF91CF911F910F91FF90BD
:103AA000EF90DF90CF90BF90AF900C94640D4F9249
:103AB0005F926F927F928F929F92AF92BF92CF92BE
:103AC000DF92EF92FF920F931F93CF93DF9300D07B
:103AD00000D0CDB7DEB7912C812C0E94070881E47D
:103AE00091E00E943D11F82E10E0DD24D394D80E11
:103AF0006D2D610F85E00E94930DC12CE12C01E03A
:103B000020E240E060E081E6810F0E94A51061E0C4
:103B1000812F0E94CB0721E040E060E0812F0E94CE
:103B200032151F5F103121F743E068E081E18F0D0E
:103B30000E94AB0D182F682F85E00E94930D81E342
:103B40000E941F118FE892E00E94800382E30E948E
:103B50001F1187E892E00E94800383E30E941F11F7
:103B60008FE792E00E94800384E30E941F1184E7A4
:103B700092E00E94800340902702512C712C612C0E
:103B800081E00E94640D20E343E0C301B2010E9482
:103B9000231486EA91E00E94780C80E00E94640D74
:103BA00083E00E94F80685E30E941F118BE692E0F5
:103BB0000E94800381E00E94640D60912202709156
:103BC000230280912402909125024AE00E94340C45
:103BD00061E0610F85E00E94930D40E061E086E3C3
:103BE0000E942E1180912102882309F453C08FE591
:103BF00092E00E94800383E00E94F80687E30E941F
:103C00001F118DE492E00E94800381E00E94510D1B
:103C100084E492E00E94800380E00E94510D88E3DA
:103C20000E941F118BE392E00E9480030E94830C8C
:103C300068E080E70E945310182F833309F415C100
:103C40000CF0B5C0803309F448CF3CF581E0810F1A
:103C5000823030F08FE9810F803110F40E94F61627
:103C600011160CF43ACF0E94971C0F900F900F90F2
:103C70000F90DF91CF911F910F91FF90EF90DF9008
:103C8000CF90BF90AF909F908F907F906F905F90FC
:103C90004F90089581E592E0ACCF813309F4BEC026
:103CA0008233C1F6E090400200913F0220913E0233
:103CB00047EE57E061E081E00E9461062B013C0184
:103CC00060914102709142028091430290914402BE
:103CD0001C821B821A821982B12CA12CD12CC12CDE
:103CE000F12CE12C8E010F5F1F4F9E012D5F3F4F86
:103CF000AE014C5F5F4F0E94D50549815A8104E0B7
:103D00002EE26B818C810E945A148DE292E00E9417
:103D1000CB1163E671E086EA91E00E940D24B12C9C
:103D2000D12CF12C10E000E0009709F496C003308C
:103D3000110509F076C0E12C00E020E04C2D5B2D50
:103D40006D2D8F2D0E946106640D751D861D971DBA
:103D500020E4A22E22E0B22E3FE3C32E32E0D32E87
:103D60004EE3E42E42E0F42E04E011E023E031E0E3
:103D700042E051E00E94D5050E94BC0C4091040134
:103D800050910501E090400200913F0220913E02D7
:103D900060910301809102010E94610660934102DB
:103DA00070934202809343029093440296CE8633EE
:103DB00009F485C034F5843309F471C0853309F002
:103DC00049CF609122027091230280912402909148
:103DD00025020E94391C6093220270932302809373
:103DE00024029093250220EB34E040E050E00E9452
:103DF000CD24672B682B692B09F05EC00E941F073A
:103E00006CCE873309F463C0883309F023CF8091E7
:103E10002C020E94000780932C02F0CFF401099538
:103E20005CCE0E94C82397FD1CC00115110569F4E2
:103E300080329105B4F4F82E63E671E090E080E002
:103E40000E940D240F5F1F4F6FCF0130110511F439
:103E5000D82EF2CFC82EB92EEFCF0330110509F4BA
:103E60006ACF60E070E0CB016FCF409104015091C8
:103E70000501E12C00E020E0609103018091020146
:103E80000E9461062B013C01609141027091420247
:103E900080914302909144020E94DB1455CF6091BF
:103EA000270270E090E080E00E94391C60932702B6
:103EB00061506E3F08F4A2CF0E9491070ECE81E0C0
:103EC00090912102911180E08093210297CF8091FF
:103ED00026020E94000780932602809300018ECF65
:103EE0001F920F920FB60F9211242F933F938F932F
:103EF0009F93AF93BF938091160390911703A09166
:103F00001803B09119033091150323E0230F2D37C7
:103F100058F50196A11DB11D20931503809316033A
:103F200090931703A0931803B093190380911A0379
:103F300090911B03A0911C03B0911D030196A11D3C
:103F4000B11D80931A0390931B03A0931C03B0939D
:103F50001D03BF91AF919F918F913F912F910F9032
:103F60000FBE0F901F90189526E8230F0296A11DF3
:103F7000B11DD2CF1F920F920FB60F9211242F9323
:103F80003F934F935F936F937F938F939F93AF93E1
:103F9000BF93EF93FF938AEA93E00E941103FF918E
:103FA000EF91BF91AF919F918F917F916F915F91B1
:103FB0004F913F912F910F900FBE0F901F9018952A
:103FC0001F920F920FB60F9211242F938F939F93EE
:103FD000EF93FF93E091BA03F091BB038081E091EE
:103FE000C003F091C10382FD1BC090818091C30387
:103FF0008F5F8F732091C403821741F0E091C30358
:10400000F0E0E655FC4F958F8093C303FF91EF914D
:104010009F918F912F910F900FBE0F901F90189529
:104020008081F4CF1F920F920FB60F9211242F931D
:104030003F934F935F936F937F938F939F93AF9330
:10404000BF93EF93FF938091B900887F803609F486
:104050004AC0F0F5883209F4A7C018F5803109F498
:104060009BC0B8F4882309F4F9C0883009F494C0DF
:10407000FF91EF91BF91AF919F918F917F916F9140
:104080005F914F913F912F910F900FBE0F901F9016
:104090001895883109F488C0803251F78093420323
:1040A00014C0803409F49DC040F48033B9F38833E0
:1040B000F9F68093420385ECB0C0803509F485C0E1
:1040C000883509F496C0883499F60E949311D0CFB0
:1040D000883909F48CC038F5883729F050F48836CF
:1040E00011F0803729F683E08093440310921A027E
:1040F00057C0883809F47BC0803919F0803809F03E
:10410000B7CF80911A02803208F071C0E0911A0294
:1041100081E08E0F80931A028091BB00F0E0E650A0
:10412000FE4F80833DC0803B39F0E0F4803A09F4D3
:1041300079C0883A09F09CCF84E0809344031092C0
:10414000F9011092F801E0911D02F0911E0209950B
:104150008091F80181110FC081E08093F8011092E5
:10416000D80109C0803C09F4A6CF883C09F4A3CF4C
:10417000883B09F07DCFE091F90181E08E0F8093BB
:10418000F901F0E0E852FE4F80818093BB009091EE
:10419000F9018091F80129C080911F038093BB0031
:1041A00085EC8093BC0064CF9091410380914003E3
:1041B000981758F5E091410381E08E0F80934103F9
:1041C000F0E0E05EFC4F8081E9CFE091410381E0C7
:1041D0008E0F809341038091BB00F0E0E05EFC4FC6
:1041E000808390914103809140039817C8F285E83D
:1041F000D8CFE091410381E08E0F809341038091FD
:10420000BB00F0E0E05EFC4F8083809143038111AE
:104210005CCF81E080931E0384EA8093BC001092FF
:10422000440326CF85EC8093BC0010924403809118
:104230001A02803230F4E0911A02F0E0E650FE4FAC
:10424000108260911A0270E0E0911B02F0911C0252
:104250008AEF91E0099510921A020ACF1092420358
:1042600034CFEAEAF3E01382128288EE93E0A0E012
:10427000B0E084839583A683B7832DE031E031835A
:10428000208325EC30E03587248724EC30E0378725
:10429000268720EC30E0318B208B21EC30E0338B13
:1042A000228B22EC30E0358B248B26EC30E0378BF0
:1042B000268B118E128E138E148EE7E4F4E0138297
:1042C000128284839583A683B7838FE191E09183E3
:1042D00080830895789484B5826084BD84B58160BC
:1042E00084BD85B5826085BD85B5816085BD8091C1
:1042F0006E00816080936E00109281008091810039
:104300008260809381008091810081608093810030
:10431000809180008160809380008091B1008460F2
:104320008093B1008091B00081608093B000809153
:104330007A00846080937A0080917A008260809312
:104340007A0080917A00816080937A0080917A006F
:10435000806880937A001092C1000E949107C090FB
:104360002202D0902302E0902402F090250260E027
:1043700079E08DE390E0A70196010E94CD242150C1
:104380003109410951095695479537952795E0918F
:10439000BA03F091BB0382E08083C11481EED8069A
:1043A000E104F10421F02115E0E13E07A8F0E091DD
:1043B000BA03F091BB03108260E874E88EE190E0EC
:1043C000A70196010E94CD242150310941095109CC
:1043D0005695479537952795E091B603F091B70329
:1043E0003083E091B803F091B90320831092C203A7
:1043F000E091BE03F091BF0386E08083E091BC03AF
:10440000F091BD03808180618083E091BC03F091D5
:10441000BD03808188608083E091BC03F091BD037F
:10442000808180688083E091BC03F091BD0380812E
:104430008F7D80838AEF8093B800109220021092C3
:104440001F0210924B0310926D030E94E70381E953
:1044500092E090931E0280931D0282E992E0909375
:104460001C0280931B020E94C40D80E00E942B0D51
:104470008CED92E00E94800361E081E00E94930D48
:1044800035E4E32E32E0F32E10E000E0812C912C95
:104490005401839452E0752ED0E0C0E06DE0662EAA
:1044A0007EE6C72E73E0D72EECE35E2EF701262DB5
:1044B00011922A95E9F760E08C2F0E94CB0760E00B
:1044C0008C2F0E946C0780919903882359F089E909
:1044D00093E0FC0101900020E9F7CF018A59934055
:1044E0004197F8F08BEE92E00E9480034AE0C5010C
:1044F000B4010E94340C8DE291E00E94270CF60179
:10450000252D11922A95E9F765E671E089E993E096
:104510000E9430258FE3870D8093A103C8010E947C
:104520003F07FE01E55DFC4F4491FE01E95EFC4F53
:104530008491882399F090E0880F991FFC01EF5136
:10454000FD4FA591B491FC01E55FFC4F259134919D
:104550008FB7F894EC914E2B4C938FBF80919203C0
:1045600084FF05C161E0872D0E94EB016C9EF00184
:104570006D9EF00D1124EB5BFD4F80818062808386
:1045800021963DE0E30EF11C73948FEF881A980A90
:10459000A80AB80A045C1F4FE2E17E1287CF0E948E
:1045A000571D1DE090E0A92E90E0B92E0E94260F25
:1045B000882309F4BFC00E940708811105C08091BB
:1045C0000601882309F47EC0D0E0C0E085E0D82E43
:1045D000CC2E1C9FF0011D9FF00D1124EB5BFD4FB5
:1045E000808181FD3AC082FD38C084FF11C04181C5
:1045F0005281638174818091410290914202A09125
:104600004302B091440284179507A607B70728F123
:104610001C9FF0011D9FF00D1124EB5BFD4F80816D
:1046200083FF11C041815281638174818091410275
:1046300090914202A0914302B091440284179507E1
:10464000A607B70750F01C9FF0011D9FF00D112425
:10465000EB5BFD4F808180FF30C01C9FF0011D9FF0
:10466000F00D1124EB5BFD4F808186FD04C080912D
:104670000601882309F161E08C2D0E94CB0702E03E
:1046800020E04D2D69E08C2D0E9432151C9FC00149
:104690001D9F900D11249C012B5B3D4F7901F90169
:1046A000608165FB662760F982E08C0D0E94EB015A
:1046B000F70180818F7B8083D3942196C031D1050F
:1046C00009F086CF61E083E40E94930D0E94FC060E
:1046D0000E94591C68E18DE30E94930D40910401F2
:1046E0005091050104E02EE26091030180910201E6
:1046F0000E945A148DE292E00E94780C81E00E94A0
:10470000F8064091400250E002E02AE360913F0247
:1047100080913E020E945A148DE292E00E94780C31
:1047200089E093E00E94800383E093E00E9480038D
:10473000109206018AEA93E00E94F102892B59F057
:104740008AEA93E00E94CF0281568031F0F40E9401
:10475000F6160E94971CA114B10409F427CF0E94F9
:10476000FD02882309F422CF0E9400001FCF60E0E1
:10477000872D0E94EB016C9EF0016D9EF00D1124BF
:10478000EB5BFD4F80818F7DFACE0E94571DE3CFFA
:10479000FC0188279927E89421912032E9F32930F8
:1047A00010F02E30C8F32B3241F02D3239F46894DA
:1047B00004C00E945D24820F911D219120532A3054
:1047C000C0F31EF4909581959F4F08951F93FC01AF
:1047D00099278827BC01E89411911032E9F3193028
:1047E00010F01E30C8F31B3251F01D3249F46894AA
:1047F00006C00E944824610F711D811D911D1191F9
:1048000010531A30B0F33EF49095809570956195F1
:104810007F4F8F4F9F4F1F91089543E554E00E94B3
:1048200012240895FA01A191B081009719F410970C
:10483000E1F0CD01DC01CD010D90002011F4C001AB
:1048400013C0FB012191222319F02015D9F7F3CFD2
:10485000FB012191201519F41E92119606C0222306
:10486000C1F70D900020A1F7D001FA01A193B08308
:104870000895BB272A3051F4992342F4BDE2909564
:104880008095709561957F4F8F4F9F4F0C94662454
:10489000592F482F372F262F660F771F881F991FF4
:1048A000660F771F881F991F620F731F841F951F44
:1048B000660F771F881F991F08957AE0979F902DA4
:1048C000879F802D910D11240895BB27FA01A62FF3
:1048D0006217710581059105330B30FB66F0AA273D
:1048E000660F771F881F991FAA1FA21710F0A21B1F
:1048F00063953850A9F7A05DAA3308F0A95DA1938C
:1049000036F7B111B1931082CA010C948724DC01EF
:10491000FC01672F71917723E1F7329704C07C91F6
:104920006D9370836291AE17BF07C8F30895F9992C
:10493000FECF92BD81BDF89A992780B50895262FA4
:10494000F999FECF1FBA92BD81BD20BD0FB6F89474
:10495000FA9AF99A0FBE01960895991B79E004C05E
:10496000991F961708F0961B881F7A95C9F78095AE
:104970000895AA1BBB1B51E107C0AA1FBB1FA617A6
:10498000B70710F0A61BB70B881F991F5A95A9F7F8
:1049900080959095BC01CD010895A1E21A2EAA1B25
:1049A000BB1BFD010DC0AA1FBB1FEE1FFF1FA217DF
:1049B000B307E407F50720F0A21BB30BE40BF50BDC
:1049C000661F771F881F991F1A9469F76095709565
:1049D000809590959B01AC01BD01CF010895EE0F2C
:1049E000FF1F0590F491E02D0994A29FB001B39FA1
:1049F000C001A39F700D811D1124911DB29F700DE8
:104A0000811D1124911D08950E94F524A59F900DEC
:104A1000B49F900DA49F800D911D11240895B7FFA0
:104A20000C9404250E940425821B930B089568179B
:104A3000790768F4FB01DC01E40FF51FA40FB51F33
:104A400002C002900E9241505040D8F708950C9445
:104A50003725DC0101C06D9341505040E0F70895C7
:104A6000FB01DC0101900D920020E1F70895FB01AC
:104A7000DC0102C001900D9241505040D8F70895DA
:044A8000F894FFCFD8
:104A84005C270101E70701000000000000330393E5
:104A940002C002A003F102CF02E302000000006D95
:104AA4000540059C0516053905260517050D0A0060
:104AB4003A002D20456469742D54696D6572202D6A
:104AC400002D20517569636B54696D657220312E18
:104AD4003036202D004C6F6F7020737461727465D2
:0E4AE400642E2E2E0044656661756C742D00E4
:00000001FF
