:100000000C94C1010C94E9010C94E9010C94E901F0
:100010000C94E9010C94E9010C94E9010C94E901B8
:100020000C94E9010C94E9010C94E9010C94E901A8
:100030000C94E9010C94E9010C94E9010C94E90198
:100040000C946F1F0C94E9010C94DF1F0C94B91FE2
:100050000C94E9010C94E9010C94E9010C94E90178
:100060000C9411200C94E901204F4E004F4646009D
:10007000202D2000202D20004E2F41004E2F41002A
:1000800064697361626C65640020206175746F201F
:10009000200074656D702E204F4E0074656D702EBB
:1000A0004F4646007065726D2E204F4E007065728F
:1000B0006D2E4F46460044697361626C6564004969
:1000C0006E74657276616C00496E7465724F464657
:1000D00000496E7465722D4F4E00496E744F6E4F1D
:1000E0006666002020323468202020007C20007CBE
:1000F000002020204E4120202020282029003A00E6
:1001000020204F6666536574003A00204F6666549F
:10011000696D65003A0020204F6E54696D650020BE
:100120007768696C65204F464620200020202020FB
:100130004E2F4120202020200020207768696C6508
:10014000204F4E202000202020204D61696E20206D
:1001500020200053657454656D7054696D653A20B4
:100160000054656D706F72617279204F4E00546556
:100170006D706F72617279204F4646005065726DE6
:10018000616E656E74204F4E005065726D616E65D4
:100190006E74204F4646004175746F6D61746963DB
:1001A0000053617420200046726920200054687555
:1001B0002020005765642020005475652020004DE4
:1001C0006F6E20200053756E202000414C4C202083
:1001D0000044697361626C656400496E766572748F
:1001E000656420506F727420202020200032346813
:1001F0002D4461792054696D6572202020202020D3
:10020000007768696C654F46462054696D657200D9
:100210007768696C654F4E2054696D6572202020A7
:10022000202000496E74657276616C2054696D659A
:1002300072202020202000204020004B6579436F51
:100240006C6F7200436F6C6F722020200044696DE8
:1002500000426F6F74345465726D696E616C004258
:100260006F6F74344D6F644255530053706565640D
:10027000203D200041646472657373203D2000546A
:10028000696D6520202000446174652020200052A3
:1002900065426F6F742020200048003B001B5B000C
:1002A0006D001B5B001B5B316D001B5B32326D0010
:1002B00043001B5B001B37001B38001B5B376D00C6
:1002C0001B5B346D001B5B32346D003A002900204B
:1002D0007C200044001B5B003E3E20001B5B324A3A
:1002E0000000000000240027002A00556E646566A7
:1002F000696E656420506F72742F54696D65722049
:100300003A20001B5B32376D002000000000002502
:100310000028002B00040404040404040402020264
:100320000202020303030303030102040810204036
:1003300080010204081020010204081020000000BF
:100340000800020100000304070000000000000094
:10035000002020202053656C656374206B65792C28
:10036000206F7220456E74657228666F7220726508
:100370007475726E292E2E2E000A0042001B5B003F
:10038000302111241FBECFEFD8E0DEBFCDBF24E067
:10039000ACE8B1E001C01D92A337B207E1F711E06C
:1003A000A0E0B1E0E2E8FAE402C005900D92AC38BA
:1003B000B107D9F711E0C1ECD1E004C02197FE01EB
:1003C0000E94EE24C03CD107C9F70E9469210C9419
:1003D0003F250C94000090E0FC01E35CFC4F24916D
:1003E000FC01E75DFC4F3491FC01EB5EFC4FE491B6
:1003F000EE23C9F0222339F0233001F1A8F4213093
:1004000019F1223029F1F0E0EE0FFF1FE55FFC4FFC
:10041000A591B4918FB7F894EC91611126C03095F5
:100420003E233C938FBF08952730A9F02830C9F0B0
:10043000243049F7809180008F7D03C08091800037
:100440008F7780938000DFCF84B58F7784BDDBCF3B
:1004500084B58F7DFBCF8091B0008F778093B00003
:10046000D2CF8091B0008F7DF9CF3E2BDACF3FB74E
:10047000F8948091380390913903A0913A03B09198
:100480003B0326B5A89B05C02F3F19F00196A11D7F
:10049000B11D3FBFBA2FA92F982F8827BC01CD01CE
:1004A000620F711D811D911D42E0660F771F881F2D
:1004B000991F4A95D1F708958F929F92AF92BF925C
:1004C000CF92DF92EF92FF920E9437024B015C01C4
:1004D0008CE0C82ED12CE12CF12C0E943702681937
:1004E00079098A099B09683E734081059105A8F343
:1004F00021E0C21AD108E108F10888EE880E83E0F5
:10050000981EA11CB11CC114D104E104F10429F707
:10051000FF90EF90DF90CF90BF90AF909F908F9023
:10052000089508950895AF92BF92CF92DF92EF920F
:10053000FF920F931F93CF93DF936C017B018B018D
:10054000040F151FEB015E01AE18BF08C017D107DD
:1005500059F06991D601ED91FC910190F081E02D67
:10056000C6010995892B79F7C501DF91CF911F91BC
:100570000F91FF90EF90DF90CF90BF90AF900895D4
:10058000FC01538D448D252F30E0842F90E0821B99
:10059000930B541710F0CF96089501970895FC011E
:1005A000918D828D981761F0A28DAE0FBF2FB11D76
:1005B0005D968C91928D9F5F9F73928F90E00895CE
:1005C0008FEF9FEF0895FC01918D828D981731F088
:1005D000828DE80FF11D858D90E008958FEF9FEFDC
:1005E0000895FC01918D228D892F90E0805C9F4FB2
:1005F000821B91098F739927089588EC93E00E94DC
:10060000F10221E0892B09F420E0822F089580E097
:1006100090E0892B29F00E94FD0281110C940000CA
:100620000895FC01A48DA80FB92FB11DA35ABF4F87
:100630002C91848D90E001968F739927848FA689E1
:10064000B7892C93A089B1898C91837080648C9335
:10065000938D848D981306C00288F389E02D8081E4
:100660008F7D80830895EF92FF920F931F93CF9316
:10067000DF93EC0181E0888F9B8D8C8D98131AC0DD
:10068000E889F989808185FF15C09FB7F894EE89C4
:10069000FF896083E889F989808183708064808321
:1006A0009FBF81E090E0DF91CF911F910F91FF906C
:1006B000EF900895F62E0B8D10E00F5F1F4F0F7314
:1006C0001127E02E8C8D8E110CC00FB607FCFACFCF
:1006D000E889F989808185FFF5CFCE010E94110359
:1006E000F1CFEB8DEC0FFD2FF11DE35AFF4FF082A0
:1006F0009FB7F8940B8FEA89FB8980818062CFCF06
:100700000F931F93CF93DF938C01D0E0C0E0F801EB
:10071000EC0FFD1F6491662341F088EC93E00E948A
:100720003303892B11F02196F2CFCE01DF91CF91C7
:100730001F910F910895682F88EC93E00C94330378
:10074000CF93DF93EC01888D8823B9F0AA89BB8908
:10075000E889F9898C9185FD03C0808186FD0DC0F3
:100760000FB607FCF7CF8C9185FFF2CF808185FF14
:10077000EDCFCE010E941103E9CFDF91CF91089513
:1007800020911602260F3327331F21323105ECF456
:1007900020916203FC0190E080E0243069F082E067
:1007A0000895A09116022191AC014A505E4FA40F0A
:1007B000B52FB11D2C930196861798F380911602E0
:1007C000680F6093160280E0089581E0089510920A
:1007D000620381E08093610310923C0361E082E157
:1007E0000E94EB0161E083E10E94EB01E9EBF0E0A4
:1007F00080818E7F808380818D7F808388E4809359
:10080000B80085E48093BC000895CF93DF9391E016
:100810009093F5018823B9F0C091B800D091BA0047
:100820008091BC008A7B8093BC0060E082E10E94E2
:10083000EB0160E083E10E94EB010E94E703D093AB
:10084000BA00C093B800DF91CF9108958F929F9224
:10085000AF92BF92CF92DF92EF92FF920F931F93CE
:10086000CF93DF93D0918B03D13208F0D7C0182FEC
:10087000C0918A030E9437026B017C018091620360
:1008800081116BC082E080936203109361038FEF4C
:100890008093600310925F03D0935E03AAE6B3E0F7
:1008A000EEE3F3E080E0D81391C010923D03809115
:1008B0003D03CC0FC82BC0933D0380913C03813096
:1008C00009F088C010923C030E9437026B017C0142
:1008D00080913D038093BB008091640390916503F8
:1008E000A0916603B0916703892B8A2B8B2BA1F013
:1008F0000E94370200916403109165032091660302
:10090000309167036C197D098E099F090617170737
:100910002807390708F442C08091BC0083FDD8CF76
:1009200085EC8093BC000E9437026B017C018091B2
:100930006203823009F450C0809160038F3F09F454
:100940006FC080916003803209F46CC080916003B5
:10095000803309F469C084E026C0809164039091DB
:100960006503A0916603B0916703892B8A2B8B2BBB
:1009700009F484CF0E94370280906403909065034D
:10098000A0906603B09067036C197D098E099F09DA
:1009900086169706A806B90608F070CF8091630303
:1009A0000E94050485E01092690310928B03109257
:1009B0006803DF91CF911F910F91FF90EF90DF902F
:1009C000CF90BF90AF909F908F9008959D919193FD
:1009D0008F5F69CF85EEA5CF809164039091650309
:1009E000A0916603B0916703892B8A2B8B2B09F4A6
:1009F0009ECF0E94370200916403109165032091FD
:100A00006603309167036C197D098E099F090617EB
:100A100017072807390708F08ACFC0CF81E0C3CF76
:100A200080E0C1CF82E0BFCF83E0BDCF0895E091E9
:100A30003E0280913D02E81730F4F0E0EB52FE4FA9
:100A4000808190E008958FEF9FEF089590913E028E
:100A500080913D022FEF3FEF981748F4E92FF0E027
:100A6000EB52FE4F208130E09F5F90933E02C90120
:100A7000089580913D0290913E02891B990B089543
:100A8000CF92DF92EF92FF920F931F93CF93DF935A
:100A90007C01CB018A0120916803222389F0EB01BC
:100AA0006B01C40ED51ECC15DD0569F06991D70127
:100AB000ED91FC910190F081E02DC7010995F3CFF4
:100AC000642F0E94C003C801DF91CF911F910F9145
:100AD000FF90EF90DF90CF900895CF93DF931F9218
:100AE000CDB7DEB76983209168032223F9F0209106
:100AF0008B03203258F021E030E0FC013383228365
:100B000090E080E00F90DF91CF910895809169038C
:100B1000E82FF0E0E659FC4F998190838F5F809336
:100B2000690380938B0381E090E0ECCF61E0CE011C
:100B300001960E94C003F7CF90E080E008959C01E9
:100B400064E670E00E94B824FC01C9018370992713
:100B5000892B11F4309779F4C90160E971E00E94A2
:100B6000B8249C01EF2B11F4892B19F481E0232B7D
:100B700009F080E0089581E00895863029F034F48A
:100B8000823051F0843031F48EE108958930E1F300
:100B90008B30D1F38FE10895CB010E949F0588230C
:100BA00011F08DE108958CE108952F923F924F92BC
:100BB0005F926F927F928F929F92AF92BF92CF92ED
:100BC000DF92EF92FF920F931F93CF93DF932B014E
:100BD0003C011A014901E80187EE97E09983888377
:100BE00040E853E361EE71E044155505660577056D
:100BF000B0F488819981019699838883441A550AB3
:100C0000660A770A0E949F0540E450E761E370E0BE
:100C10008111EACF40EC5EE160E370E0E5CF81E076
:100C2000F401808360E87EED88E290E0641575054C
:100C300086059705B0F4F40120812F5F2083461AC2
:100C4000570A680A790A68817981822F0E94BD0556
:100C5000A82FB0E020E831E541E050E00E940325F4
:100C6000E5CFC301B20120E831E541E050E00E9448
:100C7000CC242F5FF101208320E13EE040E050E0F2
:100C80000E94CC24F70120832CE330E040E050E0C8
:100C90000E94CC24F6012083F5016083DF91CF917F
:100CA0001F910F91FF90EF90DF90CF90BF90AF908A
:100CB0009F908F907F906F905F904F903F902F907C
:100CC00008954F925F926F927F928F929F92AF9210
:100CD000BF92CF92DF92EF92FF920F93CF93DF9369
:100CE000C82FC62E3A01D22F97EE492E97E0592EE3
:100CF000812C912C540146145704C0F4C2010E9467
:100D00009F0581110CC020E8821A2CEC920A2EE17A
:100D1000A20A2EEFB20A4FEF441A540AECCF3BE777
:100D2000931A3DE1A30A3EEFB30AF5CF442443945E
:100D3000512CD12C4C145D04A4F4B301842D0E94D9
:100D4000BD05A82FB0E020E831E541E050E00E9469
:100D50000325860E971EA81EB91E5FEF451A550A79
:100D6000E9CF202F30E0ACE3B0E00E94F4249B01F7
:100D7000AC012E0D311D411D511D69017A012D2F30
:100D800030E0A0E1BEE00E94F424C60ED71EE81EAB
:100D9000F91E4C2F4150550BDA0120E831E541E0B6
:100DA00050E00E940E256C0D7D1D8E1D9F1D680D4F
:100DB000791D8A1D9B1DDF91CF910F91FF90EF90C0
:100DC000DF90CF90BF90AF909F908F907F906F906B
:100DD0005F904F900895CF93DF93D82FC62FC150C7
:100DE00020F08D2F0E949B03FACFDF91CF910895C1
:100DF000682F80E20C94EB068BEB92E00C9480035E
:100E0000813671F02AE5853261F0882349F021E0CE
:100E1000280F93EE980F983020F08955883008F00D
:100E20002EE1822F089588EB92E00C94800385EBED
:100E300092E00C94800381EF90E00C948003FF9289
:100E40000F931F93CF93DF930FE312E0C5EED3E030
:100E5000F801F1908F01CE010E949624F81621F03E
:100E60006F2DCE010E949E242196C13FF3E0DF0743
:100E700079F7DF91CF911F910F91FF900895AF9275
:100E8000BF92DF92EF92FF920F931F93CF93DF9366
:100E90005C010CE813E0D0E0C0E0F801D1908F01D4
:100EA0007501EC0EFD1EC7010E949624D81621F094
:100EB0006D2DC7010E949E242196CC33D10569F780
:100EC0008CE893E0DF91CF911F910F91FF90EF900D
:100ED000DF90BF90AF9008952DE0829FF001112424
:100EE000ED59FD4F2091B203908121FB91F922FB36
:100EF00092F924FB94F923FB93F925FB95F926FB42
:100F000096F920FB90F99083662351F0277C2F7B84
:100F10002093B2032CE3829FC00111240C943F075D
:100F200008950F931F93CF93DF930FE312E0C5EE65
:100F3000D3E0CE010E949624F80181938F0121967F
:100F4000C13FF3E0DF07A9F76091400270914102D1
:100F5000809142029091430220EB34E040E050E067
:100F60000E94CC24672B682B692B61F080E895E206
:100F7000A0E0B0E08093400290934102A09342022F
:100F8000B09343028091440280930001DF91CF919E
:100F90001F910F910895EF92FF920F931F93CF939C
:100FA000DF93C82FD62F2CE3829FC00111240CE8B9
:100FB00013E0FC01EC58F3407F01C701800F911F43
:100FC0000E949624F80181938F01F3E0083C1F07EB
:100FD000A1F7DD23A9F02DE0C29FF0011124ED5906
:100FE000FD4F90818091B20394FB84F993FB83F9C8
:100FF00095FB85F996FB86F990FB80F98093B20307
:10100000DF91CF911F910F91FF90EF9008952F9254
:101010003F924F925F926F927F928F929F92AF9288
:10102000BF92CF92DF92EF92FF920F931F93CF93D5
:10103000DF93CDB7DEB76B970FB6F894DEBF0FBE68
:10104000CDBF23E632E03F8B2E8B212C1D8A10E092
:1010500061E0822D0E94CB073090B00340905F0288
:1010600050906002609061027090620249865A86D8
:101070006B867C86832D897009F427C18091A40337
:101080009091A503A091A603B091A7036090980347
:101090007090990380909A0390909B03698A7A8A52
:1010A0008B8A9C8A80908C0390908D03A0908E03F5
:1010B000B0908F038D869E86AF86B88A89889A887D
:1010C000AB88BC88CD84DE84EF84F8888C0C9D1CB2
:1010D000AE1CBF1CC12CD12C760181149104A1043B
:1010E000B10481F049845A846B847C84481A590A7B
:1010F0006A0A7B0AC301B201A50194010E94CC24B3
:101100006B017C0149845A846B847C844C185D0893
:101110006E087F0849825A826B827C824D845E848D
:101120006F84788829813A814B815C81420E531EFD
:10113000641E751E280D391D4A1D5B1D2D833E83BF
:101140004F8358878D849E84AF84B888C814D9048F
:10115000EA04FB0408F057C15301420149805A8058
:101160006B807C8081E0AE89BF8915964D925D923F
:101170006D927C921897FD0181869286A386B48633
:10118000882309F411C231FEA0C14090A8035090F9
:10119000A9036090AA037090AB034D865E866F86AC
:1011A000788AD301C20149805A806B807C80840D8B
:1011B000951DA61DB71D49845A846B847C848415B3
:1011C0009505A605B70508F064C1409090035090BE
:1011D00091036090920370909303498A5A8A6B8AB4
:1011E0007C8A40909C0350909D0360909E03709079
:1011F0009F0329893A894B895C89420E531E641EDC
:10120000751E60E070E0CB0141145104610471046B
:1012100071F0C701B6012D853E854F855889621B47
:10122000730B840B950BA30192010E94CC24C61A68
:10123000D70AE80AF90A29893A894B895C892C0D71
:101240003D1D4E1D5F1D288F398F4A8F5B8F298969
:101250003A894B895C89621773078407950708F4FC
:10126000D8C04C0C5D1C6E1C7F1CC88CD98CEA8CC1
:10127000FB8C488E598E6A8E7B8E80E0088D198D8E
:101280002A8D3B8D49805A806B807C80040D151D12
:10129000261D371DC40CD51CE61CF71CAE89BF8962
:1012A0001596CD92DD92ED92FC921897882309F461
:1012B000D4C0081519052A053B0508F0ACC0FD018E
:1012C000018712872387348711E069857A858B85AA
:1012D0009C8520E83AE349E050E00E94CC2420E8D5
:1012E00031E541E050E00E94CC24672B682B692B4C
:1012F00009F0A7C22F5F3091B103832F90E002C0A5
:10130000959587952A95E2F780FD02C0311110E08E
:101310008091B203EE89FF8941815281638174819A
:1013200081FD93C282FD8FC284FF0AC049845A8422
:101330006B847C84441655066606770608F485C2DD
:1013400083FF0AC069847A848B849C846416750642
:101350008606970608F477C280FF77C234FE02C083
:1013600091E0192785FB992790F9911739F010FB27
:1013700085F980648093B20321E02D8B41155105DE
:1013800061057105C9F049845A846B847C844416D4
:1013900055066606770680F0AE89BF8911961D92C4
:1013A0001D921D921C9214978091B203877E8064D7
:1013B0008093B203B1E0BD8B60E0822D0E946C0788
:1013C0002394EE89FF893D96FF8BEE8BF0E12F127F
:1013D0003FCE8D896B960FB6F894DEBF0FBECDBFA2
:1013E000DF91CF911F910F91FF90EF90DF90CF9001
:1013F000BF90AF909F908F907F906F905F904F9035
:101400003F902F9008958D809E80AF80B88480E0BB
:10141000AACE81E033CF32FE57CF8091AC039091BA
:10142000AD03A091AE03B091AF03892B8A2B8B2B18
:1014300009F04ACF8091940390919503A09196036F
:10144000B0919703880D991DAA1DBB1DEE89FF89D8
:1014500081879287A387B48737CF081519052A0596
:101460003B0548F4AE89BF8919960D931D932D93C2
:101470003C931C977DC032FE13C08091AC039091C9
:10148000AD03A091AE03B091AF03880D991DAA1DC5
:10149000BB1DEE89FF8981879287A387B48768C0C7
:1014A0008D849E84AF84B8884D805E806F80788400
:1014B000840C951CA61CB71CAE89BF8919968D9209
:1014C0009D92AD92BC921C9753C032FEFDCE80918E
:1014D000AC039091AD03A091AE03B091AF03880E21
:1014E000991EAA1EBB1EEE89FF8981869286A3865D
:1014F000B486C0909403D0909503E0909603F0904A
:1015000097032091A0033091A1034091A203509131
:10151000A3032C0D3D1D4E1D5F1D211531054105F9
:101520005105A9F089889A88AB88BC88F1E08F1AA8
:101530009108A108B10824013501481A590A6A0A1C
:101540007B0AC301B2010E94CC249B01AC012C1583
:101550003D054E055F0570F469807A808B809C8024
:10156000AE89BF8915966D927D928D929C92189747
:1015700010E0ABCEB1E0CB1AD108E108F108498008
:101580005A806B807C80C40CD51CE61CF71CC21AE8
:10159000D30AE40AF50AAE89BF891596CD92DD9289
:1015A000ED92FC921897E4CF32FEECC08090AC0331
:1015B0009090AD03A090AE03B090AF03888E998E4B
:1015C000AA8EBB8ED501C401840D951DA61DB71D25
:1015D000A984BA84CB84DC848A159B05AC05BD053F
:1015E00008F057CFC0909403D0909503E0909603F5
:1015F000F0909703C982DA82EB82FC8289849A8414
:10160000AB84BC8484189508A608B708C090A003D2
:10161000D090A103E090A203F090A30329813A8126
:101620004B815C81C20ED31EE41EF51E40E050E0EB
:10163000BA01C114D104E104F10481F0C501B4017F
:10164000288D398D4A8D5B8D621B730B840B950B36
:10165000A70196010E94CC24AB01BC01D501C401B5
:10166000841B950BA60BB70B09811A812B813C813A
:10167000080F191F2A1F3B1F89809A80AB80BC80EE
:10168000481559056A057B0538F1C80ED91EEA1EB2
:10169000FB1ED901C8019701860140E0040D151D0C
:1016A000261D371D840D951DA61DB71DEE89FF89CA
:1016B00085839683A783B0874D805E806F80788412
:1016C0004423D1F1041515052605370538F40187A3
:1016D000128723873487F8CD41E0E0CF4D805E80CC
:1016E0006F807884AE89BF8919964D925D926D9214
:1016F0007C921C9731FEE8CD8091A8039091A903BC
:10170000A091AA03B091AB03892B8A2B8B2B09F0F4
:10171000DBCD8090900390909103A0909203B090C5
:101720009303840C951CA61CB71CEE89FF89818647
:101730009286A386B486C8CD0415150526053705FF
:1017400008F490CE31FE09C08090A8039090A903C0
:10175000A090AA03B090AB03A7CE888C998CAA8CDA
:10176000BB8C4D845E846F847888840C951CA61C89
:10177000B71CCD80DE80EF80F8848C0C9D1CAE1CE5
:10178000BF1C9ACE31FEF4CE8090A8039090A9039E
:10179000A090AA03B090AB03898A9A8AAB8ABC8ACC
:1017A0008D809E80AF80B884C988DA88EB88FC88F9
:1017B0008C0C9D1CAE1CBF1CAE89BF8919968D92E6
:1017C0009D92AD92BC921C97C0909003D0909103D3
:1017D000E0909203F090930320919C0330919D033D
:1017E00040919E0350919F032C0D3D1D4E1D5F1D8A
:1017F0002115310541055105C1F06D857E858F8527
:101800009889615071098109910969837A838B8371
:101810009C8389889A88AB88BC88681979098A0969
:101820009B090E94CC249B01AC012C153D054E0563
:101830005F0508F49DCE61E0C61AD108E108F10801
:10184000A2CE2E5F58CD11E089CD10E087CDFC01EE
:1018500001900020E9F73197AF01481B590BBC01FB
:1018600088EC93E00C9493028F929F92AF92BF9278
:101870000F931F93CF93DF93CDB7DEB7A1970FB62A
:10188000F894DEBF0FBECDBF19A2423008F44AE083
:101890008E010F5D1F4F842E912CB12CA12CA50120
:1018A00094010E94CC24E62FB901CA01EA30F4F475
:1018B000E05DD801EE938D01232B242B252B79F7A6
:1018C00090E080E0109719F0CD010E94270CA196BE
:1018D0000FB6F894DEBF0FBECDBFDF91CF911F9141
:1018E0000F91BF90AF909F908F900895E95CE1CFEA
:1018F000009711F00C94270C90E080E008958BE4A1
:1019000092E00C94780C89E793E00E9480038DE2CA
:1019100091E00E94270C81E593E00C948003EF9204
:10192000FF920F931F93CF93C62F21E0209368035C
:1019300028E620938A031092690310928B038C018E
:101940007C01E60EF11CE016F10641F0F801619110
:101950008F0185E694E00E946D05F5CF81E00E943D
:101960002604811107C08C2FCF911F910F91FF90FA
:10197000EF9008958FEFF8CFCF931092C40180912C
:101980005E02CAE06C2F0E94AC248295807F980F83
:101990009093C50180915D020E94AC248295807F66
:1019A000980F9093C60180915C020E94AC248295AE
:1019B000807F980F9093C70164E084EC91E00E94CF
:1019C0008F0C181634F584E08093C40180910201D5
:1019D0006C2F0E94AC248295807F980F9093C50154
:1019E000809103010E94AC248295807F980F909390
:1019F000C60180910401805D0E94AC248295807FA5
:101A0000980F9093C70164E084EC91E0CF910C941F
:101A10008F0CCF910895682F70E090E080E04AE04D
:101A20000C94340C8DE793E00E94800381E00E94C7
:101A30000B0D8BE793E00C948003CF93C82F82EBC0
:101A400092E00E9480038C2F0E940B0D80EB92E0AD
:101A5000CF910C948003CF93C82F811101C0C7E2AE
:101A600080918C0181110CC082EE8C0F883030F097
:101A700086EA8C0F883010F0C73211F4C093010150
:101A800082EA92E00E9480038C2F0E940B0D80EA74
:101A900092E00E948003C73211F0CF910895C1E314
:101AA000DFCFCF93C82F10928C0180E00E94640D8D
:101AB00080910101CC2329F081E080938C018091F9
:101AC0000001CF910C942B0DCF93C82F80918C01E6
:101AD000882319F080E00E94510D85EA92E0C1113F
:101AE00002C08AEA92E0CF910C948003CF93C82F72
:101AF00080E00E94640D8FEC92E00E948003CC2372
:101B000021F081E0CF910C94640DCF910895CF9393
:101B1000C82F80E00E94510D8C2F0E942B0D81E078
:101B2000CF910C94640DCF93DF93C82FD62F8DE9FE
:101B300092E00E9480038D2F0E940B0D8BE992E0B2
:101B40000E9480038C2F0E940B0D89E992E0DF91A7
:101B5000CF910C9480031F93CF93DF93C82F862FD0
:101B6000D42FCC2341F0662331F011E01C0F6C2FF1
:101B70000E94930DC12F6D2F8DE20E94EB068C2FDA
:101B8000DF91CF911F9108958F929F92AF92BF9254
:101B9000EF920F931F93CF9361E087E091E00E9453
:101BA0008F0C1092A2010E9437024B015C018091C0
:101BB0006203811165C081E08093620380936103B9
:101BC0009FEF9093600310925F0396E090935E0303
:101BD00080933D0380913D03806D80933D03809110
:101BE0003C03813009F08BC010923C030E94370205
:101BF0004B015C0180913D038093BB0080916403A5
:101C000090916503A0916603B0916703892B8A2B9D
:101C10008B2BA1F00E9437020091640310916503A1
:101C20002091660330916703681979098A099B0935
:101C3000061717072807390708F443C08091BC002E
:101C400083FDD8CF85EC8093BC000E9437024B0106
:101C50005C0180916203813009F453C080915F037D
:101C600007E0873010F400915F03EEE3F3E0A5EDA9
:101C7000B1E080E0801751F191919D938F5FFACF91
:101C80008091640390916503A0916603B09167030E
:101C9000892B8A2B8B2B09F48ACF0E943702009163
:101CA00064031091650320916603309167036819FE
:101CB00079098A099B09061717072807390708F0C9
:101CC00076CF809163030E94050400E010923E02EB
:101CD00000933D0282EAA82E81E0B82EC0E08091F8
:101CE0003E02081781F1C73071F185E694E00E9449
:101CF0002605F50181935F01CF5F1082F0CF85EE5D
:101D0000A2CF8091640390916503A0916603B09186
:101D10006703892B8A2B8B2B09F49BCF0E943702F8
:101D2000009164031091650320916603309167036D
:101D3000681979098A099B090617170728073907BF
:101D400008F087CFBECF81E00E94260481117AC0BF
:101D5000C73009F077C08091A201282F22952F70FB
:101D60009AE08F70E82E299FE00C1124E0925E0229
:101D70000091A301802F82958F700F70899F000DB5
:101D8000112400935D022091A401822F82958F700F
:101D90002F70899F200D112420935C028091A60151
:101DA000382F32953F708F70399F800D11248093AA
:101DB00002016091A701362F32953F706F70399FF5
:101DC000600D1124609303014091A801342F3295D6
:101DD0003F704F70399F400D112450E04053584FD1
:101DE000473EF7E05F075CF1509305014093040123
:101DF00080905F0290906002A0906102B0906202B9
:101E000040910401509105010E94610660935F02B8
:101E1000709360028093610290936202A501940125
:101E2000261B370B480B590BCA01B901CF911F91E3
:101E30000F91EF90BF90AF909F908F90089547EED5
:101E400057E0D2CF60E070E0CB01F0CF0F931F934B
:101E50008FB7F89440913403509135036091360365
:101E6000709137038FBF00919E0110919F012091C7
:101E7000A0013091A101DB01CA014017510762079F
:101E8000730718F40197A109B109801B910BA20BEC
:101E9000B30B00919A0110919B0120919C0130910C
:101EA0009D01800F911FA21FB31F883E23E0920760
:101EB000A105B10508F4F5C040939E0150939F0120
:101EC0006093A0017093A101885E9340A109B109BC
:101ED00080939A0190939B01A0939C01B0939D01E4
:101EE0008091960190919701A0919801B0919901EC
:101EF0000196A11DB11D8093960190939701A09327
:101F00009801B0939901809195018F5F809395011D
:101F10008C3339F480919401109295018F5F8093F6
:101F20009401809194018C3339F480919301109243
:101F300094018F5F8093930180919301883159F4CC
:101F4000109293018091910190919201019690934A
:101F500092018093910180915E028F5F80935E0277
:101F600040915F0250916002609161027091620243
:101F70004F5F5F4F6F4F7F4F40935F025093600200
:101F800060936102709362028C3339F480915D0238
:101F900010925E028F5F80935D0280915D028C33B0
:101FA00039F480915C0210925D028F5F80935C0235
:101FB00080915C02883161F510925C02909102017F
:101FC0009F5F9093020180910301823009F051C01C
:101FD0009D3170F080910401909105010E949F0550
:101FE000811106C081E08093020183E080930301A8
:101FF000809103018D3061F481E080930301809131
:1020000004019091050101969093050180930401CC
:1020100080918D0190918E01A0918F01B0919001DE
:10202000892B8A2B8B2B71F40E94C40D80E891E5DB
:10203000A1E0B0E080938D0190938E01A0938F0179
:10204000B093900180918D0190918E01A0918F01AC
:10205000B09190010197A109B10980938D019093EE
:102060008E01A0938F01B093900181E01F910F9199
:102070000895863019F020F4843031F42FE105C042
:102080008930E1F38B30D1F320E2022E000C330BC8
:102090009217130609F0ACCF91E0909302018F5F85
:1020A000A5CF80E0E3CFCF92DF92EF92FF920F9324
:1020B0001F93CF93DF93CFEFDCE3E62EF12C082FB5
:1020C00010E068018FE1C81AD108DD23A1F10E9458
:1020D000260F8111D15088EC93E00E94F102892BE8
:1020E000A1F388EC93E00E94CF02C82F803304F163
:1020F000082E000C990B9C0120533109E216F306BF
:10210000D4F4C1369CF008171907ACF48C159D0562
:1021100094F0CB3179F0CB3271F0CD3261F0DCE369
:102120008C2F8D7F8C3339F0CFEFD1CFC13474F742
:10213000CD3079F7C0E08C2FDF91CF911F910F91B7
:10214000FF90EF90DF90CF900895CF92EF920F9392
:102150001F93CF93DF93182FD42FC22F662319F02C
:1021600081E00E94F806EE2011F0C1100DC080E061
:102170000E94510D80914A028823C9F10E94870D67
:1021800080EC92E00E948003DD2319F08D2F0E94E5
:102190009B03812F0E949B038DEC92E00E948003A1
:1021A000002321F08BEC92E00E94800380E00E94EB
:1021B000640D85EC92E00E948003002319F081E019
:1021C0000E94F806CC2319F08C2F0E949B0380E01C
:1021D0000E942B0DEE20D9F0C1101BC081E0DF91D1
:1021E000CF911F910F91EF90CF900C94640D80E0F0
:1021F0000E94640D80E00E942B0DC2CF81E0DF9130
:10220000CF911F910F91EF90CF900C94510DC11071
:10221000F5CFDF91CF911F910F91EF90CF9008955F
:10222000CF92EF920F93C12CE12C00E020E048E226
:1022300061E00E94A5100F91EF90CF900895CF928A
:10224000EF920F93C12CE12C01E020E040E060E030
:102250000E94A5100F91EF90CF900895CF92EF922A
:102260000F93C42EE62E01E020E040E060E00E94E3
:10227000A5100F91EF90CF9008950F931F93CF93D8
:102280008C0180E00E942B0D8CED92E00E94800377
:1022900080E00E942B0D0E94FC0661E081E00E941C
:1022A000930D81E00E94640DF80101900020E9F790
:1022B000902F9E1B9F5A892F8695C92FC81B0E945D
:1022C000F806C8010E94780C8C2F0E94F80680E066
:1022D0000E94640D83E093E00E94800382E0CF912E
:1022E0001F910F910895CF93C82F0E9413070E944A
:1022F000120D0E9417078C2F0E94640D69E38DE276
:102300000E94EB0680E00E94640D0E9413070E9469
:10231000120D0E9417078FEE90E00E94800381E06B
:10232000CF910C94640D85ED8093BC008091640383
:1023300090916503A0916603B09167030796A11D74
:10234000B11D23E0B695A795979587952A95D1F766
:102350002091BC0024FD03C01092620308954091B7
:102360006403509165036091660370916703452B88
:10237000462B472B69F30097A105B10541F025E3F2
:102380002A95F1F700000197A109B109E1CF8091E9
:1023900063030C9405042F923F924F925F926F92C9
:1023A0007F928F929F92AF92BF92CF92DF92EF92E5
:1023B000FF920F931F93CF93DF936C01EC01099071
:1023C0000020E9F72197C81BD90B6C2E81E00E94F1
:1023D000640D88ED92E00E94800380E00E94640D0D
:1023E00084E20E942B0D0E941707CC2349F00E9423
:1023F000FC06C6010E94780C83E093E00E948003F3
:10240000B60184EC91E00E942F25FE01FF27EC53DA
:10241000FE4F10825C2E1C2FE12CF12C212C912CD4
:10242000C0E0D0E090E1892E0CE3DD3009F4ADC1CD
:102430000E94260F8823C9F00150B9F480E00E9461
:102440002B0D80E0DF91CF911F910F91FF90EF90C6
:10245000DF90CF90BF90AF909F908F907F906F90C4
:102460005F904F903F902F90089588EC93E00E94EA
:10247000F102892BD1F288EC93E00E94CF02D82F91
:10248000412E4518662009F48FC1992493945C125B
:10249000912CFC2EF60C312E3F18EE24E394E30C25
:1024A000DD3009F438C1A4F4D830B1F0DA3009F4E1
:1024B00032C12C2E80EE8D0F8F3508F0B5CF103144
:1024C00008F40FC1662009F4AFCFAA24A394D6C0A4
:1024D000DB3129F0DF3769F72C2EA12CCFC02C2E51
:1024E0000E945C0200E0A12C712CDBE188EC93E0FF
:1024F0000E94F102892B09F446C0739488EC93E0A2
:102500000E94CF02D82F0E945C0223E0721651F184
:10251000271558F031E07316A9F082E07816A9F07B
:10252000AA24A394E3CF342CDBCF94E0791639F1BD
:10253000E5E07E12F5CF8FEB8D0F843088F70FE743
:102540000D0FD4CFDB3561F7D1CFD53334F4D3338E
:1025500014F4D13329F70D2FC9CF8FEB8D0F8430B1
:10256000F8F6F9CFDB3311F2DE37D1F6013309F497
:10257000BDCFB0F28DEC800F823090F6B7CFD23362
:1025800009F4B4CFCDCF772009F458CFA1104CCFA8
:10259000033409F456C0E0F4043389F058F40133ED
:1025A00009F449C0033309F45EC0662009F43CCF46
:1025B000412C0AC0013409F43EC00234B1F7742C36
:1025C000662009F44EC04318742C750C612C7AC037
:1025D000013C69F168F4043409F43BC0003C29F77C
:1025E000752C7194552009F41FCF61105DC012C085
:1025F000023C49F0033CC9F641E0511001C040E003
:10260000742E719405C077247394411001C0712C0D
:10261000611047C0772009F4E4C0672C752C760C54
:10262000C52D16140CF44EC06194C72D4BC0742CEC
:102630004110DBCFF9CE662009F4D1C04C2E4518ED
:10264000C3CF6110C0CF7724739441100AC0712C9E
:1026500008C06110F3CF41E0511001C040E0742E7A
:102660007194612C7BC0611009C0511680F7FF2462
:10267000F394F50CE42C252C662463944E2D50E045
:102680006F2D70E06C537E4F822D90E08C539E4FE7
:102690000E9416251619722CAA2009F497CF522CE5
:1026A00022C0772009F4C0CE8C2F860D992091F09E
:1026B000C70D7C2EC81718F4982F8C2FC92F6C2E9D
:1026C000681AC82F0E941307662009F48CC0C11134
:1026D0008FC09EC0780E872DC71588F78C2FC72D09
:1026E000EECF6110F2CE852D90E09C012C533E4F31
:1026F00059018B539E4F511680F4442D50E04F5F8B
:102700005F4FB9010E941625F501D0837724739499
:10271000750C1F5F5BCF2C2E87CEFC011082F4CF8F
:1027200083E093E00E9480035C2E560C852D90E0A0
:102730009C012C533E4F5901511638F4F5018191FB
:102740005F010E949B035394F7CF5C2E882D811B61
:102750000E94F8060E941307C52D512C772009F41A
:1027600063CE570C171424F4872D0E941D0D5CCEE8
:1027700085ED92E00E948003872D81950E940B0DCC
:1027800083ED92E00E9480034FCEE12FF0E0EC5306
:10279000FE4F108280E00E942B0D64EC71E0C601B8
:1027A0000E942F2581E04ECE8D3009F43DCE34F4C9
:1027B000883051F08A3009F437CE7CCE8B3109F461
:1027C000B2CE8F3709F076CE552059F022242A94C4
:1027D000250CEE24E394E40CF52CA12C4DCF752CA4
:1027E0003FCF612C21CE512C112309F4AFCFC12F43
:1027F00084ECA82E81E0B82E512CF50181915F0167
:102800000E949B0353945C12F8CF662009F49ECF7C
:102810000E94FC065C2E2C2F260D3327331F5901F6
:10282000852D90E08A159B050CF07ACF8C539E4F36
:10283000FC0180810E949B035394F2CF0F931F935E
:10284000CF93DF93042F122F2AE044EC51E00E9433
:10285000382444EC51E0FA0101900020E9F7AF017F
:10286000455C5140842FC02FC41B1C16A4F455276F
:102870000C2E000CDD0B64EC71E0CE018C539E4FEE
:102880000E941625612F110F770BAE0184EC91E0A9
:102890000E942825802FE82FF0E0EC53FE4F108295
:1028A000DF91CF911F910F910895DF92EF92FF92E8
:1028B0000F931F93CF93DF93162FEA01D22E682F29
:1028C00070E090E080E020E342E00E941E1464EC9F
:1028D00071E08BE492E00E942F258BE4E82E82E0E9
:1028E000F82EF701D282612F70E090E080E020E3C3
:1028F00042E00E941E1464EC71E08EE492E00E94BB
:102900002F25F701D582BE0190E080E020E3402F23
:102910000E941E1464EC71E081E592E00E942F2574
:10292000E02FF0E0E55BFD4F1682DF91CF911F9124
:102930000F91FF90EF90DF900895AF92BF92CF92EA
:10294000DF92EF92FF920F931F93CF93DF9300D00C
:102950001F92CDB7DEB719821A821B829E012D5FAE
:102960003F4F590121503109690121503109790145
:1029700010E000E030E020E050E040E00E94D505AB
:102980004B8150E002E02AE36A8189810E9455145C
:102990000F900F900F90DF91CF911F910F91FF90AB
:1029A000EF90DF90CF90BF90AF900895FF920F937C
:1029B0001F93CF93DF930E949D148BE492E00E94BB
:1029C000CB1160E371E084EC91E00E940C24F12CC7
:1029D00000E010E0D0E0C0E00097E9F0C330D1059E
:1029E000E1F00E94C7238C33910598F5209761F49C
:1029F0008831910574F5182F60E371E090E080E074
:102A00000E940C242196E8CFC130D10511F4082F83
:102A1000F3CFF82EF1CF2397E1F4212F30E0A0E19E
:102A2000BEE00E94F4242CE3029F80011124012EB9
:102A3000000C220B330B600F711F821F931F6F0D51
:102A4000711D811D911DDF91CF911F910F91FF90FD
:102A5000089560E070E0CB01F6CF0F931F93CF9302
:102A6000DF93C82F862FD22F662329F0442319F035
:102A7000642F0E94930DDD2351F181E00E94640DCB
:102A800087EB93E00E94780C80E00E94640D27EBB6
:102A900033E0F90101900020E9F79F01285B334002
:102AA00080E1821B0E94F8068CEE90E00E94800379
:102AB000013089F060915F02709160028091610243
:102AC000909162020E949D140E947F0C0CC082E1D2
:102AD0000E941D0DEDCF8091B00383FF28C083EECF
:102AE00090E00E94800380E00E94510D80E00E94EF
:102AF000760D8091B20381FF36C08FE10E94870D71
:102B00008DEA90E00E94800380E00E94640D80E0E6
:102B10000E942B0D80E00E94760D8091B20381FF10
:102B20007CC08FE10E94870D8CE690E07DC080FF25
:102B300014C0982F9670963019F48AED90E0D1CF9A
:102B400081FF03C081ED90E0CCCF82FF03C088EC11
:102B500090E0C7CF8FEB90E0C4CF81E00E94510D91
:102B600086EB90E0BECF82FF06C080E20E94870D18
:102B700084EA90E0C7CF84FF20C09DE0C99FF001A8
:102B80001124ED59FD4F018112812381348140913F
:102B90005F02509160026091610270916202401781
:102BA00051076207730748F481E00E94510D8FE1DD
:102BB0000E942B0D8BE990E0A5CF83FF20C09DE004
:102BC000C99FF0011124ED59FD4F0181128123812C
:102BD000348140915F025091600260916102709176
:102BE0006202401751076207730748F481E00E94B0
:102BF000510D80E20E942B0D82E990E083CF80FF8F
:102C000006C081E00E94640D89E890E07BCF81E0FE
:102C10000E94510D80E890E075CF82FF2AC080E2CB
:102C20000E94870D88E690E00E94800380E00E9469
:102C3000640D80E00E942B0D80E00E94760D809153
:102C4000B203982F967009F45FC081E00E94510D85
:102C500088E00E94F80688E790E00E94800388E000
:102C60000E94F80680E0DF91CF911F910F910C94A4
:102C7000760D84FF1EC09DE0C99FF0011124ED591F
:102C8000FD4F018112812381348140915F02509177
:102C90006002609161027091620240175107620701
:102CA000730738F481E00E94510D8FE10E942B0DD3
:102CB0003BCF83FF1EC09DE0C99FF0011124ED5959
:102CC000FD4F018112812381348140915F02509137
:102CD00060026091610270916202401751076207C1
:102CE000730738F481E00E94510D80E20E942B0DA1
:102CF00099CF80FF03C085FFD8CFF7CF81E00E9436
:102D0000510D8CE790E090CF982F987199F085E065
:102D10000E94F806EDE0CE9FE0011124CD59DD4F71
:102D200069817A818B819C810E949D140E947F0C15
:102D300086E096CF80FF50C0D0E085FF31C080E2B2
:102D40000E942B0D8DE08C9FF0018D9FF00D1124C2
:102D5000ED59FD4F65817681878190850E949D1494
:102D60000E947F0C87E20E942B0D84E790E00E9476
:102D700080038FE10E942B0D8DE08C9FF0018D9FD1
:102D8000F00D1124ED59FD4F618572858385948581
:102D90000E949D140E947F0C87E20E942B0D62CF3F
:102DA0008FE10E942B0D8DE08C9FF0018D9FF00D27
:102DB0001124ED59FD4F65817681878190850E94B0
:102DC0009D140E947F0C87E20E942B0D80E790E00B
:102DD0000E94800380E2CECFDF91CF911F910F91AF
:102DE00008952F923F924F925F926F927F928F92AF
:102DF0009F92AF92BF92CF92EF92FF920F931F9349
:102E0000CF93DF93D82F61E00E94CB07F12C84E8A9
:102E1000482E83E0582E612C712C2DE0D29FC001EA
:102E20001124AC014D595D4F5A014A015FEF851ADB
:102E3000950A22242394312C82E391E00E943D11D3
:102E4000C82F11E0180F4BE464E00E94AB0D612F16
:102E500084E00E94930DC12CE12C00E020E248E2C6
:102E600060E080E30E94A51001E021E0412F6AE0CC
:102E70008D2F0E942D1513E01C0F4BE464E082E0BF
:102E80008C0F0E94AB0D112321F0612F8BE00E946B
:102E9000930D0E9417078091B0038970C3E039F148
:102EA0008AE00E941D0D81E00E94760D86E491E08B
:102EB0000E94800381E00E94760D8091B00381FF23
:102EC000C8C289E391E00E94800381E00E94760DF0
:102ED0008091B00382FF07C08FE191E00E948003E0
:102EE00081E00E94760D81E00E947311C6E080911E
:102EF000B003897009F453C086E191E00E94800319
:102F000080E00E94640D84E191E00E94800380E0F3
:102F10000E94760D8091B00383FFA0C26091A4034C
:102F20007091A5038091A6039091A7030E949D1420
:102F30000E947F0C81E30E94101180E00E94760DB8
:102F40008091B00381FF93C26091900370919103CF
:102F500080919203909193030E949D140E947F0C94
:102F600084E30E94101180E00E94760D8091B003EE
:102F700082FF12C060919403709195038091960333
:102F8000909197030E949D140E947F0C87E30E94FA
:102F9000101180E00E94760D80E00E9473118091F4
:102FA000B003897009F450C08BE091E00E94800367
:102FB00080E00E94640D89E091E00E94800380E03F
:102FC0000E94760D8091B00383FF56C26091B303D7
:102FD0007091B4038091B5039091B6030E949D1443
:102FE0000E947F0C82E30E94101180E00E94760D07
:102FF0008091B00381FF49C260919C0370919D0351
:1030000080919E0390919F030E949D140E947F0CCB
:1030100085E30E94101180E00E94760D8091B0033C
:1030200082FF12C06091A0037091A1038091A2035E
:103030009091A3030E949D140E947F0C88E30E943C
:10304000101180E00E94760D8091B003897009F420
:1030500047C080E00E94731180E091E00E948003ED
:1030600080E00E94640D8EEF90E00E94800380E07B
:103070000E94760D8091B00383FF0CC20E941B0753
:1030800080E00E94760DCF5F8091B00381FF12C275
:103090006091A8037091A9038091AA039091AB035A
:1030A0000E949D140E947F0C86E30E94101180E014
:1030B0000E94760D8091B00382FF12C06091AC0334
:1030C0007091AD038091AE039091AF030E949D1467
:1030D0000E947F0C89E30E94101180E00E94760D0F
:1030E0008091B003897049F00E9413070E94120D6D
:1030F00069E38DE20E94EB06CF5FC10F6C2F84E085
:103100000E94930D6091B003617040E081E60E94DF
:103110002E1183E292E00E9480036091B0036695D5
:10312000617040E082E60E942E1180E192E00E94F0
:1031300080036091B00362FB662760F940E083E69C
:103140000E942E1181E092E00E94800361E06C0FEA
:1031500084E00E94930D6091B00363FB662760F9E1
:1031600040E084E60E942E118DEE91E00E948003E3
:103170006091B0036295617040E085E60E942E1177
:103180008AED91E00E9480038091B003897061E034
:1031900009F060E040E086E60E942E1181ED91E0AA
:1031A0000E94800343E064E082E08C0F0E94AB0D3C
:1031B00063E06C0F84E00E94930D4091B10361E0E5
:1031C000411160E087E60E942E118BEC91E00E9495
:1031D00080036091B10311E061FB442740F941276E
:1031E0006695617088E60E942E1185EC91E00E9440
:1031F00080036091B10362FB442740F9412762FBE1
:10320000662760F989E60E942E118FEB91E00E94FB
:1032100080036091B10363FB442740F9412763FBBE
:10322000662760F98AE60E942E1189EB91E00E94E0
:1032300080036091B10364FB442740F94127629504
:1032400061708BE60E942E1183EB91E00E94800357
:103250006091B10365FB442740F9412765FB662770
:1032600060F98CE60E942E118DEA91E00E948003A5
:103270006091B10366FB442740F9412766FB66274E
:1032800060F98DE60E942E1187EA91E00E9480038A
:103290006091B103462F4095441F4427441F661F89
:1032A0006627661F8EE60E942E1181EA91E00E9439
:1032B000800343E064E084E08C0F0E94AB0D65E086
:1032C0006C0F84E00E94930D6091B203617040E046
:1032D0008FE60E942E1187E991E00E9480038AE028
:1032E0000E94F8066091B2036695617040E080E745
:1032F0000E942E1189E891E00E94800386E00E94DE
:10330000F8066091B20362FB662760F940E081E74E
:103310000E942E118CE791E00E94800343E064E05C
:1033200086E08C0F0E94AB0D67E06C0F84E00E947A
:10333000930D6091B2036295617040E082E70E9454
:103340002E118EE691E00E94800386E00E94F8062E
:103350006091B20363FB662760F940E083E70E9457
:103360002E1181E691E00E94800387E00E94F8061A
:1033700084E70E941F1183E591E00E94800381E0B1
:103380000E94640DC301B2010E949D140E947F0C33
:1033900080E00E94640D4BE464E088E08C0F0E94A2
:1033A000AB0D0E94830C69E084E70E945310C82F84
:1033B000E0EDE80FE53408F08CC00E2E000CFF0B9A
:1033C000EC51F64E0C94EE245F1ABC1AE61AC01AA1
:1033D000101B231B361B491B5C1B6F1B691A691AC8
:1033E000691A691A691A691A691A691A691A691AC5
:1033F000691A691A691A691A691A691A691A691AB5
:10340000691A691A691A691A691A691A691A691AA4
:10341000691A691A691A691A691A691A691A691A94
:10342000691A691A691A691A691A821B891B991B18
:10343000A01BA51BAD1BB91BBC1BBC1BBC1BBC1B19
:10344000BC1BBC1BBC1BD61BDC1BE11BE61BFF1BF8
:10345000041C82FF3DCD8CE291E035CD60918C0360
:1034600070918D0380918E0390918F035FCD82FFC9
:103470007DCD0E941B0777CD6091980370919903D1
:1034800080919A0390919B03A9CD82FFC7CD0E94A2
:103490001B07C1CD6091A4037091A5038091A60381
:1034A0009091A7030E949D140E947F0C83E30E94C9
:1034B0001011E6CD82FFFECD0E941B07F8CD87EBF1
:1034C00093E00E94CB1164EC71E087EB93E00E94E3
:1034D0002F258091B00383FF46C08FEC8C0F823084
:1034E00018F0C43609F03FC08091B3039091B40343
:1034F000A091B503B091B6034091A4035091A503E8
:103500006091A6037091A70384179507A607B707D4
:1035100020F480589E4AAE4FBF4F841B950BA60BDC
:10352000B70B80938C0390938D03A0938E03B0937D
:103530008F0380918C0390918D03A0918E03B091A5
:103540008F0320E831E541E050E0281B390B4A0B9E
:103550005B0BDA01C9018093980390939903A093C0
:103560009A03B0939B031C160CF055C1C43709F4A1
:1035700063CCFF24F39460CC8091B00383FF13C02D
:103580006091A4037091A5038091A6039091A70375
:103590000E94D6146093A4037093A5038093A6039E
:1035A0009093A70396CF60918C0370918D038091C7
:1035B0008E0390918F030E94D61460938C037093B6
:1035C0008D0380938E0390938F0383CF8091B003FC
:1035D00083FF13C06091B3037091B4038091B5036E
:1035E0009091B6030E94D6146093B3037093B40312
:1035F0008093B5039093B6036CCF6091980370915C
:10360000990380919A0390919B030E94D614609332
:1036100098037093990380939A0390939B0359CFD7
:103620006091900370919103809192039091930324
:103630000E94D61460939003709391038093920339
:103640009093930346CF60919C0370919D0380916A
:103650009E0390919F030E94D61460939C037093E5
:103660009D0380939E0390939F0333CF6091A803A3
:103670007091A9038091AA039091AB030E94D61484
:103680006093A8037093A9038093AA039093AB035C
:1036900020CF60919403709195038091960390914F
:1036A00097030E94D61460939403709395038093BC
:1036B0009603909397030DCF6091A0037091A1039F
:1036C0008091A2039091A3030E94D6146093A0035B
:1036D0007093A1038093A2039093A303FACE609109
:1036E000AC037091AD038091AE039091AF030E9443
:1036F000D6146093AC037093AD038093AE039093A4
:10370000AF03E7CE8091B0038160877F8093B003E1
:10371000E0CE9091B003892F8D7F91FF82608093DE
:10372000B003982F967009F4D4CE83FDD2CE816079
:10373000EDCF9091B003892F8B7F92FF8460EFCF04
:103740008091B0038E7F8860E1CF9091B003892F84
:103750008F7E94FF80618093B0038091B003887F57
:10376000877F8093B0038091B2038E7F8093B203F2
:10377000B0CE1092B103ADCE4091B10359E9580FCC
:10378000C101052E01C0880F0A94EAF7242F30E00A
:1037900002C0359527955A95E2F720FD04C0482BC5
:1037A0004093B10396CE80954823FACF8091B2031F
:1037B0008160817E8064DACF8091B203807E8260F6
:1037C000F9CF8091B203807E8460F4CFF5018081CF
:1037D0008061877F8064808380915F029091600226
:1037E000A0916102B0916202840D951DA61DB71DC6
:1037F000F40180839183A283B383CFEF6ACEF50176
:1038000080818F7E8860E6CFC301B2010E94D6140A
:103810002B013C015ECEFF20A9F061E08D2FDF91EE
:10382000CF911F910F91FF90EF90CF90BF90AF90ED
:103830009F908F907F906F905F904F903F902F90D0
:103840000C946C07DF91CF911F910F91FF90EF9037
:10385000CF90BF90AF909F908F907F906F905F9030
:103860004F903F902F900895CF92DF92EF92FF926A
:103870006B017C012AE04BE452E00E9438248BE487
:1038800092E00E94CB11882341F084EC91E0FF90FC
:10389000EF90DF90CF900C94E523C701B601FF9025
:1038A000EF90DF90CF900895CF92DF92EF92FF924A
:1038B000CF93DF93C0909601D0909701E09098014C
:1038C000F0909901C701B6010E949D14C701B6018D
:1038D00020E831E541E050E00E94CC24CA01B90162
:1038E00020E243E00E941E1449E050E06BE472E0E5
:1038F00080E592E00E941625CBE4D2E083E0E4EC80
:10390000F1E0DE0101900D928A95E1F784E68B8368
:1039100080E28C83DF91CF91FF90EF90DF90CF908A
:103920000C947F0CAF92BF92CF92DF92EF92FF92F6
:103930000F931F93CF93DF9381E491E00E943D1199
:1039400047E465E08E5F0E94AB0D182F83E6A82E3A
:1039500082E0B82ED0E0C0E09DE0F92EDC2EFC9E87
:10396000F001FD9EF00D1124ED59FD4F808181FD88
:103970003CC082FD3AC084FF12C0F50141815281F2
:103980006381748180915F0290916002A0916102D5
:10399000B091620284179507A607B70730F1FC9E25
:1039A000F001FD9EF00D1124ED59FD4F808183FF44
:1039B00012C0F501418152816381748180915F025F
:1039C00090916002A0916102B09162028417950704
:1039D000A607B70750F0FC9EF001FD9EF00D1124E4
:1039E000ED59FD4F808180FF1DC0612F85E00E9451
:1039F000930DC12CE12C01E020E240E060E081E683
:103A00008D0D0E94A51061E08D2D0E94CB07EE2444
:103A1000E394E10E02E021E0412F69E08D2D0E9448
:103A20002D151E2D2196FDE0AF0EB11CC031D10524
:103A300009F094CF0E94FC0668E181E00E94930D9A
:103A400081E00E94640D84E00E94F80685E591E023
:103A50000E94780C80E00E94640D81E30E942B0D8F
:103A600087E392E00E9480030E94541C89E10E9437
:103A7000F80683E093E00E94800381E00E94640DD9
:103A800047E465E0812F0E94AB0D80E0DF91CF918C
:103A90001F910F91FF90EF90DF90CF90BF90AF906C
:103AA0000C94640D4F925F926F927F92AF92BF928F
:103AB000CF92DF92EF92FF920F931F93CF93DF93FA
:103AC000CDB7DEB728970FB6F894DEBF0FBECDBFD7
:103AD00050EB452E54E0552E612C712C0E940708A6
:103AE00085E691E00E943D11F82E10E0DD24D3948C
:103AF000D80E6D2D610F85E00E94930DC12CE12C35
:103B000001E020E240E060E081E6810F0E94A51024
:103B100061E0812F0E94CB0721E040E060E0812F2F
:103B20000E942D151F5F103121F743E068E081E10D
:103B30008F0D0E94AB0D182F682F85E00E94930D0A
:103B400081E30E941F118FE892E00E94800382E3CC
:103B50000E941F1187E892E00E94800383E30E9485
:103B60001F118FE792E00E94800384E30E941F11DF
:103B700084E792E00E948003C0904502D12CF12C92
:103B8000E12C81E00E94640D20E343E0C701B6010F
:103B90000E941E1484EC91E00E94780C80E00E9448
:103BA000640D83E00E94F80685E30E941F118BE6F6
:103BB00092E00E94800381E00E94640D60914002C7
:103BC0007091410280914202909143024AE00E942A
:103BD000340C61E0610F85E00E94930D40E061E0EC
:103BE00086E30E942E1180913F02882309F44DC084
:103BF0008FE592E00E94800383E00E94F80687E34D
:103C00000E941F118DE492E00E94800381E00E94D7
:103C1000510D84E492E00E94800380E00E94510DE7
:103C200088E30E941F118BE392E00E9480030E94B0
:103C3000830C68E080E70E945310182F833309F447
:103C4000F3C034F582330CF040C0803324F481E0BB
:103C5000810F823038F511160CF440CF0E94921C6F
:103C600028960FB6F894DEBF0FBECDBFDF91CF917F
:103C70001F910F91FF90EF90DF90CF90BF90AF908A
:103C80007F906F905F904F90089581E592E0B2CF62
:103C9000863309F413C16CF4843309F4E3C085332B
:103CA00009F4EFC08FE9810F8031A8F60E94F11668
:103CB000D2CF873309F40AC18833A1F780914A0231
:103CC0000E94000780934A02F6C0E0905E020091D5
:103CD0005D0220915C0247EE57E061E081E00E94C6
:103CE00061066D837E838F83988760915F027091F8
:103CF000600280916102909162021C821B821A8292
:103D00001982B12CA12CD12CC12CF12CE12C8E01CB
:103D10000F5F1F4F9E012D5F3F4FAE014C5F5F4F06
:103D20000E94D50549815A8104E02EE26B818C8185
:103D30000E9455148BE492E00E94CB1163E671E07F
:103D400084EC91E00E940C24B12CD12CF12C10E0D9
:103D500000E0009709F460C00330110509F040C08D
:103D6000E12C00E020E04C2D5B2D6D2D8F2D0E946D
:103D700061062D813E814F815885620F731F841F1C
:103D8000951F2EE5A22E22E0B22E3DE5C32E32E095
:103D9000D32E4CE5E42E42E0F42E04E011E023E0C3
:103DA00031E042E051E00E94D5050E94BC0C4091F8
:103DB000040150910501E0905E0200915D022091A6
:103DC0005C0260910301809102010E946106609390
:103DD0005F027093600280936102909362027ECED4
:103DE0000E94C72397FD1CC00115110569F480329C
:103DF0009105B4F4F82E63E671E090E080E00E9453
:103E00000C240F5F1F4FA5CF0130110511F4D82EE0
:103E1000F2CFC82EB92EEFCF0330110509F4A0CF91
:103E200060E070E0CB01A5CF409104015091050105
:103E3000E12C00E020E060910301809102010E94EA
:103E400061066B017C0160915F027091600280915C
:103E50006102909162020E94D6146C0D7D1D8E1D30
:103E60009F1D8FCF6091450270E090E080E00E943E
:103E7000341C6093450261506E3FE8F00E94910748
:103E80002DCE60914002709141028091420290914A
:103E900043020E94341C609340027093410280935D
:103EA000420290934302A30192010E94CC24672B0B
:103EB000682B692B19F70E941F0710CE81E09091A3
:103EC0003F02911180E080933F02F5CF8091440240
:103ED0000E9400078093440280930001ECCF1F9260
:103EE0000F920FB60F9211242F933F938F939F93AE
:103EF000AF93BF938091340390913503A091360323
:103F0000B09137033091330323E0230F2D3758F559
:103F10000196A11DB11D2093330380933403909328
:103F20003503A0933603B093370380913803909103
:103F30003903A0913A03B0913B030196A11DB11D35
:103F40008093380390933903A0933A03B0933B03D3
:103F5000BF91AF919F918F913F912F910F900FBE85
:103F60000F901F90189526E8230F0296A11DB11DF2
:103F7000D2CF1F920F920FB60F9211242F933F931F
:103F80004F935F936F937F938F939F93AF93BF9361
:103F9000EF93FF9388EC93E00E941103FF91EF9160
:103FA000BF91AF919F918F917F916F915F914F9151
:103FB0003F912F910F900FBE0F901F9018951F9259
:103FC0000F920FB60F9211242F938F939F93EF931D
:103FD000FF93E091D803F091D9038081E091DE0353
:103FE000F091DF0382FD1BC090818091E1038F5F20
:103FF0008F732091E203821741F0E091E103F0E03A
:10400000E853FC4F958F8093E103FF91EF919F91CF
:104010008F912F910F900FBE0F901F901895808158
:10402000F4CF1F920F920FB60F9211242F933F934C
:104030004F935F936F937F938F939F93AF93BF93B0
:10404000EF93FF938091B900887F803609F44AC0CE
:10405000F0F5883209F4A7C018F5803109F49BC047
:10406000B8F4882309F4F9C0883009F494C0FF91AA
:10407000EF91BF91AF919F918F917F916F915F91E0
:104080004F913F912F910F900FBE0F901F90189559
:10409000883109F488C0803251F78093600314C0DE
:1040A000803409F49DC040F48033B9F38833F9F6C5
:1040B0008093600385ECB0C0803509F485C08835F5
:1040C00009F496C0883499F60E949311D0CF8839AC
:1040D00009F48CC038F5883729F050F4883611F08F
:1040E000803729F683E0809362031092380257C02C
:1040F000883809F47BC0803919F0803809F0B7CFCF
:1041000080913802803208F071C0E091380281E07D
:104110008E0F809338028091BB00F0E0E85EFD4F87
:1041200080833DC0803B39F0E0F4803A09F479C0E7
:10413000883A09F09CCF84E08093620310921702C2
:1041400010921602E0913B02F0913C020995809199
:10415000160281110FC081E0809316021092F601C1
:1041600009C0803C09F4A6CF883C09F4A3CF883B62
:1041700009F07DCFE091170281E08E0F8093170246
:10418000F0E0EA50FE4F80818093BB0090911702CF
:104190008091160229C080913D038093BB0085EC7D
:1041A0008093BC0064CF90915F0380915E03981769
:1041B00058F5E0915F0381E08E0F80935F03F0E09C
:1041C000E25CFC4F8081E9CFE0915F0381E08E0FDC
:1041D00080935F038091BB00F0E0E25CFC4F808342
:1041E00090915F0380915E039817C8F285E8D8CF5D
:1041F000E0915F0381E08E0F80935F038091BB00AD
:10420000F0E0E25CFC4F80838091610381115CCF20
:1042100081E080933C0384EA8093BC0010926203A7
:1042200026CF85EC8093BC00109262038091380207
:10423000803230F4E0913802F0E0E85EFD4F108209
:104240006091380270E0E0913902F0913A0288E121
:1042500092E00995109238020ACF1092600334CF91
:10426000E8ECF3E01382128288EE93E0A0E0B0E085
:1042700084839583A683B7832DE031E03183208347
:1042800025EC30E03587248724EC30E0378726871B
:1042900020EC30E0318B208B21EC30E0338B228B13
:1042A00022EC30E0358B248B26EC30E0378B268BEC
:1042B000118E128E138E148EE5E6F4E013821282B4
:1042C00084839583A683B7838FE191E09183808374
:1042D0000895789484B5826084BD84B5816084BD7E
:1042E00085B5826085BD85B5816085BD80916E0094
:1042F000816080936E0010928100809181008260C5
:104300008093810080918100816080938100809101
:1043100080008160809380008091B10084608093F0
:10432000B1008091B00081608093B00080917A00EC
:10433000846080937A0080917A00826080937A0012
:1043400080917A00816080937A0080917A00806801
:1043500080937A001092C1000E949107C0904002A1
:10436000D0904102E0904202F090430260E079E098
:104370008DE390E0A70196010E94CC2421503109E1
:10438000410951095695479537952795E091D803EE
:10439000F091D90382E08083C11481EED806E10454
:1043A000F10421F02115E0E13E07A8F0E091D803E7
:1043B000F091D903108260E874E88EE190E0A701E3
:1043C00096010E94CC24215031094109510956958A
:1043D000479537952795E091D403F091D503308325
:1043E000E091D603F091D70320831092E003E0918F
:1043F000DC03F091DD0386E08083E091DA03F09145
:10440000DB03808180618083E091DA03F091DB033C
:10441000808188608083E091DA03F091DB03808102
:1044200080688083E091DA03F091DB0380818F7DE7
:1044300080838AEF8093B80010923E0210923D0272
:104440001092690310928B030E94E70381E992E0C6
:1044500090933C0280933B0282E992E090933A026F
:10446000809339020E94C40D80E00E942B0D8CEDD8
:1044700092E00E94800361E081E00E94930D33E6A8
:10448000E32E32E0F32E10E000E0812C912C540159
:10449000839452E0752ED0E0C0E06DE0662E7CE89B
:1044A000C72E73E0D72EECE35E2EF701262D119276
:1044B0002A95E9F760E08C2F0E94CB0760E08C2FF3
:1044C0000E946C078091B703882359F087EB93E033
:1044D000FC0101900020E9F7CF01885B93404197F0
:1044E000F8F08BEE92E00E9480034AE0C501B4012F
:1044F0000E94340C8DE291E00E94270CF601252DDC
:1045000011922A95E9F763E871E087EB93E00E9446
:104510002F258FE3870D8093BF03C8010E943F07BB
:10452000FE01E55DFC4F4491FE01E95EFC4F849184
:10453000882399F090E0880F991FFC01EF51FD4FFF
:10454000A591B491FC01E55FFC4F259134918FB7A3
:10455000F894EC914E2B4C938FBF8091B00384FF65
:1045600005C161E0872D0E94EB016C9EF0016D9EFC
:10457000F00D1124ED59FD4F8081806280832196DA
:104580003DE0E30EF11C73948FEF881A980AA80A95
:10459000B80A045C1F4FE2E17E1287CF0E94521DD1
:1045A0001DE090E0A92E90E0B92E0E94260F8823EE
:1045B00009F4BFC00E940708811105C0809106015F
:1045C000882309F47EC0D0E0C0E085E0D82ECC2E50
:1045D0001C9FF0011D9FF00D1124ED59FD4F8081AE
:1045E00081FD3AC082FD38C084FF11C041815281F3
:1045F0006381748180915F0290916002A091610259
:10460000B091620284179507A607B70728F11C9F8F
:10461000F0011D9FF00D1124ED59FD4F808183FFA6
:1046200011C0418152816381748180915F029091B8
:104630006002A0916102B091620284179507A607FB
:10464000B70750F01C9FF0011D9FF00D1124ED598C
:10465000FD4F808180FF30C01C9FF0011D9FF00D39
:104660001124ED59FD4F808186FD04C08091060123
:10467000882309F161E08C2D0E94CB0702E020E045
:104680004D2D69E08C2D0E942D151C9FC0011D9F92
:10469000900D11249C012D593D4F7901F901608144
:1046A00065FB662760F982E08C0D0E94EB01F70143
:1046B00080818F7B8083D3942196C031D10509F00E
:1046C00086CF61E083E40E94930D0E94FC060E9465
:1046D000541C68E18DE30E94930D409104015091B8
:1046E000050104E02EE260910301809102010E9425
:1046F00055148BE492E00E94780C81E00E94F80649
:1047000040915E0250E002E02AE360915D028091F8
:104710005C020E9455148BE492E00E94780C89E0C0
:1047200093E00E94800383E093E00E948003109254
:10473000060188EC93E00E94F102892B59F088EC85
:1047400093E00E94CF0281568031F0F40E94F1166E
:104750000E94921CA114B10409F427CF0E94FD020B
:10476000882309F422CF0E9400001FCF60E0872D2C
:104770000E94EB016C9EF0016D9EF00D1124ED592D
:10478000FD4F80818F7DFACE0E94521DE3CFFC0148
:1047900088279927E89421912032E9F3293010F0F5
:1047A0002E30C8F32B3241F02D3239F4689404C016
:1047B0000E945C24820F911D219120532A30C0F366
:1047C0001EF4909581959F4F08951F93FC019927A2
:1047D0008827BC01E89411911032E9F3193010F0E8
:1047E0001E30C8F31B3251F01D3249F4689406C0E4
:1047F0000E944724610F711D811D911D119110535D
:104800001A30B0F33EF490958095709561957F4F86
:104810008F4F9F4F1F91089541E754E00E9411244C
:104820000895FA01A191B081009719F41097E1F071
:10483000CD01DC01CD010D90002011F4C00113C0A9
:10484000FB012191222319F02015D9F7F3CFFB01A9
:104850002191201519F41E92119606C02223C1F74A
:104860000D900020A1F7D001FA01A193B083089523
:10487000BB272A3051F4992342F4BDE290958095EC
:10488000709561957F4F8F4F9F4F0C946524592FE2
:10489000482F372F262F660F771F881F991F660F07
:1048A000771F881F991F620F731F841F951F660F44
:1048B000771F881F991F08957AE0979F902D879FF3
:1048C000802D910D11240895BB27FA01A62F6217A0
:1048D000710581059105330B30FB66F0AA27660F41
:1048E000771F881F991FAA1FA21710F0A21B63959C
:1048F0003850A9F7A05DAA3308F0A95DA19336F757
:10490000B111B1931082CA010C948624DC01FC0120
:10491000672F71917723E1F7329704C07C916D93F3
:1049200070836291AE17BF07C8F30895F999FECF5F
:1049300092BD81BDF89A992780B50895262FF999DF
:10494000FECF1FBA92BD81BD20BD0FB6F894FA9A72
:10495000F99A0FBE01960895991B79E004C0991F3A
:10496000961708F0961B881F7A95C9F780950895C9
:10497000AA1BBB1B51E107C0AA1FBB1FA617B70785
:1049800010F0A61BB70B881F991F5A95A9F78095A1
:104990009095BC01CD010895A1E21A2EAA1BBB1B64
:1049A000FD010DC0AA1FBB1FEE1FFF1FA217B307FB
:1049B000E407F50720F0A21BB30BE40BF50B661F11
:1049C000771F881F991F1A9469F7609570958095D5
:1049D00090959B01AC01BD01CF010895EE0FFF1F23
:1049E0000590F491E02D0994A29FB001B39FC001FE
:1049F000A39F700D811D1124911DB29F700D811D0B
:104A00001124911D08950E94F424A59F900DB49F38
:104A1000900DA49F800D911D11240895B7FF0C9453
:104A200003250E940325821B930B089568177907BD
:104A300068F4FB01DC01E40FF51FA40FB51F02C0F1
:104A400002900E9241505040D8F708950C943625AC
:104A5000DC0101C06D9341505040E0F70895FB0127
:104A6000DC0101900D920020E1F70895FB01DC01CB
:104A700002C001900D9241505040D8F70895F8942B
:024A8000FFCF66
:104A82005C270101E70701000000000000330393E7
:104A920002C002A003F102CF02E302000000006D97
:104AA2000540059C0516053905260517050D0A0062
:104AB2003A002D20456469742D54696D6572202D6C
:104AC200002D20517569636B54696D657220312E1A
:104AD2003034202D004C6F6F7020737461727465D6
:104AE200642E2E2E002D204D61696E204D656E754F
:104AF20020517569636B54696D657220312E3034B3
:0C4B0200202D0044656661756C742D0068
:00000001FF
