:100000000C94CF010C94F7010C94F7010C94F701B8
:100010000C94F7010C94F7010C94F7010C94F70180
:100020000C94F7010C94F7010C94F7010C94F70170
:100030000C94F7010C94F7010C94F7010C94F70160
:100040000C940A200C94F7010C947A200C94542000
:100050000C94F7010C94F7010C94F7010C94F70140
:100060000C94AC200C94F7014A7573742D56616C96
:100070007565730041534349490052545500546516
:10008000726D696E616C00204F4E004F4646002035
:100090002D2000202D20004E2F41004E2F410064C6
:1000A000697361626C65640020206175746F202043
:1000B0000074656D702E204F4E0074656D702E4F6C
:1000C0004646007065726D2E204F4E007065726D51
:1000D0002E4F46460044697361626C656400496E48
:1000E00074657276616C00496E7465724F464600A5
:1000F000496E7465722D4F4E00496E744F6E4F6697
:1001000066002020323468202020007C20007C0003
:100110002020204E4120202020282029003A0020A5
:10012000204F6666536574003A00204F6666546936
:100130006D65003A0020204F6E54696D6500207790
:1001400068696C65204F4646202000202020204E04
:100150002F4120202020200020207768696C652016
:100160004F4E202000202020204D61696E2020204D
:10017000200053657454656D7054696D653A2000B4
:1001800054656D706F72617279204F4E0054656DC9
:10019000706F72617279204F4646005065726D61D2
:1001A0006E656E74204F4E005065726D616E656EA7
:1001B00074204F4646004175746F6D617469630029
:1001C0005361742020004672692020005468752015
:1001D00020005765642020005475652020004D6F75
:1001E0006E20200053756E202000414C4C202000D2
:1001F00044697361626C656400496E76657274650A
:100200006420506F72742020202020003234682D2A
:100210004461792054696D657220202020202000DF
:100220007768696C654F46462054696D6572007742
:1002300068696C654F4E2054696D657220202020DE
:100240002000496E74657276616C2054696D657228
:10025000202020202000204020004B6579436F6C37
:100260006F7200436F6C6F722020200044696D0034
:100270007E007A0074006800426F6F744D6F646591
:10028000203D20005370656564203D20004164647A
:1002900072657373203D200054696D652020200035
:1002A00044617465202020005265426F6F742020E5
:1002B000200048003B001B5B006D001B5B001B5BCC
:1002C000316D001B5B32326D0043001B5B001B373E
:1002D000001B38001B5B376D001B5B346D001B5B24
:1002E00032346D003A002900207C20000D0A0044C1
:1002F000001B5B003E3E20001B5B324A00000000FA
:1003000000240027002A00556E646566696E6564E6
:1003100020506F72742F54696D6572203A20001B53
:100320005B32376D00200000000000250028002B04
:10033000000404040404040404020202020202038E
:100340000303030303010204081020408001020498
:10035000081020010204081020000000080002011B
:10036000000003040700000000000000002020201F
:100370002053656C656374206B65792C206F722047
:10038000456E74657228666F722072657475726E40
:10039000292E2E2E000A0042001B5B00CB211124C7
:1003A0001FBECFEFD8E0DEBFCDBF24E0A0E7B1E0B5
:1003B00001C01D92A735B207E1F711E0A0E0B1E05E
:1003C000EEE7FDE402C005900D92A037B107D9F722
:1003D00011E0CFECD1E004C02197FE010E946C2611
:1003E000CE3CD107C9F70E9404220C94BD260C9480
:1003F000000090E0FC01E75AFC4F2491FC01EB5B0C
:10040000FC4F3491FC01EF5CFC4FE491EE23C9F00A
:10041000222339F0233001F1A8F4213019F12230E0
:1004200029F1F0E0EE0FFF1FE95DFC4FA591B491BB
:100430008FB7F894EC91611126C030953E233C9320
:100440008FBF08952730A9F02830C9F0243049F72C
:10045000809180008F7D03C0809180008F77809392
:100460008000DFCF84B58F7784BDDBCF84B58F7DEF
:10047000FBCF8091B0008F778093B000D2CF809176
:10048000B0008F7DF9CF3E2BDACF3FB7F894809143
:100490001C0390911D03A0911E03B0911F0326B56C
:1004A000A89B05C02F3F19F00196A11DB11D3FBFAC
:1004B000BA2FA92F982F8827BC01CD01620F711D7B
:1004C000811D911D42E0660F771F881F991F4A9575
:1004D000D1F708958F929F92AF92BF92CF92DF9201
:1004E000EF92FF920E9445024B015C018CE0C82E06
:1004F000D12CE12CF12C0E944502681979098A0956
:100500009B09683E734081059105A8F321E0C21A5A
:10051000D108E108F10888EE880E83E0981EA11C3E
:10052000B11CC114D104E104F10429F7FF90EF904C
:10053000DF90CF90BF90AF909F908F9008950895D7
:100540000895AF92BF92CF92DF92EF92FF920F93F6
:100550001F93CF93DF936C017B018B01040F151F59
:10056000EB015E01AE18BF08C017D10759F06991C1
:10057000D601ED91FC910190F081E02DC601099525
:10058000892B79F7C501DF91CF911F910F91FF90D2
:10059000EF90DF90CF90BF90AF900895FC01538D06
:1005A000448D252F30E0842F90E0821B930B54174D
:1005B00010F0CF96089501970895FC01918D828DDA
:1005C000981761F0A28DAE0FBF2FB11D5D968C9173
:1005D000928D9F5F9F73928F90E008958FEF9FEFB2
:1005E0000895FC01918D828D981731F0828DE80F6E
:1005F000F11D858D90E008958FEF9FEF0895FC0128
:10060000918D228D892F90E0805C9F4F821B9109F4
:100610008F73992708958CEA93E00E94FF0221E0EE
:10062000892B09F420E0822F089580E090E0892B47
:1006300029F00E940B0381110C9400000895FC0125
:10064000A48DA80FB92FB11DA35ABF4F2C91848D33
:1006500090E001968F739927848FA689B7892C9390
:10066000A089B1898C91837080648C93938D848DE3
:10067000981306C00288F389E02D80818F7D8083E6
:100680000895EF92FF920F931F93CF93DF93EC01A6
:1006900081E0888F9B8D8C8D98131AC0E889F98929
:1006A000808185FF15C09FB7F894EE89FF8960832C
:1006B000E889F98980818370806480839FBF81E0AD
:1006C00090E0DF91CF911F910F91FF90EF900895EF
:1006D000F62E0B8D10E00F5F1F4F0F731127E02ECA
:1006E0008C8D8E110CC00FB607FCFACFE889F98902
:1006F000808185FFF5CFCE010E941F03F1CFEB8DE6
:10070000EC0FFD2FF11DE35AFF4FF0829FB7F894D5
:100710000B8FEA89FB8980818062CFCF0F931F9373
:10072000CF93DF938C01D0E0C0E0F801EC0FFD1F08
:100730006491662341F08CEA93E00E944103892B87
:1007400011F02196F2CFCE01DF91CF911F910F9141
:100750000895682F8CEA93E00C944103CF93DF93C4
:10076000EC01888D8823B9F0AA89BB89E889F989C9
:100770008C9185FD03C0808186FD0DC00FB607FCFE
:10078000F7CF8C9185FFF2CF808185FFEDCFCE0131
:100790000E941F03E9CFDF91CF9108952091D801E6
:1007A000260F3327331F21323105ECF42091460305
:1007B000FC0190E080E0243069F082E00895A0918F
:1007C000D8012191AC0148545E4FA40FB52FB11D43
:1007D0002C930196861798F38091D801680F609347
:1007E000D80180E0089581E008951092460381E0E9
:1007F000809345031092200361E082E10E94F90199
:1008000061E083E10E94F901E9EBF0E080818E7FF5
:10081000808380818D7F808388E48093B80085E425
:100820008093BC000895CF93DF9391E09093B7013C
:100830008823B9F0C091B800D091BA008091BC0073
:100840008A7B8093BC0060E082E10E94F90160E055
:1008500083E10E94F9010E94F503D093BA00C0938E
:10086000B800DF91CF9108958F929F92AF92BF927F
:10087000CF92DF92EF92FF920F931F93CF93DF936C
:10088000D0916F03D13208F0D7C0182FC0916E03FA
:100890000E9445026B017C018091460381116BC06F
:1008A00082E080934603109345038FEF80934403C7
:1008B00010924303D0934203AEE4B3E0E2E2F3E0EC
:1008C00080E0D81391C01092210380912103CC0FB6
:1008D000C82BC093210380912003813009F088C088
:1008E000109220030E9445026B017C01809121033C
:1008F0008093BB008091480390914903A0914A03E3
:10090000B0914B03892B8A2B8B2BA1F00E944502BF
:10091000009148031091490320914A0330914B0301
:100920006C197D098E099F090617170728073907D3
:1009300008F442C08091BC0083FDD8CF85EC809341
:10094000BC000E9445026B017C018091460382300D
:1009500009F450C0809144038F3F09F46FC0809127
:100960004403803209F46CC080914403803309F45D
:1009700069C084E026C08091480390914903A0910A
:100980004A03B0914B03892B8A2B8B2B09F484CF1C
:100990000E9445028090480390904903A0904A032A
:1009A000B0904B036C197D098E099F098616970636
:1009B000A806B90608F070CF809147030E9413047F
:1009C00085E010924D0310926F0310924C03DF915B
:1009D000CF911F910F91FF90EF90DF90CF90BF903C
:1009E000AF909F908F9008959D9191938F5F69CF65
:1009F00085EEA5CF8091480390914903A0914A03C9
:100A0000B0914B03892B8A2B8B2B09F49ECF0E942C
:100A10004502009148031091490320914A03309107
:100A20004B036C197D098E099F09061717072807C4
:100A3000390708F08ACFC0CF81E0C3CF80E0C1CFB3
:100A400082E0BFCF83E0BDCF0895E09100028091A6
:100A5000FF01E81730F4F0E0E956FE4F808190E0A6
:100A600008958FEF9FEF0895909100028091FF010C
:100A70002FEF3FEF981748F4E92FF0E0E956FE4FCB
:100A8000208130E09F5F90930002C901089580911A
:100A9000FF0190910002891B990B0895CF92DF927C
:100AA000EF92FF920F931F93CF93DF937C01CB01C3
:100AB0008A0120914C03222389F0EB016B01C40EC3
:100AC000D51ECC15DD0569F06991D701ED91FC913A
:100AD0000190F081E02DC7010995F3CF642F0E94AA
:100AE000CE03C801DF91CF911F910F91FF90EF903E
:100AF000DF90CF900895CF93DF931F92CDB7DEB7ED
:100B0000698320914C032223F9F020916F03203256
:100B100058F021E030E0FC013383228390E080E054
:100B20000F90DF91CF91089580914D03E82FF0E071
:100B3000E25BFC4F998190838F5F80934D0380939C
:100B40006F0381E090E0ECCF61E0CE0101960E945E
:100B5000CE03F7CF90E080E008950F931F93CF93DB
:100B6000DF938CEA93E00E94DD02082F11E0C1E0E0
:100B7000D0E08A3319F010E0D0E0C0E00E946A02B1
:100B80008CEA93E00E94FF02892B99F021968CEA6F
:100B900093E00E94DD028A3341F41F5F143029F490
:100BA000C430D10511F4109237020E946A0200E0AD
:100BB000E7CF802FDF91CF911F910F9108959C0176
:100BC00064E670E00E943626FC01C9018370992713
:100BD000892B11F4309779F4C90160E971E00E9422
:100BE00036269C01EF2B11F4892B19F481E0232B7D
:100BF00009F080E0089581E00895863029F030F40E
:100C0000823051F0843031F48EE108958930E1F37F
:100C10008B30D1F38FE10895CB010E94DF0588234B
:100C200011F08DE108958CE108952F923F924F923B
:100C30005F926F927F928F929F92AF92BF92CF926C
:100C4000DF92EF92FF920F931F93CF93DF932B01CD
:100C50003C011A014901E80187EE97E099838883F6
:100C600040E853E361EE71E04416550666067706E8
:100C700090F088819981019699838883441A550A56
:100C8000660A770A0E94DF05882351F340E055E8A1
:100C900062EE71E0E9CF81E0F401808360E87EEDEF
:100CA00088E290E04616570668067906B0F0F4012F
:100CB00020812F5F2083461A570A680A790A6881C3
:100CC0007981822F0E94FD05A82FB0E020E831E550
:100CD00041E050E00E948126E5CFC301B20120E847
:100CE00031E541E050E00E944A262F5FF101208368
:100CF00020E13EE040E050E00E944A26F7012083D8
:100D00002CE330E040E050E00E944A26F6012083C8
:100D1000F5016083DF91CF911F910F91FF90EF90CC
:100D2000DF90CF90BF90AF909F908F907F906F900B
:100D30005F904F903F902F9008956F927F928F9287
:100D40009F92AF92BF92CF92DF92EF92FF920F935A
:100D50001F93CF93DF93C82FF62E6A01D22F87EE11
:100D6000682E87E0782E812C912C54016C147D0420
:100D7000C0F4C3010E94DF0581110CC020E8821A73
:100D80002CEC920A2EE1A20A2EEFB20A4FEF641A5F
:100D9000740AECCF3BE7931A3DE1A30A3EEFB30A96
:100DA000F5CF11E01F1590F4B601812F0E94FD05CB
:100DB000A82FB0E020E831E541E050E00E94812614
:100DC000860E971EA81EB91E1F5FECCF202F30E0A5
:100DD000ACE3B0E00E9472269B01AC012E0D311DE8
:100DE000411D511D69017A012D2F30E0A0E1BEE0C7
:100DF0000E947226C60ED71EE81EF91E4C2F4150C7
:100E0000550BDA0120E831E541E050E00E948C26E4
:100E10006C0D7D1D8E1D9F1D680D791D8A1D9B1DEE
:100E2000DF91CF911F910F91FF90EF90DF90CF90C6
:100E3000BF90AF909F908F907F906F900895CF93C9
:100E4000DF93D82FC62FC15020F08D2F0E94A90309
:100E5000FACFDF91CF910895682F80E20C941F079D
:100E600084ED92E00C948E03813671F02AE5853290
:100E700061F0882349F021E0280F93EE980F983015
:100E800020F08955883008F02EE1822F089581EDF9
:100E900092E00C948E038EEC92E00C948E0380E131
:100EA00091E00C948E03FF920F931F93CF93DF93E7
:100EB00007E312E0C5EED3E0F801F1908F01CE0117
:100EC0000E941426F81621F06F2DCE010E941C26D8
:100ED0002196C13FF3E0DF0779F7DF91CF911F91B2
:100EE0000F91FF900895AF92BF92DF92EF92FF9221
:100EF0000F931F93CF93DF935C0100E713E0D0E0E3
:100F0000C0E0F801D1908F017501EC0EFD1EC70104
:100F10000E941426D81621F06D2DC7010E941C26B0
:100F20002196CC33D10569F780E793E0DF91CF912B
:100F30001F910F91FF90EF90DF90BF90AF900895B9
:100F40002DE0829FF0011124E95BFD4F2091960373
:100F5000908121FB91F922FB92F924FB94F923FB68
:100F600093F925FB95F926FB96F920FB90F99083E0
:100F7000662351F0277C2F7B209396032CE3829FDE
:100F8000C00111240C94730708950F931F93CF93FE
:100F9000DF9307E312E0C5EED3E0CE010E941426F2
:100FA000F80181938F012196C13FF3E0DF07A9F794
:100FB000609138027091390280913A0290913B021F
:100FC00020EB34E040E050E00E944A26672B682B7B
:100FD000692B61F080E895E2A0E0B0E080933802F0
:100FE00090933902A0933A02B0933B0280913C0265
:100FF00080930001DF91CF911F910F910895EF929F
:10100000FF920F931F93CF93DF93C82FD62F2CE31C
:10101000829FC001112400E713E0FC01E057F34078
:101020007F01C701800F911F0E941426F801819350
:101030008F01F3E00C3A1F07A1F7DD23A9F02DE0A3
:10104000C29FF0011124E95BFD4F908180919603CE
:1010500094FB84F993FB83F995FB85F996FB86F95C
:1010600090FB80F980939603DF91CF911F910F91B0
:10107000FF90EF9008952F923F924F925F926F9260
:101080007F928F929F92AF92BF92CF92DF92EF9218
:10109000FF920F931F93CF93DF93CDB7DEB76B977C
:1010A0000FB6F894DEBF0FBECDBF27E432E03F8B12
:1010B0002E8B212C1D8A10E061E0822D0E94FF07FB
:1010C0003090940340904302509044026090450257
:1010D0007090460249865A866B867C86832D89707D
:1010E00009F427C18091880390918903A0918A0314
:1010F000B0918B0360907C0370907D0380907E03A1
:1011000090907F03698A7A8A8B8A9C8A8090700388
:1011100090907103A0907203B09073038D869E86A9
:10112000AF86B88A89889A88AB88BC88CD84DE84EB
:10113000EF84F8888C0C9D1CAE1CBF1CC12CD12CDC
:10114000760181149104A104B10481F049845A8488
:101150006B847C84481A590A6A0A7B0AC301B2016B
:10116000A50194010E944A266B017C0149845A849E
:101170006B847C844C185D086E087F0849825A8213
:101180006B827C824D845E846F84788829813A8169
:101190004B815C81420E531E641E751E280D391D45
:1011A0004A1D5B1D2D833E834F8358878D849E840B
:1011B000AF84B888C814D904EA04FB0408F057C106
:1011C0005301420149805A806B807C8081E0AE8966
:1011D000BF8915964D925D926D927C921897FD0194
:1011E00081869286A386B486882309F411C231FED3
:1011F000A0C140908C0350908D0360908E0370903E
:101200008F034D865E866F86788AD301C20149803E
:101210005A806B807C80840D951DA61DB71D498466
:101220005A846B847C8484159505A605B70508F05F
:1012300064C1409074035090750360907603709081
:101240007703498A5A8A6B8A7C8A4090800350903F
:101250008103609082037090830329893A894B89C6
:101260005C89420E531E641E751E60E070E0CB0167
:10127000411451046104710471F0C701B6012D8558
:101280003E854F855889621B730B840B950BA30118
:1012900092010E944A26C61AD70AE80AF90A298941
:1012A0003A894B895C892C0D3D1D4E1D5F1D288F91
:1012B000398F4A8F5B8F29893A894B895C896217FC
:1012C00073078407950708F4D8C04C0C5D1C6E1C8E
:1012D0007F1CC88CD98CEA8CFB8C488E598E6A8E08
:1012E0007B8E80E0088D198D2A8D3B8D49805A8038
:1012F0006B807C80040D151D261D371DC40CD51C6C
:10130000E61CF71CAE89BF891596CD92DD92ED9251
:10131000FC921897882309F4D4C0081519052A05EA
:101320003B0508F0ACC0FD01018712872387348795
:1013300011E069857A858B859C8520E83AE349E050
:1013400050E00E944A2620E831E541E050E00E944A
:101350004A26672B682B692B09F0A7C22F5F3091B3
:101360009503832F90E002C0959587952A95E2F723
:1013700080FD02C0311110E080919603EE89FF8953
:10138000418152816381748181FD93C282FD8FC24C
:1013900084FF0AC049845A846B847C8444165506B1
:1013A0006606770608F485C283FF0AC069847A84DA
:1013B0008B849C84641675068606970608F477C2AB
:1013C00080FF77C234FE02C091E0192785FB992780
:1013D00090F9911739F010FB85F98064809396039A
:1013E00021E02D8B4115510561057105C9F0498436
:1013F0005A846B847C84441655066606770680F012
:10140000AE89BF8911961D921D921D921C92149750
:1014100080919603877E806480939603B1E0BD8BB4
:1014200060E0822D0E94A0072394EE89FF893D96FB
:10143000FF8BEE8BF0E12F123FCE8D896B960FB6AE
:10144000F894DEBF0FBECDBFDF91CF911F910F91FA
:10145000FF90EF90DF90CF90BF90AF909F908F90D4
:101460007F906F905F904F903F902F9008958D8068
:101470009E80AF80B88480E0AACE81E033CF32FE78
:1014800057CF8091900390919103A0919203B091D6
:101490009303892B8A2B8B2B09F04ACF80917803F9
:1014A00090917903A0917A03B0917B03880D991DE7
:1014B000AA1DBB1DEE89FF8981879287A387B48708
:1014C00037CF081519052A053B0548F4AE89BF89B1
:1014D00019960D931D932D933C931C977DC032FE5E
:1014E00013C08091900390919103A0919203B091C9
:1014F0009303880D991DAA1DBB1DEE89FF89818765
:101500009287A387B48768C08D849E84AF84B8888F
:101510004D805E806F807884840C951CA61CB71C5F
:10152000AE89BF8919968D929D92AD92BC921C97FF
:1015300053C032FEFDCE8091900390919103A09113
:101540009203B0919303880E991EAA1EBB1EEE89CA
:10155000FF8981869286A386B486C0907803D09056
:101560007903E0907A03F0907B032091840330911B
:10157000850340918603509187032C0D3D1D4E1D20
:101580005F1D2115310541055105A9F089889A880B
:10159000AB88BC88F1E08F1A9108A108B10824013A
:1015A0003501481A590A6A0A7B0AC301B2010E942E
:1015B0004A269B01AC012C153D054E055F0570F4D4
:1015C00069807A808B809C80AE89BF8915966D92E8
:1015D0007D928D929C92189710E0ABCEB1E0CB1A21
:1015E000D108E108F10849805A806B807C80C40CE6
:1015F000D51CE61CF71CC21AD30AE40AF50AAE8908
:10160000BF891596CD92DD92ED92FC921897E4CFAA
:1016100032FEECC08090900390909103A0909203D2
:10162000B0909303888E998EAA8EBB8ED501C4018B
:10163000840D951DA61DB71DA984BA84CB84DC84B6
:101640008A159B05AC05BD0508F057CFC0907803FF
:10165000D0907903E0907A03F0907B03C982DA821C
:10166000EB82FC8289849A84AB84BC8484189508BC
:10167000A608B708C0908403D0908503E090860345
:10168000F090870329813A814B815C81C20ED31E81
:10169000E41EF51E40E050E0BA01C114D104E1049B
:1016A000F10481F0C501B401288D398D4A8D5B8D1F
:1016B000621B730B840B950BA70196010E944A26AF
:1016C000AB01BC01D501C401841B950BA60BB70B64
:1016D00009811A812B813C81080F191F2A1F3B1F8A
:1016E00089809A80AB80BC80481559056A057B05C6
:1016F00038F1C80ED91EEA1EFB1ED901C801970198
:10170000860140E0040D151D261D371D840D951D15
:10171000A61DB71DEE89FF8985839683A783B087B1
:101720004D805E806F8078844423D1F104151505C7
:101730002605370538F40187128723873487F8CDCB
:1017400041E0E0CF4D805E806F807884AE89BF89B4
:1017500019964D925D926D927C921C9731FEE8CD68
:1017600080918C0390918D03A0918E03B0918F0393
:10177000892B8A2B8B2B09F0DBCD80907403909002
:101780007503A0907603B0907703840C951CA61C7B
:10179000B71CEE89FF8981869286A386B486C8CD60
:1017A000041515052605370508F490CE31FE09C04D
:1017B00080908C0390908D03A0908E03B0908F0347
:1017C000A7CE888C998CAA8CBB8C4D845E846F8448
:1017D0007888840C951CA61CB71CCD80DE80EF8019
:1017E000F8848C0C9D1CAE1CBF1C9ACE31FEF4CE2E
:1017F00080908C0390908D03A0908E03B0908F0307
:10180000898A9A8AAB8ABC8A8D809E80AF80B88490
:10181000C988DA88EB88FC888C0C9D1CAE1CBF1C28
:10182000AE89BF8919968D929D92AD92BC921C97FC
:10183000C0907403D0907503E0907603F090770326
:101840002091800330918103409182035091830362
:101850002C0D3D1D4E1D5F1D211531054105510506
:10186000C1F06D857E858F859889615071098109E8
:10187000910969837A838B839C8389889A88AB8852
:10188000BC88681979098A099B090E944A269B012C
:10189000AC012C153D054E055F0508F49DCE61E0B9
:1018A000C61AD108E108F108A2CE2E5F58CD11E08A
:1018B00089CD10E087CDFC0101900020E9F7319738
:1018C000AF01481B590BBC018CEA93E00C94A102B8
:1018D0008F929F92AF92BF920F931F93CF93DF93FC
:1018E000CDB7DEB7A1970FB6F894DEBF0FBECDBF60
:1018F00019A2423008F44AE08E010F5D1F4F842E7A
:10190000912CB12CA12CA50194010E944A26E62F0E
:10191000B901CA01EA30F4F4E05DD801EE938D011B
:10192000232B242B252B79F790E080E0109719F0DA
:10193000CD010E945B0CA1960FB6F894DEBF0FBEDE
:10194000CDBFDF91CF911F910F91BF90AF909F902E
:101950008F900895E95CE1CF009711F00C945B0C37
:1019600090E080E0089581E092E00C94AC0C85E971
:1019700093E00E948E038DE291E00E945B0C8DE665
:1019800093E00C948E03EF92FF920F931F93CF93EB
:10199000C62F21E020934C0328E620936E0310927B
:1019A0004D0310926F038C017C01E60EF11CE016D2
:1019B000F10641F0F80161918F0189E494E00E9401
:1019C0007B05F5CF81E00E943404811107C08C2F84
:1019D000CF911F910F91FF90EF9008958FEFF8CF67
:1019E000CF931092860180911402CAE06C2F0E945E
:1019F0002A268295807F980F909387018091130209
:101A00000E942A268295807F980F9093880180916A
:101A100012020E942A268295807F980F9093890156
:101A200064E086E891E00E94C30C181634F584E067
:101A300080938601809102016C2F0E942A26829554
:101A4000807F980F90938701809103010E942A263E
:101A50008295807F980F9093880180910401805D2A
:101A60000E942A268295807F980F9093890164E0D6
:101A700086E891E0CF910C94C30CCF91089589E949
:101A800093E00E948E034AE061E070E080E090E025
:101A90000E94680C87E993E00C948E038F929F92CA
:101AA000AF92BF92EF920F931F93CF9361E087E0C5
:101AB00091E00E94C30C109215020E9445024B0156
:101AC0005C0180914603811165C081E080934603EB
:101AD000809345039FEF909344031092430396E055
:101AE000909342038093210380912103806D809322
:101AF000210380912003813009F08BC010922003D4
:101B00000E9445024B015C01809121038093BB0040
:101B10008091480390914903A0914A03B0914B03EF
:101B2000892B8A2B8B2BA1F00E9445020091480340
:101B30001091490320914A0330914B0368197909A8
:101B40008A099B09061717072807390708F443C0B5
:101B50008091BC0083FDD8CF85EC8093BC000E94AF
:101B600045024B015C0180914603813009F453C06A
:101B70008091430307E0873010F400914303E2E2D1
:101B8000F3E0A7E9B1E080E0801751F191919D93D6
:101B90008F5FFACF8091480390914903A0914A0347
:101BA000B0914B03892B8A2B8B2B09F48ACF0E948F
:101BB0004502009148031091490320914A03309156
:101BC0004B03681979098A099B0906171707280723
:101BD000390708F076CF809147030E94130400E094
:101BE000109200020093FF0185E1A82E82E0B82E3A
:101BF000C0E080910002081781F1C73071F189E4DB
:101C000094E00E943405F50181935F01CF5F10825B
:101C1000F0CF85EEA2CF8091480390914903A09127
:101C20004A03B0914B03892B8A2B8B2B09F49BCF52
:101C30000E944502009148031091490320914A03F4
:101C400030914B03681979098A099B090617170710
:101C50002807390708F087CFBECF81E00E943404FF
:101C600081117AC0C73009F077C080911502282F02
:101C700022952F709AE08F70E82E299FE00C112496
:101C8000E092140200911602802F82958F700F70DF
:101C9000899F000D11240093130220911702822FB7
:101CA00082958F702F70899F200D1124209312022E
:101CB00080911902382F32953F708F70399F800DB7
:101CC00011248093020160911A02362F32953F70E1
:101CD0006F70399F600D11246093030140911B02C6
:101CE000342F32953F704F70399F400D112450E0D2
:101CF0004053584F473EF7E05F075CF150930501B2
:101D0000409304018090430290904402A0904502C9
:101D1000B090460240910401509105010E949D0639
:101D2000609343027093440280934502909346026D
:101D3000A5019401261B370B480B590BCA01B901A9
:101D4000CF911F910F91EF90BF90AF909F908F9088
:101D5000089547EE57E0D2CF60E070E0CB01F0CFBE
:101D60000F931F938FB7F894409118035091190364
:101D700060911A0370911B038FBF00918201109133
:101D800083012091840130918501DB01CA01401754
:101D900051076207730718F40197A109B109801B65
:101DA000910BA20BB30B00917E0110917F0120914A
:101DB000800130918101800F911FA21FB31F883EC7
:101DC00023E09207A105B10508F4F5C04093820114
:101DD000509383016093840170938501885E9340E2
:101DE000A109B10980937E0190937F01A0938001A6
:101DF000B093810180917A0190917B01A0917C0147
:101E0000B0917D010196A11DB11D80937A0190933F
:101E10007B01A0937C01B0937D01809179018F5F5C
:101E2000809379018C3339F4809178011092790193
:101E30008F5F80937801809178018C3339F48091A1
:101E40007701109278018F5F8093770180917701FD
:101E5000883159F410927701809175019091760143
:101E600001969093760180937501809114028F5FA3
:101E700080931402409143025091440260914502C4
:101E8000709146024F5F5F4F6F4F7F4F4093430209
:101E90005093440260934502709346028C3339F4A8
:101EA00080911302109214028F5F8093130280912D
:101EB00013028C3339F480911202109213028F5F57
:101EC0008093120280911202883161F51092120201
:101ED000909102019F5F90930201809103018230F3
:101EE00009F051C09D3170F080910401909105017D
:101EF0000E94DF05811106C081E08093020183E02A
:101F000080930301809103018D3061F481E080931F
:101F100003018091040190910501019690930501C0
:101F2000809304018091710190917201A0917301DD
:101F3000B0917401892B8A2B8B2B71F40E944E0D6A
:101F400080E891E5A1E0B0E0809371019093720187
:101F5000A0937301B093740180917101909172010B
:101F6000A0917301B09174010197A109B109809307
:101F7000710190937201A0937301B093740181E099
:101F80001F910F910895863019F020F4843031F4B8
:101F90002FE105C08930E1F38B30D1F320E2022E2E
:101FA000000C330B9217130609F0ACCF91E090931D
:101FB00002018F5FA5CF80E0E3CFCF92DF92EF9257
:101FC000FF920F931F93CF93CCE3E62EF12C082FB3
:101FD00010E068018FE1C81AD1080E94B00E81118B
:101FE000C1508CEA93E00E94FF02892BB9F10E9454
:101FF000AD05982F892F992369F190334CF0292F43
:10200000092E000C330B20533109E216F306D4F4E9
:10201000913634F1292F092E000C330B02171307C8
:102020008CF4292F092E000C330B2C153D0554F090
:102030009B31D1F09B3231F09D3221F0CCE39D7F7A
:102040009C3359F6CF911F910F91FF90EF90DF9045
:10205000CF900895C111C1CF8FEFF4CF90E0CACFD8
:102060009134FCF69D3021F780E0ECCFCF93C82F60
:102070008FE291E0C03110F480E391E00E94AC0C5B
:102080006C2F70E090E080E040E1CF910C94680C00
:10209000FF920F931F93CF93DF93F82E82E391E08B
:1020A0000E94AC0C06E112E0D1E0C0E0F8018191A1
:1020B0008F01C8270E943610DF5FFD12F7CF8C2FEB
:1020C0000E9436108CEE92E0DF91CF911F910F911C
:1020D000FF900C948E03CF93C82F8BEC92E00E945C
:1020E0008E036C2F70E090E080E04AE00E94680C64
:1020F00089EC92E0CF910C948E03CF93C82F81117D
:1021000001C0C7E28091700181110CC082EE8C0F7A
:10211000883030F086EA8C0F883010F0C73211F426
:10212000C09301018BEB92E00E948E036C2F70E054
:1021300090E080E04AE00E94680C89EB92E00E9407
:102140008E03C73211F0CF910895C1E3DBCFCF9357
:10215000C82F1092700180E00E94BA108091010196
:10216000CC2329F081E08093700180910001CF9110
:102170000C947D10CF93C82F80917001882319F0A3
:1021800080E00E94A7108EEB92E0C11102C083ECA8
:1021900092E0CF910C948E03CF93C82F80E00E94E1
:1021A000BA1088EE92E00E948E03CC2321F081E0E9
:1021B000CF910C94BA10CF910895CF93C82F80E09F
:1021C0000E94A7108C2F0E947D1081E0CF910C946B
:1021D000BA10CF92EF920F931F93CF93DF93182FE4
:1021E000D42FC22F662319F081E00E942C07EE2025
:1021F00011F0C1100DC080E00E94A7108091420232
:102200008823C9F10E94DD1089ED92E00E948E03BF
:10221000DD2319F08D2F0E94A903812F0E94A903AD
:1022200086EE92E00E948E03002321F084EE92E07D
:102230000E948E0380E00E94BA108EED92E00E9410
:102240008E03002319F081E00E942C07CC2319F0A3
:102250008C2F0E94A90380E00E947D10EE20D9F00F
:10226000C1101BC081E0DF91CF911F910F91EF90C2
:10227000CF900C94BA1080E00E94BA1080E00E94C7
:102280007D10C2CF81E0DF91CF911F910F91EF9030
:10229000CF900C94A710C110F5CFDF91CF911F9173
:1022A0000F91EF90CF900895CF92EF920F93C12CA2
:1022B000E12C00E020E048E261E00E94E9100F918B
:1022C000EF90CF900895CF92EF920F93C12CE12C15
:1022D00001E020E040E060E00E94E9100F91EF9003
:1022E000CF900895CF92EF920F93C42EE62E01E087
:1022F00020E040E060E00E94E9100F91EF90CF9065
:102300000895CF93DF93C82FD62F86EB92E00E94DB
:102310008E036D2F70E090E080E04AE00E94680C30
:1023200084EB92E00E948E036C2F70E090E080E0DE
:102330004AE00E94680C82EB92E0DF91CF910C940E
:102340008E030F931F93CF938C0180E00E947D102A
:1023500088EF92E00E948E0380E00E947D100E9430
:10236000300761E081E00E94811181E00E94BA1093
:10237000F80101900020E9F7902F9E1B9F5A892FAA
:102380008695C92FC81B0E942C07C8010E94AC0C5F
:102390008C2F0E942C0780E00E94BA108FE193E0FE
:1023A0000E948E0382E0CF911F910F9108951F9399
:1023B000CF93DF93C82F862FD42FCC2341F06623F1
:1023C00031F011E01C0F6C2F0E948111C12F6D2F75
:1023D0008DE20E941F078C2FDF91CF911F910895EE
:1023E000CF93C82F0E9447070E943F0D0E944B07C2
:1023F0008C2F0E94BA1069E38DE20E941F0780E0D3
:102400000E94BA100E9447070E943F0D0E944B078E
:102410008EE091E00E948E0381E0CF910C94BA107F
:1024200085ED8093BC008091480390914903A09171
:102430004A03B0914B030796A11DB11D23E0B69549
:10244000A795979587952A95D1F72091BC0024FDF3
:1024500003C01092460308954091480350914903E8
:1024600060914A0370914B03452B462B472B69F330
:102470000097A105B10541F02AE22A95F1F700C0C5
:102480000197A109B109E1CF809147030C9413048E
:102490002F923F924F925F926F927F928F929F9274
:1024A000AF92BF92CF92DF92EF92FF920F931F9362
:1024B000CF93DF937C01FC0101900020E9F7319775
:1024C0006E2E681A20E1261518F4FC011082612C8A
:1024D00081E00E94BA1084EF92E00E948E0380E0B7
:1024E0000E94BA1084E20E947D100E944B07662071
:1024F00049F00E943007C7010E94AC0C8FE193E0C5
:102500000E948E03B70186E891E00E94AD26E62D79
:10251000F0E0EA57FE4F1082562C162DC12CD12C1C
:10252000212C912CC0E0D0E090E1892E0CE3DD302D
:1025300009F4B1C10E94B00E8823C9F00150B9F46A
:1025400080E00E947D1080E0DF91CF911F910F917C
:10255000FF90EF90DF90CF90BF90AF909F908F90C3
:102560007F906F905F904F903F902F9008958CEAEE
:1025700093E00E94FF02892BD1F28CEA93E00E9443
:10258000DD02D82F412E4518662009F493C1992405
:1025900093945C12912CDC2ED60C312E3D18CC2459
:1025A000C394C30CDD3009F438C1A4F4D830B1F0C1
:1025B000DA3009F432C12C2E80EE8D0F8F3508F001
:1025C000B5CF103108F40FC1662009F4AFCFAA24AB
:1025D000A394D6C0DB3129F0DF3769F72C2EA12C6C
:1025E000CFC02C2E0E946A0200E0A12C712CDBE1EE
:1025F0008CEA93E00E94FF02892B09F446C0739491
:102600008CEA93E00E94DD02D82F0E946A02F3E078
:102610007F1651F1F71558F021E07216A9F032E05B
:102620007316A9F0AA24A394E3CF342CDBCF84E063
:10263000781639F195E07912F5CF8FEB8D0F843054
:1026400088F70FE70D0FD4CFDB3561F7D1CFD53346
:1026500034F4D33314F4D13329F70D2FC9CF8FEBD2
:102660008D0F8430F8F6F9CFDB3311F2DE37D1F677
:10267000013309F4BDCFB0F28DEC800F823090F6BB
:10268000B7CFD23309F4B4CFCDCF772009F458CFE8
:10269000A1104CCF033409F456C0E0F4043389F0A0
:1026A00058F4013309F449C0033309F45EC06620CD
:1026B00009F43CCF412C0AC0013409F43EC0023475
:1026C000B1F7742C662009F44EC04318742C750CB5
:1026D000612C7AC0013C69F168F4043409F43BC010
:1026E000003C29F7752C7194552009F41FCF611017
:1026F0005DC012C0023C49F0033CC9F661E05110D4
:1027000001C060E0762E719405C077247394411067
:1027100001C0712C611047C0772009F4E8C0672C14
:10272000752C760CC52D16140CF44EC06194C72D73
:102730004BC0742C4110DBCFF9CE662009F4D5C014
:102740004C2E4518C3CF6110C0CF7724739441102D
:102750000AC0712C08C06110F3CF61E0511001C0B4
:1027600060E0762E7194612C7BC0611009C0511617
:1027700080F7DD24D394D50CC42C252C66246394D7
:102780004C2D50E06D2D70E06A577E4F822D90E009
:102790008A579E4F0E9494261619722CAA2009F47B
:1027A00097CF522C22C0772009F4C0CE8C2F860DF3
:1027B000992091F0C70D7C2EC81718F4982F8C2FF4
:1027C000C92F6C2E681AC82F0E944707662009F48B
:1027D00090C0C11193C0A2C0780E872DC71588F78D
:1027E0008C2FC72DEECF6110F2CE852D90E0FC012D
:1027F000EA57FE4F5F0189579E4F511680F4442DD2
:1028000050E04F5F5F4FBF010E949426F501D083D7
:1028100077247394750C1F5F5BCF2C2E87CEFC0141
:102820001082F4CF8FE193E00E948E035C2E560C51
:10283000852D90E09C012A573E4F5901511638F4DE
:10284000F50181915F010E94A9035394F7CF5C2E9B
:10285000882D811B0E942C070E944707C52D512CF3
:10286000772009F463CE570C171424F4872D0E94A7
:102870006B105CCE81EF92E00E948E037194672D05
:1028800070E090E080E04AE00E94680C8FEE92E0F9
:102890000E948E034BCEE12FF0E0EA57FE4F1082EC
:1028A00080E00E947D1066E871E0C7010E94AD26BD
:1028B00081E04ACE8D3009F439CE34F4883051F0BD
:1028C0008A3009F433CE78CE8B3109F4AECE8F370F
:1028D00009F072CE552059F022242A94250CCC24DC
:1028E000C394C40CD52CA12C49CF752C3BCF612CA3
:1028F0001DCE512C112309F4ABCFC12F86E8A82E91
:1029000081E0B82E512CF50181915F010E94A9034D
:1029100053945C12F8CF662009F49ACF0E943007D6
:102920005C2E2C2F260D3327331F5901852D90E067
:102930008A159B050CF076CF8A579E4FFC0180814B
:102940000E94A9035394F2CF0F931F93CF93DF9369
:10295000042F122F2AE046E851E00E94B62546E8EF
:1029600051E0FA0101900020E9F7AF0147585140CA
:10297000842FC02FC41B1C16A4F455270C2E000C4A
:10298000DD0B66E871E0CE018A579E4F0E949426C7
:10299000612F110F770BAE0186E891E00E94A62609
:1029A000802FE82FF0E0EA57FE4F1082DF91CF91A1
:1029B0001F910F910895DF92EF92FF920F931F9353
:1029C000CF93DF93162FEA01D22E682F70E090E0AC
:1029D00080E020E342E00E94A41466E871E081E018
:1029E00092E00E94AD2681E0E82E82E0F82EF70109
:1029F000D282612F70E090E080E020E342E00E940C
:102A0000A41466E871E084E092E00E94AD26F7012C
:102A1000D582BE0190E080E020E3402F0E94A41404
:102A200066E871E087E092E00E94AD26E02FF0E0DA
:102A3000EF5FFD4F1682DF91CF911F910F91FF90B5
:102A4000EF90DF900895AF92BF92CF92DF92EF9216
:102A5000FF920F931F93CF93DF9300D01F92CDB7B8
:102A6000DEB719821A821B829E012D5F3F4F5901EA
:102A700021503109690121503109790110E000E04C
:102A800030E020E050E040E00E9415064B8150E02D
:102A900002E02AE36A8189810E94DB140F900F9083
:102AA0000F90DF91CF911F910F91FF90EF90DF90EA
:102AB000CF90BF90AF900895EF920F931F93CF9355
:102AC000DF930E94231581E092E00E94481262E3A6
:102AD00071E086E891E00E948A25E12C00E010E098
:102AE000D0E0C0E0009741F1C330D10569F4212F57
:102AF00047EE57E061E081E00E949D06DF91CF91B3
:102B00001F910F91EF9008950E943E258C33B0F4F1
:102B1000209759F4883190F4182F62E371E090E027
:102B200080E00E948A252196DDCFC130D10511F0C9
:102B3000E82EF3CF082FF1CF2397C9F260E070E0C1
:102B4000CB01DCCF0F931F93CF93DF93C82F862F3A
:102B5000D22F662329F0442319F0642F0E9481119B
:102B6000DD2351F181E00E94BA108BE993E00E94CD
:102B7000AC0C80E00E94BA102BE933E0F90101901F
:102B80000020E9F79F012C59334080E1821B0E940D
:102B90002C078BE091E00E948E03013089F0609158
:102BA00043027091440280914502909146020E9436
:102BB00023150E94B30C0CC082E10E946B10EDCF74
:102BC0008091940383FF28C082E091E00E948E03ED
:102BD00080E00E94A71080E00E94CC1080919603B4
:102BE00081FF36C08FE10E94DD108CEC90E00E94E6
:102BF0008E0380E00E94BA1080E00E947D1080E089
:102C00000E94CC108091960381FF7CC08FE10E94CE
:102C1000DD108BE890E07DC080FF14C0982F967087
:102C2000963019F489EF90E0D1CF81FF03C080EF97
:102C300090E0CCCF82FF03C087EE90E0C7CF8EED4F
:102C400090E0C4CF81E00E94A71085ED90E0BECF58
:102C500082FF06C080E20E94DD1083EC90E0C7CFC7
:102C600084FF20C09DE0C99FF0011124E95BFD4F66
:102C700001811281238134814091430250914402A9
:102C80006091450270914602401751076207730731
:102C900048F481E00E94A7108FE10E947D108AEB2A
:102CA00090E0A5CF83FF20C09DE0C99FF0011124D3
:102CB000E95BFD4F01811281238134814091430200
:102CC00050914402609145027091460240175107AD
:102CD0006207730748F481E00E94A71080E20E9417
:102CE0007D1081EB90E083CF80FF06C081E00E94E1
:102CF000BA1088EA90E07BCF81E00E94A7108FE9AC
:102D000090E075CF82FF2AC080E20E94DD1087E844
:102D100090E00E948E0380E00E94BA1080E00E9442
:102D20007D1080E00E94CC1080919603982F9670C1
:102D300009F45FC081E00E94A71088E00E942C0780
:102D400087E990E00E948E0388E00E942C0780E0D3
:102D5000DF91CF911F910F910C94CC1084FF1EC076
:102D60009DE0C99FF0011124E95BFD4F01811281B3
:102D70002381348140914302509144026091450285
:102D800070914602401751076207730738F481E0DB
:102D90000E94A7108FE10E947D103BCF83FF1EC0D1
:102DA0009DE0C99FF0011124E95BFD4F0181128173
:102DB0002381348140914302509144026091450245
:102DC00070914602401751076207730738F481E09B
:102DD0000E94A71080E20E947D1099CF80FF03C05F
:102DE00085FFD8CFF7CF81E00E94A7108BE990E054
:102DF00090CF982F987199F085E00E942C07EDE014
:102E0000CE9FE0011124C95BDD4F69817A818B81FE
:102E10009C810E9423150E94B30C86E096CF80FF10
:102E200050C0D0E085FF31C080E20E947D108DE06F
:102E30008C9FF0018D9FF00D1124E95BFD4F6581A2
:102E40007681878190850E9423150E94B30C87E2CA
:102E50000E947D1083E990E00E948E038FE10E9422
:102E60007D108DE08C9FF0018D9FF00D1124E95BAA
:102E7000FD4F61857285838594850E9423150E948C
:102E8000B30C87E20E947D1062CF8FE10E947D101B
:102E90008DE08C9FF0018D9FF00D1124E95BFD4FBB
:102EA00065817681878190850E9423150E94B30CED
:102EB00087E20E947D108FE890E00E948E0380E2FE
:102EC000CECFDF91CF911F910F9108952F923F9216
:102ED0004F925F926F927F928F929F92AF92BF922A
:102EE000CF92EF92FF920F931F93CF93DF93D82F40
:102EF00061E00E94FF07F12C84E8482E83E0582E01
:102F0000612C712C2DE0D29FC0011124AC01495BD2
:102F10005D4F5A014A015FEF851A950A22242394D6
:102F2000312C84E391E00E94A111C82F11E0180F09
:102F30004BE464E00E94D711612F84E00E9481116C
:102F4000C12CE12C00E020E248E260E080E30E9436
:102F5000E91001E021E0412F6AE08D2F0E94A215C7
:102F600013E01C0F4BE464E082E08C0F0E94D71149
:102F7000112321F0612F8BE00E9481110E944B07E9
:102F8000809194038970C3E039F18AE00E946B104C
:102F900081E00E94CC1085E691E00E948E0381E0E2
:102FA0000E94CC108091940381FFC8C288E591E013
:102FB0000E948E0381E00E94CC108091940382FFD6
:102FC00007C08EE391E00E948E0381E00E94CC1046
:102FD00081E00E94F011C6E080919403897009F4A9
:102FE00053C085E391E00E948E0380E00E94BA10F6
:102FF00083E391E00E948E0380E00E94CC108091D8
:10300000940383FFA0C2609188037091890380912B
:103010008A0390918B030E9423150E94B30C81E3D5
:103020000E94541180E00E94CC108091940381FF93
:1030300093C26091740370917503809176039091AF
:1030400077030E9423150E94B30C84E30E9454115D
:1030500080E00E94CC108091940382FF12C06091A6
:1030600078037091790380917A0390917B030E9499
:1030700023150E94B30C87E30E94541180E00E9444
:10308000CC1080E00E94F01180919403897009F4C3
:1030900050C08AE291E00E948E0380E00E94BA1044
:1030A00088E291E00E948E0380E00E94CC10809123
:1030B000940383FF56C260919703709198038091A7
:1030C000990390919A030E9423150E94B30C82E306
:1030D0000E94541180E00E94CC108091940381FFE3
:1030E00049C2609180037091810380918203909125
:1030F00083030E9423150E94B30C85E30E945411A0
:1031000080E00E94CC108091940382FF12C06091F5
:1031100084037091850380918603909187030E94B8
:1031200023150E94B30C88E30E94541180E00E9492
:10313000CC1080919403897009F447C080E00E940C
:10314000F0118FE191E00E948E0380E00E94BA109E
:103150008DE191E00E948E0380E00E94CC1080916E
:10316000940383FF0CC20E944F0780E00E94CC10A2
:10317000CF5F8091940381FF12C260918C037091A4
:103180008D0380918E0390918F030E9423150E94DE
:10319000B30C86E30E94541180E00E94CC10809111
:1031A000940382FF12C0609190037091910380910B
:1031B0009203909193030E9423150E94B30C89E31C
:1031C0000E94541180E00E94CC1080919403897079
:1031D00049F00E9447070E943F0D69E38DE20E947B
:1031E0001F07CF5FC10F6C2F84E00E948111609197
:1031F0009403617040E081E60E94721182E492E0E3
:103200000E948E03609194036695617040E082E6AF
:103210000E9472118FE292E00E948E0360919403EB
:1032200062FB662760F940E083E60E94721180E24B
:1032300092E00E948E0361E06C0F84E00E94811195
:103240006091940363FB662760F940E084E60E9486
:1032500072118CE092E00E948E036091940362955B
:10326000617040E085E60E94721189EF91E00E9452
:103270008E0380919403897061E009F060E040E082
:1032800086E60E94721180EF91E00E948E0343E077
:1032900064E082E08C0F0E94D71163E06C0F84E041
:1032A0000E9481114091950361E0411160E087E641
:1032B0000E9472118AEE91E00E948E036091950344
:1032C00011E061FB442740F941276695617088E66B
:1032D0000E94721184EE91E00E948E03609195032A
:1032E00062FB442740F9412762FB662760F989E6C3
:1032F0000E9472118EED91E00E948E036091950301
:1033000063FB442740F9412763FB662760F98AE69F
:103310000E94721188ED91E00E948E0360919503E6
:1033200064FB442740F94127629561708BE60E9457
:10333000721182ED91E00E948E036091950365FB0E
:10334000442740F9412765FB662760F98CE60E9417
:1033500072118CEC91E00E948E036091950366FBE4
:10336000442740F9412766FB662760F98DE60E94F5
:10337000721186EC91E00E948E0360919503462FB6
:103380004095441F4427441F661F6627661F8EE62C
:103390000E94721180EC91E00E948E0343E064E091
:1033A00084E08C0F0E94D71165E06C0F84E00E94CE
:1033B000811160919603617040E08FE60E94721166
:1033C00086EB91E00E948E038AE00E942C076091B8
:1033D00096036695617040E080E70E94721188EA6A
:1033E00091E00E948E0386E00E942C076091960374
:1033F00062FB662760F940E081E70E9472118BE969
:1034000091E00E948E0343E064E086E08C0F0E940E
:10341000D71167E06C0F84E00E94811160919603E0
:103420006295617040E082E70E9472118DE891E040
:103430000E948E0386E00E942C076091960363FB36
:10344000662760F940E083E70E94721180E891E00E
:103450000E948E0387E00E942C0784E70E9463117C
:1034600082E791E00E948E0381E00E94BA10C301BE
:10347000B2010E9423150E94B30C80E00E94BA1092
:103480004BE464E088E08C0F0E94D7110E94B70CD7
:1034900069E084E70E94DD0FC82FE0EDE80FE53416
:1034A00008F08CC00E2E000CFF0BE75AF54E0C9462
:1034B0006C26D41A311B5B1B351B851B981BAB1B61
:1034C000BE1BD11BE41BDE1ADE1ADE1ADE1ADE1A60
:1034D000DE1ADE1ADE1ADE1ADE1ADE1ADE1ADE1A2C
:1034E000DE1ADE1ADE1ADE1ADE1ADE1ADE1ADE1A1C
:1034F000DE1ADE1ADE1ADE1ADE1ADE1ADE1ADE1A0C
:10350000DE1ADE1ADE1ADE1ADE1ADE1ADE1ADE1AFB
:10351000DE1ADE1AF71BFE1B0E1C151C1A1C221CC1
:103520002E1C311C311C311C311C311C311C311C36
:103530004B1C511C561C5B1C741C791C82FF3DCD1E
:103540008BE491E035CD60917003709171038091AF
:103550007203909173035FCD82FF7DCD0E944F0770
:1035600077CD60917C0370917D0380917E03909173
:103570007F03A9CD82FFC7CD0E944F07C1CD6091C7
:1035800088037091890380918A0390918B030E9434
:1035900023150E94B30C83E30E945411E6CD82FFF1
:1035A000FECD0E944F07F8CD8BE993E00E944812B0
:1035B00066E871E08BE993E00E94AD268091940368
:1035C00083FF46C08FEC8C0F823018F0C43609F0B0
:1035D0003FC08091970390919803A0919903B09177
:1035E0009A03409188035091890360918A037091F6
:1035F0008B0384179507A607B70720F480589E4AC7
:10360000AE4FBF4F841B950BA60BB70B8093700377
:1036100090937103A0937203B0937303809170032E
:1036200090917103A0917203B091730320E831E58A
:1036300041E050E0281B390B4A0B5B0BDA01C90152
:1036400080937C0390937D03A0937E03B0937F03CC
:103650001C160CF055C1C43709F463CCFF24F39455
:1036600060CC8091940383FF13C0609188037091B4
:10367000890380918A0390918B030E945C1560936B
:1036800088037093890380938A0390938B0396CF6A
:103690006091700370917103809172039091730334
:1036A0000E945C15609370037093710380937203A2
:1036B0009093730383CF8091940383FF13C0609131
:1036C0009703709198038091990390919A030E94B7
:1036D0005C1560939703709398038093990390937C
:1036E0009A036CCF60917C0370917D0380917E037F
:1036F00090917F030E945C1560937C0370937D031F
:1037000080937E0390937F0359CF609174037091EF
:10371000750380917603909177030E945C15609306
:10372000740370937503809376039093770346CF69
:103730006091800370918103809182039091830353
:103740000E945C15609380037093810380938203D1
:103750009093830333CF60918C0370918D0380919C
:103760008E0390918F030E945C1560938C0370937D
:103770008D0380938E0390938F0320CF6091780305
:103780007091790380917A0390917B030E945C157C
:10379000609378037093790380937A0390937B030B
:1037A0000DCF609184037091850380918603909181
:1037B00087030E945C156093840370938503809354
:1037C000860390938703FACE6091900370919103E2
:1037D00080919203909193030E945C1560939003F3
:1037E000709391038093920390939303E7CE80911B
:1037F00094038160877F80939403E0CE909194033B
:10380000892F8D7F91FF826080939403982F96700B
:1038100009F4D4CE83FDD2CE8160EDCF9091940394
:10382000892F8B7F92FF8460EFCF809194038E7FEE
:103830008860E1CF90919403892F8F7E94FF8061FF
:103840008093940380919403887F877F809394036F
:10385000809196038E7F80939603B0CE109295034D
:10386000ADCE4091950359E9580FC101052E01C015
:10387000880F0A94EAF7242F30E002C03595279587
:103880005A95E2F720FD04C0482B4093950396CE4D
:1038900080954823FACF809196038160817E806471
:1038A000DACF80919603807E8260F9CF8091960373
:1038B000807E8460F4CFF50180818061877F8064A1
:1038C00080838091430290914402A0914502B0917F
:1038D0004602840D951DA61DB71DF40180839183BA
:1038E000A283B383CFEF6ACEF50180818F7E88609B
:1038F000E6CFC301B2010E945C152B013C015ECEF4
:10390000FF20A9F061E08D2FDF91CF911F910F91E2
:10391000FF90EF90CF90BF90AF909F908F907F904F
:103920006F905F904F903F902F900C94A007DF9185
:10393000CF911F910F91FF90EF90CF90BF90AF90DC
:103940009F908F907F906F905F904F903F902F90BF
:103950000895CF92DF92EF92FF926B017C012AE0F3
:1039600041E052E00E94B62581E092E00E944812B8
:10397000882341F086E891E0FF90EF90DF90CF90B0
:103980000C945C25C701B601FF90EF90DF90CF90BB
:103990000895CF92DF92EF92FF92CF93DF93C09082
:1039A0007A01D0907B01E0907C01F0907D01C7010D
:1039B000B6010E942315C701B60120E831E541E0B8
:1039C00050E00E944A26CA01B90120E243E00E9469
:1039D000A41449E050E061E072E086E092E00E94C9
:1039E0009426C1E0D2E083E0E6E8F1E0DE01019058
:1039F0000D928A95E1F784E68B8380E28C83DF91D8
:103A0000CF91FF90EF90DF90CF900C94B30CAF92DA
:103A1000BF92CF92DF92EF92FF920F931F93CF93BB
:103A2000DF93809137028111C0C083E491E00E944E
:103A3000A11147E465E08E5F0E94D711182F87E43B
:103A4000A82E82E0B82ED0E0C0E09DE0F92EDC2E5A
:103A5000FC9EF001FD9EF00D1124E95BFD4F80817D
:103A600081FD3CC082FD3AC084FF12C0F501418156
:103A70005281638174818091430290914402A091AC
:103A80004502B091460284179507A607B70730F1A3
:103A9000FC9EF001FD9EF00D1124E95BFD4F80813D
:103AA00083FF12C0F501418152816381748180914D
:103AB000430290914402A0914502B09146028417BE
:103AC0009507A607B70750F0FC9EF001FD9EF00D8C
:103AD0001124E95BFD4F808180FF1DC0612F85E0CF
:103AE0000E948111C12CE12C01E020E240E060E065
:103AF00081E68D0D0E94E91061E08D2D0E94FF0787
:103B0000EE24E394E10E02E021E0412F69E08D2DE7
:103B10000E94A2151E2D2196FDE0AF0EB11CC031F2
:103B2000D10509F094CF80913702811129C00E94FC
:103B3000300768E181E00E94811181E00E94BA10A3
:103B400084E00E942C0787E591E00E94AC0C80E0A5
:103B50000E94BA1081E30E947D1086E592E00E94E7
:103B60008E034AE060E070E0CB010E94680C0E9486
:103B7000C91C89E10E942C078FE193E00E948E030B
:103B800081E00E94BA1047E465E0812F0E94D711BE
:103B900080E0DF91CF911F910F91FF90EF90DF9028
:103BA000CF90BF90AF900C94BA10833018F081E0A2
:103BB00080930601DF91CF911F910F91FF90EF90BD
:103BC000DF90CF90BF90AF9008954F925F926F9229
:103BD0007F928F929F92AF92BF92CF92DF92EF929D
:103BE000FF920F931F93CF93DF9300D000D0CDB7F8
:103BF000DEB760EB462E64E0562E612C712C912CC2
:103C0000812C0E943B0883E491E00E94A111F82ED0
:103C100010E0DD24D394D80E6D2D610F85E00E9455
:103C20008111C12CE12C01E020E240E060E081E65E
:103C3000810F0E94E91061E0812F0E94FF0721E0BF
:103C400040E060E0812F0E94A2151F5F103121F734
:103C500043E068E081E18F0D0E94D711182F682F93
:103C600085E00E94811181E30E94631188EA92E05D
:103C70000E948E0382E30E94631180EA92E00E9418
:103C80008E0383E30E94631188E992E00E948E0311
:103C900084E30E9463118DE892E00E948E03C0903D
:103CA0003D02D12CF12CE12C81E00E94BA1020E3DE
:103CB00043E0C701B6010E94A41486E891E00E9487
:103CC000AC0C80E00E94BA1083E00E942C0785E3D0
:103CD0000E94631184E892E00E948E0381E00E94BA
:103CE000BA10609138027091390280913A02909135
:103CF0003B024AE00E94680C61E0610F85E00E948F
:103D0000811186E30E94631188E792E00E948E038E
:103D100081E00E94BA10E0913702F0E0EE0FFF1F41
:103D2000E059FD4F6591749186E891E00E948325EA
:103D30000E94AC0C83E00E942C0787E30E94631171
:103D40008CE692E00E948E0381E00E94A71083E639
:103D500092E00E948E0380E00E94A71088E30E94F8
:103D600063118AE592E00E948E030E94B70C68E01E
:103D700080E70E94DD0F182F833309F40FC10CF088
:103D8000B1C0803309F43DCF24F581E0810F82304A
:103D900030F08FE9810F803110F40E946617111600
:103DA0000CF42FCF0E94071D0F900F900F900F90D3
:103DB000DF91CF911F910F91FF90EF90DF90CF9007
:103DC000BF90AF909F908F907F906F905F904F903B
:103DD0000895813309F4BBC08233D9F66091430260
:103DE0007091440280914502909146021C821B8290
:103DF0001A821982B12CA12CD12CC12CF12CE12CCE
:103E00008E010F5F1F4F9E012D5F3F4FAE014C5F34
:103E10005F4F0E94150649815A8104E02EE26B81B2
:103E20008C810E94DB1481E092E00E94481265E6DA
:103E300071E086E891E00E948A25B12CD12C10E037
:103E400000E0009709F4A2C00330110509F082C018
:103E5000E12C00E020E04B2D5A2D6C2D8D2D0E9481
:103E60009D065B016C01E090140200911302209109
:103E7000120247EE57E061E081E00E949D066A0D64
:103E80007B1D8C1D9D1D24E1A22E22E0B22E33E16C
:103E9000C32E32E0D32E42E1E42E42E0F42E04E0C1
:103EA00011E023E031E042E051E00E9415060E945B
:103EB000F00C4091040150910501E0901402009132
:103EC00013022091120260910301809102010E946D
:103ED0009D06609343027093440280934502909341
:103EE00046028FCE863309F481C024F5843309F469
:103EF0006DC0853309F04DCF609138027091390261
:103F000080913A0290913B020E94A91C6093380272
:103F10007093390280933A0290933B02A30192017D
:103F20000E944A26672B682B692B09F05CC00E940F
:103F3000530767CE873309F464C0883309F029CF6B
:103F4000809142020E94340780934202F0CFF40134
:103F5000099557CE0E943E2597FD1CC001151105FD
:103F600069F480329105B4F4D82E65E671E090E0F2
:103F700080E00E948A250F5F1F4F63CF013011053B
:103F800011F4C82EF2CFB82EA92EEFCF03301105B1
:103F900009F45ECFA12CB12C650165CF609143027D
:103FA0007091440280914502909146020E945C15F6
:103FB0005B016C014091040150910501E12C00E08E
:103FC00020E0609103018091020157CF60913D0292
:103FD00070E090E080E00E94A91C60933D02615077
:103FE0006E3F08F4A4CF0E94C5070BCE8091370224
:103FF0008F5F843018F48093370299CF1092370284
:1040000096CF80913C020E94340780933C028093BB
:1040100000018DCF1F920F920FB60F9211242F9394
:104020003F938F939F93AF93BF9380911803909189
:104030001903A0911A03B0911B033091170323E0D9
:10404000230F2D3758F50196A11DB11D209317039D
:104050008093180390931903A0931A03B0931B0342
:1040600080911C0390911D03A0911E03B0911F032A
:104070000196A11DB11D80931C0390931D03A09375
:104080001E03B0931F03BF91AF919F918F913F91FA
:104090002F910F900FBE0F901F90189526E8230FB9
:1040A0000296A11DB11DD2CF1F920F920FB60F9293
:1040B00011242F933F934F935F936F937F938F932D
:1040C0009F93AF93BF93EF93FF938CEA93E00E948B
:1040D0001F03FF91EF91BF91AF919F918F917F91BE
:1040E0006F915F914F913F912F910F900FBE0F9065
:1040F0001F9018951F920F920FB60F9211242F93B5
:104100008F939F93EF93FF93E091BC03F091BD03D6
:104110008081E091C203F091C30382FD1BC09081B6
:104120008091C5038F5F8F732091C603821741F082
:10413000E091C503F0E0E455FC4F958F8093C503F3
:10414000FF91EF919F918F912F910F900FBE0F9044
:104150001F9018958081F4CF1F920F920FB60F9287
:1041600011242F933F934F935F936F937F938F937C
:104170009F93AF93BF93EF93FF938091B900887F94
:10418000803609F44AC0F0F5883209F4A7C018F562
:10419000803109F49BC0B8F4882309F4F9C0883051
:1041A00009F494C0FF91EF91BF91AF919F918F91CE
:1041B0007F916F915F914F913F912F910F900FBE23
:1041C0000F901F901895883109F488C0803251F7FC
:1041D0008093440314C0803409F49DC040F48033BC
:1041E000B9F38833F9F68093440385ECB0C0803589
:1041F00009F485C0883509F496C0883499F60E9480
:104200001012D0CF883909F48CC038F5883729F0DE
:1042100050F4883611F0803729F683E08093460306
:104220001092FA0157C0883809F47BC0803919F020
:10423000803809F0B7CF8091FA01803208F071C060
:10424000E091FA0181E08E0F8093FA018091BB002A
:10425000F0E0E652FE4F80833DC0803B39F0E0F451
:10426000803A09F479C0883A09F09CCF84E08093C1
:1042700046031092D9011092D801E091FD01F0910E
:10428000FE0109958091D80181110FC081E08093D2
:10429000D8011092B80109C0803C09F4A6CF883C2F
:1042A00009F4A3CF883B09F07DCFE091D90181E0EB
:1042B0008E0F8093D901F0E0E854FE4F8081809307
:1042C000BB009091D9018091D80129C08091210330
:1042D0008093BB0085EC8093BC0064CF9091430336
:1042E00080914203981758F5E091430381E08E0FC7
:1042F00080934303F0E0EE5DFC4F8081E9CFE091D5
:10430000430381E08E0F809343038091BB00F0E074
:10431000EE5DFC4F80839091430380914203981798
:10432000C8F285E8D8CFE091430381E08E0F8093F7
:1043300043038091BB00F0E0EE5DFC4F80838091F1
:10434000450381115CCF81E08093200384EA809350
:10435000BC001092460326CF85EC8093BC001092DF
:1043600046038091FA01803230F4E091FA01F0E0E6
:10437000E652FE4F10826091FA0170E0E091FB017D
:10438000F091FC018AED91E009951092FA010ACFB3
:104390001092440334CFECEAF3E01382128288EEE9
:1043A00093E0A0E0B0E084839583A683B7832DE0FB
:1043B00031E03183208325EC30E03587248724ECFD
:1043C00030E03787268720EC30E0318B208B21ECE2
:1043D00030E0338B228B22EC30E0358B248B26ECC3
:1043E00030E0378B268B118E128E138E148EE9E4FB
:1043F000F4E01382128284839583A683B7838FE1CE
:1044000091E0918380830895789484B5826084BD1F
:1044100084B5816084BD85B5826085BD85B58160C8
:1044200085BD80916E00816080936E001092810046
:104430008091810082608093810080918100816001
:1044400080938100809180008160809380008091C2
:10445000B10084608093B1008091B000816080934E
:10446000B00080917A00846080937A0080917A0015
:10447000826080937A0080917A00816080937A00D4
:1044800080917A00806880937A001092C1000E9427
:10449000C507C0903802D0903902E0903A02F090FF
:1044A0003B0260E079E08DE390E0A70196010E9475
:1044B0004A262150310941095109569547953795AA
:1044C0002795E091BC03F091BD0382E08083C11485
:1044D00081EED806E104F10421F02115E0E13E0768
:1044E000A8F0E091BC03F091BD03108260E874E88D
:1044F0008EE190E0A70196010E944A2621503109E1
:10450000410951095695479537952795E091B8038C
:10451000F091B9033083E091BA03F091BB0320839B
:104520001092C403E091C003F091C10386E0808340
:10453000E091BE03F091BF03808180618083E091B0
:10454000BE03F091BF03808188608083E091BE0349
:10455000F091BF03808180688083E091BE03F09179
:10456000BF0380818F7D80838AEF8093B800109293
:1045700000021092FF0110924D0310926F030E94EF
:10458000F5038FE992E09093FE018093FD0180EAAC
:1045900092E09093FC018093FB010E944E0D80E01D
:1045A0000E947D1088EF92E00E948E0361E081E01E
:1045B0000E94811167E4E62E62E0F62E10E000E032
:1045C000812C912C54018394E2E07E2ED0E0C0E057
:1045D000FDE06F2EA0E7CA2EA3E0DA2EBCE35B2E2F
:1045E000F701262D11922A95E9F760E08C2F0E94A1
:1045F000FF0760E08C2F0E94A00780919B03882317
:1046000059F08BE993E0FC0101900020E9F7CF011C
:104610008C5993404197F8F087E093E00E948E0315
:104620004AE0C501B4010E94680C8DE291E00E944D
:104630005B0CF601252D11922A95E9F767E671E0EA
:104640008BE993E00E94AD268FE3870D8093A3034F
:10465000C8010E947307FE01E95BFC4F4491FE0113
:10466000ED5CFC4F8491882399F090E0880F991FAE
:10467000FC01E350FD4FA591B491FC01E95DFC4FB5
:10468000259134918FB7F894EC914E2B4C938FBFBA
:104690008091940384FF99C061E0872D0E94F90105
:1046A0006C9EF0016D9EF00D1124E95BFD4F808141
:1046B0008062808321963DE0E30EF11C73948FEFBE
:1046C000881A980AA80AB80A045C1F4FE2E17E1211
:1046D00087CF0E94E51D3DE0D32E44E0642E20E00C
:1046E000A22E20E0B22E9AE3C92E0E94B00E88239B
:1046F00009F449C00E943B08182F811174C08091B1
:104700000601C7E4D2E0F12CE12C811171C0809147
:10471000370281118DC161E083E40E9481110E9402
:1047200030070E94C91C68E18DE30E94811140910D
:1047300004015091050104E02EE260910301809193
:1047400002010E94DB1481E092E00E94AC0C81E047
:104750000E942C074091140250E002E02AE360918D
:104760001302809112020E94DB1481E092E00E9409
:10477000AC0C85E293E00E948E038FE193E00E94EF
:104780008E03109206018CEA93E00E94FF02892BAF
:1047900081F00E94AD05882361F09091370291115C
:1047A00069C18156803108F062C10E9466170E947B
:1047B000071DA114B10409F498CF0E940B038823AC
:1047C00009F491CF0E9400008ACF60E0872D0E94FB
:1047D000F9016C9EF0016D9EF00D1124E95BFD4F17
:1047E00080818F7D66CFC7E4D2E0F12CE12C10E010
:1047F00085E0782E5E2CDE9CF001DF9CF00D11240C
:10480000E95BFD4F808181FD40C082FD3DC084FF9A
:1048100012C049815A816B817C81809143029091C1
:104820004402A0914502B091460284179507A6075D
:10483000B70708F468C0DE9CF001DF9CF00D11247E
:10484000E95BFD4F808183FF12C049815A816B81F2
:104850007C818091430290914402A0914502B091E5
:10486000460284179507A607B70708F44EC0DE9CDA
:10487000F001DF9CF00D1124E95BFD4F808114E015
:1048800080FD03C015E035C011E0DE9CF001DF9C27
:10489000F00D1124E95BFD4F808186FD04C08091FD
:1048A0000601882329F161E0852D0E94FF07809190
:1048B000370281112CC002E020E0472D69E0852DF0
:1048C0000E94A215DE9CC001DF9C900D11249C016A
:1048D000295B3D4F4901F901608165FB662760F95D
:1048E00082E0850D0E94F901F40180818F7B808335
:1048F0007394FFEFEF1AFF0A2D9620E1E216F10400
:1049000009F078CF04CF12E0C0CF13E0BECF8330E0
:10491000C8F2DE9CF001DF9CF00D1124E95BFD4F35
:10492000808185FB882780F990913D02C092150215
:104930009093160291E0909317020E2DE0921802C8
:104940001093190280931A0286E00E944810809109
:10495000940383FD48C080FF48C0982F967096301E
:1049600009F445C081FD45C082FF45C084E09091B7
:104970003D02C092150290931602609217020093B6
:1049800018028093190285E00E944810123008F442
:1049900099CF143090F1143009F094CF80913D02FA
:1049A000C09215028093160286E08093170200934E
:1049B00018028D819E812F813885309319022093B2
:1049C0001A0290931B0280931C0289859A852B857D
:1049D0003C8530931D0220931E0290931F0280930A
:1049E00020028CE022C081E0C2CF80E0C0CF85E011
:1049F000BECF83E0BCCF82E0BACF80913D02C092AF
:104A000015028093160285E0809317020093180226
:104A100089819A812B813C813093190220931A025B
:104A200090931B0280931C0288E00E9448104ACF9A
:104A3000833008F4A6CE80913D02C0921502809387
:104A40001602109217028091430290914402209125
:104A50004502309146023093180220931902909338
:104A60001A0280931B0287E00E9448108ACE0E949F
:104A7000E51D9FCE81E0809306019BCEFC01882737
:104A80009927E89421912032E9F3293010F02E3053
:104A9000C8F32B3241F02D3239F4689404C00E94DF
:104AA000DA25820F911D219120532A30C0F31EF484
:104AB000909581959F4F08951F93FC019927882712
:104AC000BC01E89411911032E9F3193010F01E3056
:104AD000C8F31B3251F01D3249F4689406C00E949D
:104AE000C525610F711D811D911D119110531A3043
:104AF000B0F33EF490958095709561957F4F8F4F00
:104B00009F4F1F910895FB01DC0105900D9200203D
:104B1000E1F7089545E554E00E948F250895FA01D4
:104B2000A191B081009719F41097E1F0CD01DC015B
:104B3000CD010D90002011F4C00113C0FB012191A3
:104B4000222319F02015D9F7F3CFFB01219120156D
:104B500019F41E92119606C02223C1F70D90002071
:104B6000A1F7D001FA01A193B0830895BB272A30A1
:104B700051F4992342F4BDE290958095709561952A
:104B80007F4F8F4F9F4F0C94E325592F482F372F7E
:104B9000262F660F771F881F991F660F771F881FA4
:104BA000991F620F731F841F951F660F771F881F41
:104BB000991F08957AE0979F902D879F802D910DE2
:104BC00011240895BB27FA01A62F621771058105EC
:104BD0009105330B30FB66F0AA27660F771F881FFD
:104BE000991FAA1FA21710F0A21B63953850A9F7AE
:104BF000A05DAA3308F0A95DA19336F7B111B19376
:104C00001082CA010C940426DC01FC01672F71910B
:104C10007723E1F7329704C07C916D9370836291A2
:104C2000AE17BF07C8F30895F999FECF92BD81BDB5
:104C3000F89A992780B50895262FF999FECF1FBAC3
:104C400092BD81BD20BD0FB6F894FA9AF99A0FBEB5
:104C500001960895991B79E004C0991F961708F0F2
:104C6000961B881F7A95C9F780950895AA1BBB1BD0
:104C700051E107C0AA1FBB1FA617B70710F0A61B5C
:104C8000B70B881F991F5A95A9F780959095BC017D
:104C9000CD010895A1E21A2EAA1BBB1BFD010DC078
:104CA000AA1FBB1FEE1FFF1FA217B307E407F507DC
:104CB00020F0A21BB30BE40BF50B661F771F881FB8
:104CC000991F1A9469F760957095809590959B014E
:104CD000AC01BD01CF010895EE0FFF1F0590F491C7
:104CE000E02D0994A29FB001B39FC001A39F700D56
:104CF000811D1124911DB29F700D811D1124911DE4
:104D000008950E947226A59F900DB49F900DA49FB8
:104D1000800D911D11240895B7FF0C9481260E94E7
:104D20008126821B930B08956817790768F4FB01AD
:104D3000DC01E40FF51FA40FB51F02C002900E9214
:104D400041505040D8F708950C94B426DC0101C0BE
:104D50006D9341505040E0F70895FB01DC01019054
:104D60000D920020E1F70895FB01DC0102C00190E3
:0E4D70000D9241505040D8F70895F894FFCFAF
:104D7E005C270101E707010000000000004103A1CC
:104D8E0002CE02AE03FF02DD02F102000000007B44
:104D9E00054E05AA0524054705340525050D0A000F
:104DAE0030003A002D20456469742D54696D65728A
:104DBE00202D002D20517569636B54696D6572202D
:104DCE00312E3038202D004C6F6F7020737461724D
:104DDE007465642E2E2E0044656661756C742D000C
:00000001FF
